{
	"data": {
		"bytecode": {
			"linkReferences": {},
			"object": "60806040523480156200001157600080fd5b506040516200587038038062005870833981810160405281019062000037919062000303565b81816000600660006101000a81548160ff0219169083151502179055508160079081620000659190620005d3565b508060089081620000779190620005d3565b5050506200009a6200008e620000a260201b60201c565b620000aa60201b60201c565b5050620006ba565b600033905090565b6000601160009054906101000a900473ffffffffffffffffffffffffffffffffffffffff16905081601160006101000a81548173ffffffffffffffffffffffffffffffffffffffff021916908373ffffffffffffffffffffffffffffffffffffffff1602179055508173ffffffffffffffffffffffffffffffffffffffff168173ffffffffffffffffffffffffffffffffffffffff167f8be0079c531659141344cd1fd0a4f28419497f9722a3daafe3b4186f6b6457e060405160405180910390a35050565b6000604051905090565b600080fd5b600080fd5b600080fd5b600080fd5b6000601f19601f8301169050919050565b7f4e487b7100000000000000000000000000000000000000000000000000000000600052604160045260246000fd5b620001d9826200018e565b810181811067ffffffffffffffff82111715620001fb57620001fa6200019f565b5b80604052505050565b60006200021062000170565b90506200021e8282620001ce565b919050565b600067ffffffffffffffff8211156200024157620002406200019f565b5b6200024c826200018e565b9050602081019050919050565b60005b83811015620002795780820151818401526020810190506200025c565b60008484015250505050565b60006200029c620002968462000223565b62000204565b905082815260208101848484011115620002bb57620002ba62000189565b5b620002c884828562000259565b509392505050565b600082601f830112620002e857620002e762000184565b5b8151620002fa84826020860162000285565b91505092915050565b600080604083850312156200031d576200031c6200017a565b5b600083015167ffffffffffffffff8111156200033e576200033d6200017f565b5b6200034c85828601620002d0565b925050602083015167ffffffffffffffff81111562000370576200036f6200017f565b5b6200037e85828601620002d0565b9150509250929050565b600081519050919050565b7f4e487b7100000000000000000000000000000000000000000000000000000000600052602260045260246000fd5b60006002820490506001821680620003db57607f821691505b602082108103620003f157620003f062000393565b5b50919050565b60008190508160005260206000209050919050565b60006020601f8301049050919050565b600082821b905092915050565b6000600883026200045b7fffffffffffffffffffffffffffffffffffffffffffffffffffffffffffffffff826200041c565b6200046786836200041c565b95508019841693508086168417925050509392505050565b6000819050919050565b6000819050919050565b6000620004b4620004ae620004a8846200047f565b62000489565b6200047f565b9050919050565b6000819050919050565b620004d08362000493565b620004e8620004df82620004bb565b84845462000429565b825550505050565b600090565b620004ff620004f0565b6200050c818484620004c5565b505050565b5b81811015620005345762000528600082620004f5565b60018101905062000512565b5050565b601f82111562000583576200054d81620003f7565b62000558846200040c565b8101602085101562000568578190505b6200058062000577856200040c565b83018262000511565b50505b505050565b600082821c905092915050565b6000620005a86000198460080262000588565b1980831691505092915050565b6000620005c3838362000595565b9150826002028217905092915050565b620005de8262000388565b67ffffffffffffffff811115620005fa57620005f96200019f565b5b620006068254620003c2565b6200061382828562000538565b600060209050601f8311600181146200064b576000841562000636578287015190505b620006428582620005b5565b865550620006b2565b601f1984166200065b86620003f7565b60005b8281101562000685578489015182556001820191506020850194506020810190506200065e565b86831015620006a55784890151620006a1601f89168262000595565b8355505b6001600288020188555050505b505050505050565b6151a680620006ca6000396000f3fe608060405234801561001057600080fd5b50600436106101e55760003560e01c806370a082311161010f578063c4d66de8116100a2578063e985e9c511610071578063e985e9c51461057f578063f25259f6146105af578063f2fde38b146105cb578063fdcdcb33146105e7576101e5565b8063c4d66de8146104d0578063c87b56dd146104ec578063c94c1bd41461051c578063dd3eb9bd1461054c576101e5565b806395d89b41116100de57806395d89b411461045e578063a22cb4651461047c578063b88d4fde14610498578063bceb2a22146104b4576101e5565b806370a08231146103fc578063715018a61461042c5780638456cb59146104365780638da5cb5b14610440576101e5565b80632f745c59116101875780634f6ccce7116101565780634f6ccce71461034e57806353885f311461037e5780635c975abb146103ae5780636352211e146103cc576101e5565b80632f745c59146102dc5780633f4ba83a1461030c57806342842e0e1461031657806342966c6814610332576101e5565b8063095ea7b3116101c3578063095ea7b31461026857806318160ddd14610284578063238ac933146102a257806323b872dd146102c0576101e5565b806301ffc9a7146101ea57806306fdde031461021a578063081812fc14610238575b600080fd5b61020460048036038101906101ff9190613192565b610617565b60405161021191906131da565b60405180910390f35b610222610629565b60405161022f9190613285565b60405180910390f35b610252600480360381019061024d91906132dd565b610666565b60405161025f919061334b565b60405180910390f35b610282600480360381019061027d9190613392565b6106ac565b005b61028c6107c3565b60405161029991906133e1565b60405180910390f35b6102aa6107d0565b6040516102b7919061334b565b60405180910390f35b6102da60048036038101906102d591906133fc565b6107f6565b005b6102f660048036038101906102f19190613392565b610856565b60405161030391906133e1565b60405180910390f35b6103146108fb565b005b610330600480360381019061032b91906133fc565b61090d565b005b61034c600480360381019061034791906132dd565b61092d565b005b610368600480360381019061036391906132dd565b6109a2565b60405161037591906133e1565b60405180910390f35b610398600480360381019061039391906134e0565b610a13565b6040516103a591906133e1565b60405180910390f35b6103b6610b4d565b6040516103c391906131da565b60405180910390f35b6103e660048036038101906103e191906132dd565b610b64565b6040516103f3919061334b565b60405180910390f35b6104166004803603810190610411919061358f565b610bea565b60405161042391906133e1565b60405180910390f35b610434610ca1565b005b61043e610cb5565b005b610448610cc7565b604051610455919061334b565b60405180910390f35b610466610cf1565b6040516104739190613285565b60405180910390f35b610496600480360381019061049191906135bc565b610d2e565b005b6104b260048036038101906104ad919061372c565b610d44565b005b6104ce60048036038101906104c99190613850565b610da6565b005b6104ea60048036038101906104e5919061358f565b610e04565b005b610506600480360381019061050191906132dd565b610eef565b6040516105139190613285565b60405180910390f35b610536600480360381019061053191906138bd565b610f77565b60405161054391906133e1565b60405180910390f35b610566600480360381019061056191906132dd565b610fa3565b60405161057694939291906138fd565b60405180910390f35b61059960048036038101906105949190613942565b611000565b6040516105a691906131da565b60405180910390f35b6105c960048036038101906105c4919061358f565b611094565b005b6105e560048036038101906105e0919061358f565b6110e0565b005b61060160048036038101906105fc91906132dd565b611163565b60405161060e9190613a04565b60405180910390f35b60006106228261125d565b9050919050565b60606040518060400160405280600d81526020017f4d4544414c2e547269706c654300000000000000000000000000000000000000815250905090565b6000610671826112d7565b600b600083815260200190815260200160002060009054906101000a900473ffffffffffffffffffffffffffffffffffffffff169050919050565b60006106b782610b64565b90508073ffffffffffffffffffffffffffffffffffffffff168373ffffffffffffffffffffffffffffffffffffffff1603610727576040517f08c379a000000000000000000000000000000000000000000000000000000000815260040161071e90613a91565b60405180910390fd5b8073ffffffffffffffffffffffffffffffffffffffff16610746611322565b73ffffffffffffffffffffffffffffffffffffffff16148061077557506107748161076f611322565b611000565b5b6107b4576040517f08c379a00000000000000000000000000000000000000000000000000000000081526004016107ab90613b23565b60405180910390fd5b6107be838361132a565b505050565b6000600f80549050905090565b601260009054906101000a900473ffffffffffffffffffffffffffffffffffffffff1681565b610807610801611322565b826113e3565b610846576040517f08c379a000000000000000000000000000000000000000000000000000000000815260040161083d90613bb5565b60405180910390fd5b610851838383611478565b505050565b600061086183610bea565b82106108a2576040517f08c379a000000000000000000000000000000000000000000000000000000000815260040161089990613c47565b60405180910390fd5b600d60008473ffffffffffffffffffffffffffffffffffffffff1673ffffffffffffffffffffffffffffffffffffffff168152602001908152602001600020600083815260200190815260200160002054905092915050565b6109036115c8565b61090b611646565b565b61092883838360405180602001604052806000815250610d44565b505050565b6109356115c8565b61093e816116a9565b6015600082815260200190815260200160002060008082016000905560018201600090556002820160006101000a81549073ffffffffffffffffffffffffffffffffffffffff02191690556002820160146101000a81549060ff0219169055505050565b60006109ac6107c3565b82106109ed576040517f08c379a00000000000000000000000000000000000000000000000000000000081526004016109e490613cd9565b60405180910390fd5b600f8281548110610a0157610a00613cf9565b5b90600052602060002001549050919050565b60006016600088815260200190815260200160002060009054906101000a900460ff1615610a76576040517f08c379a0000000000000000000000000000000000000000000000000000000008152600401610a6d90613d74565b60405180910390fd5b610a8d610a8689898989896117f7565b848461185d565b610acc576040517f08c379a0000000000000000000000000000000000000000000000000000000008152600401610ac390613de0565b60405180910390fd5b60016016600089815260200190815260200160002060006101000a81548160ff021916908315150217905550600060405180608001604052808a81526020018881526020018773ffffffffffffffffffffffffffffffffffffffff1681526020018615158152509050610b3f8682611906565b915050979650505050505050565b6000600660009054906101000a900460ff16905090565b600080610b7083611a1c565b9050600073ffffffffffffffffffffffffffffffffffffffff168173ffffffffffffffffffffffffffffffffffffffff1603610be1576040517f08c379a0000000000000000000000000000000000000000000000000000000008152600401610bd890613e4c565b60405180910390fd5b80915050919050565b60008073ffffffffffffffffffffffffffffffffffffffff168273ffffffffffffffffffffffffffffffffffffffff1603610c5a576040517f08c379a0000000000000000000000000000000000000000000000000000000008152600401610c5190613ede565b60405180910390fd5b600a60008373ffffffffffffffffffffffffffffffffffffffff1673ffffffffffffffffffffffffffffffffffffffff168152602001908152602001600020549050919050565b610ca96115c8565b610cb36000611a59565b565b610cbd6115c8565b610cc5611b1f565b565b6000601160009054906101000a900473ffffffffffffffffffffffffffffffffffffffff16905090565b60606040518060400160405280600581526020017f4d4544414c000000000000000000000000000000000000000000000000000000815250905090565b610d40610d39611322565b8383611b82565b5050565b610d55610d4f611322565b836113e3565b610d94576040517f08c379a0000000000000000000000000000000000000000000000000000000008152600401610d8b90613bb5565b60405180910390fd5b610da084848484611cee565b50505050565b610dae6115c8565b8060139081610dbd919061410a565b506013604051610dcd919061426a565b60405180910390207f5b2f71ae2236304212a8f3529aa50b6ae9fe556cc6a4af4f9b51f89328d057f260405160405180910390a250565b601160149054906101000a900460ff1615610e54576040517f08c379a0000000000000000000000000000000000000000000000000000000008152600401610e4b906142cd565b60405180910390fd5b610e5d81611a59565b610ed16040518060400160405280600781526020017f547269706c6543000000000000000000000000000000000000000000000000008152506040518060400160405280600581526020017f312e302e30000000000000000000000000000000000000000000000000000000815250611d4a565b6001601160146101000a81548160ff02191690831515021790555050565b6060610efa82611e2a565b610f39576040517f08c379a0000000000000000000000000000000000000000000000000000000008152600401610f309061435f565b60405180910390fd5b6000610f43611e6b565b905080610f4f84611efd565b604051602001610f609291906143b0565b604051602081830303815290604052915050919050565b6000610f816115c8565b610f9b8383803603810190610f969190614451565b611906565b905092915050565b60156020528060005260406000206000915090508060000154908060010154908060020160009054906101000a900473ffffffffffffffffffffffffffffffffffffffff16908060020160149054906101000a900460ff16905084565b6000600c60008473ffffffffffffffffffffffffffffffffffffffff1673ffffffffffffffffffffffffffffffffffffffff16815260200190815260200160002060008373ffffffffffffffffffffffffffffffffffffffff1673ffffffffffffffffffffffffffffffffffffffff16815260200190815260200160002060009054906101000a900460ff16905092915050565b61109c6115c8565b80601260006101000a81548173ffffffffffffffffffffffffffffffffffffffff021916908373ffffffffffffffffffffffffffffffffffffffff16021790555050565b6110e86115c8565b600073ffffffffffffffffffffffffffffffffffffffff168173ffffffffffffffffffffffffffffffffffffffff1603611157576040517f08c379a000000000000000000000000000000000000000000000000000000000815260040161114e906144f0565b60405180910390fd5b61116081611a59565b50565b61116b6130e6565b61117482611e2a565b6111b3576040517f08c379a00000000000000000000000000000000000000000000000000000000081526004016111aa9061455c565b60405180910390fd5b6015600083815260200190815260200160002060405180608001604052908160008201548152602001600182015481526020016002820160009054906101000a900473ffffffffffffffffffffffffffffffffffffffff1673ffffffffffffffffffffffffffffffffffffffff1673ffffffffffffffffffffffffffffffffffffffff1681526020016002820160149054906101000a900460ff1615151515815250509050919050565b60007f780e9d63000000000000000000000000000000000000000000000000000000007bffffffffffffffffffffffffffffffffffffffffffffffffffffffff1916827bffffffffffffffffffffffffffffffffffffffffffffffffffffffff191614806112d057506112cf82611fcb565b5b9050919050565b6112e081611e2a565b61131f576040517f08c379a000000000000000000000000000000000000000000000000000000000815260040161131690613e4c565b60405180910390fd5b50565b600033905090565b81600b600083815260200190815260200160002060006101000a81548173ffffffffffffffffffffffffffffffffffffffff021916908373ffffffffffffffffffffffffffffffffffffffff160217905550808273ffffffffffffffffffffffffffffffffffffffff1661139d83610b64565b73ffffffffffffffffffffffffffffffffffffffff167f8c5be1e5ebec7d5bd14f71427d1e84f3dd0314c0f7b2291e5b200ac8c7c3b92560405160405180910390a45050565b6000806113ef83610b64565b90508073ffffffffffffffffffffffffffffffffffffffff168473ffffffffffffffffffffffffffffffffffffffff16148061143157506114308185611000565b5b8061146f57508373ffffffffffffffffffffffffffffffffffffffff1661145784610666565b73ffffffffffffffffffffffffffffffffffffffff16145b91505092915050565b611480610b4d565b156114cb5760006114c6576040517f08c379a00000000000000000000000000000000000000000000000000000000081526004016114bd906145c8565b60405180910390fd5b6115b8565b60006015600083815260200190815260200160002060405180608001604052908160008201548152602001600182015481526020016002820160009054906101000a900473ffffffffffffffffffffffffffffffffffffffff1673ffffffffffffffffffffffffffffffffffffffff1673ffffffffffffffffffffffffffffffffffffffff1681526020016002820160149054906101000a900460ff161515151581525050905080606001516115b6576040517f08c379a00000000000000000000000000000000000000000000000000000000081526004016115ad90614634565b60405180910390fd5b505b6115c38383836120ad565b505050565b6115d0611322565b73ffffffffffffffffffffffffffffffffffffffff166115ee610cc7565b73ffffffffffffffffffffffffffffffffffffffff1614611644576040517f08c379a000000000000000000000000000000000000000000000000000000000815260040161163b906146a0565b60405180910390fd5b565b61164e6123a6565b6000600660006101000a81548160ff0219169083151502179055507f5db9ee0a495bf2e6ff9c91a7834c1ba4fdd244a5e8aa4e537bd38aeae4b073aa611692611322565b60405161169f919061334b565b60405180910390a1565b60006116b482610b64565b90506116c48160008460016123ef565b6116cd82610b64565b9050600b600083815260200190815260200160002060006101000a81549073ffffffffffffffffffffffffffffffffffffffff02191690556001600a60008373ffffffffffffffffffffffffffffffffffffffff1673ffffffffffffffffffffffffffffffffffffffff168152602001908152602001600020600082825403925050819055506009600083815260200190815260200160002060006101000a81549073ffffffffffffffffffffffffffffffffffffffff021916905581600073ffffffffffffffffffffffffffffffffffffffff168273ffffffffffffffffffffffffffffffffffffffff167fddf252ad1be2c89b69c2b068fc378daa952ba7f163c4a11628f55a4df523b3ef60405160405180910390a46117f381600084600161254d565b5050565b60006118527fd551cbcd8ecb0ac2fcd6e90cb64f0f834565672971fed08ac62146837dcd43bd8787878787604051602001611837969594939291906146d9565b60405160208183030381529060405280519060200120612553565b905095945050505050565b6000601260009054906101000a900473ffffffffffffffffffffffffffffffffffffffff1673ffffffffffffffffffffffffffffffffffffffff166118e68585858080601f016020809104026020016040519081016040528093929190818152602001838380828437600081840152601f19601f8201169050808301925050505050505061258c565b73ffffffffffffffffffffffffffffffffffffffff161490509392505050565b60006014600081548092919061191b90614769565b919050555081601560006014548152602001908152602001600020600082015181600001556020820151816001015560408201518160020160006101000a81548173ffffffffffffffffffffffffffffffffffffffff021916908373ffffffffffffffffffffffffffffffffffffffff16021790555060608201518160020160146101000a81548160ff0219169083151502179055509050506119c083601454612606565b6014548373ffffffffffffffffffffffffffffffffffffffff167f31e0fc16c192ee274c14a271688e925909508ac86b24785c6ba7290a2bd91a6084604051611a099190613a04565b60405180910390a3601454905092915050565b60006009600083815260200190815260200160002060009054906101000a900473ffffffffffffffffffffffffffffffffffffffff169050919050565b6000601160009054906101000a900473ffffffffffffffffffffffffffffffffffffffff16905081601160006101000a81548173ffffffffffffffffffffffffffffffffffffffff021916908373ffffffffffffffffffffffffffffffffffffffff1602179055508173ffffffffffffffffffffffffffffffffffffffff168173ffffffffffffffffffffffffffffffffffffffff167f8be0079c531659141344cd1fd0a4f28419497f9722a3daafe3b4186f6b6457e060405160405180910390a35050565b611b27612823565b6001600660006101000a81548160ff0219169083151502179055507f62e78cea01bee320cd4e420270b5ea74000d11b0c9f74754ebdbfc544b05a258611b6b611322565b604051611b78919061334b565b60405180910390a1565b8173ffffffffffffffffffffffffffffffffffffffff168373ffffffffffffffffffffffffffffffffffffffff1603611bf0576040517f08c379a0000000000000000000000000000000000000000000000000000000008152600401611be7906147fd565b60405180910390fd5b80600c60008573ffffffffffffffffffffffffffffffffffffffff1673ffffffffffffffffffffffffffffffffffffffff16815260200190815260200160002060008473ffffffffffffffffffffffffffffffffffffffff1673ffffffffffffffffffffffffffffffffffffffff16815260200190815260200160002060006101000a81548160ff0219169083151502179055508173ffffffffffffffffffffffffffffffffffffffff168373ffffffffffffffffffffffffffffffffffffffff167f17307eab39ab6107e8899845ad3d59bd9653f200f220920489ca2b5937696c3183604051611ce191906131da565b60405180910390a3505050565b611cf9848484611478565b611d058484848461286d565b611d44576040517f08c379a0000000000000000000000000000000000000000000000000000000008152600401611d3b9061488f565b60405180910390fd5b50505050565b60008054906101000a900460ff1615611d98576040517f08c379a0000000000000000000000000000000000000000000000000000000008152600401611d8f90614921565b60405180910390fd5b60008280519060200120905060008280519060200120905060007f8b73c3c69bb8fe3d512ecc4cf759cc79239f7b179b0ffacaa9a75d522b39400f90508260038190555081600481905550611deb6129f4565b600281905550611dfc8184846129fc565b6001819055508060058190555060016000806101000a81548160ff0219169083151502179055505050505050565b60008073ffffffffffffffffffffffffffffffffffffffff16611e4c83611a1c565b73ffffffffffffffffffffffffffffffffffffffff1614159050919050565b606060138054611e7a90613f2d565b80601f0160208091040260200160405190810160405280929190818152602001828054611ea690613f2d565b8015611ef35780601f10611ec857610100808354040283529160200191611ef3565b820191906000526020600020905b815481529060010190602001808311611ed657829003601f168201915b5050505050905090565b606060006001611f0c84612a3d565b01905060008167ffffffffffffffff811115611f2b57611f2a613601565b5b6040519080825280601f01601f191660200182016040528015611f5d5781602001600182028036833780820191505090505b509050600082602001820190505b600115611fc0578080600190039150507f3031323334353637383961626364656600000000000000000000000000000000600a86061a8153600a8581611fb457611fb3614941565b5b04945060008503611f6b575b819350505050919050565b60007f80ac58cd000000000000000000000000000000000000000000000000000000007bffffffffffffffffffffffffffffffffffffffffffffffffffffffff1916827bffffffffffffffffffffffffffffffffffffffffffffffffffffffff1916148061209657507f5b5e139f000000000000000000000000000000000000000000000000000000007bffffffffffffffffffffffffffffffffffffffffffffffffffffffff1916827bffffffffffffffffffffffffffffffffffffffffffffffffffffffff1916145b806120a657506120a582612b90565b5b9050919050565b8273ffffffffffffffffffffffffffffffffffffffff166120cd82610b64565b73ffffffffffffffffffffffffffffffffffffffff1614612123576040517f08c379a000000000000000000000000000000000000000000000000000000000815260040161211a906149e2565b60405180910390fd5b600073ffffffffffffffffffffffffffffffffffffffff168273ffffffffffffffffffffffffffffffffffffffff1603612192576040517f08c379a000000000000000000000000000000000000000000000000000000000815260040161218990614a74565b60405180910390fd5b61219f83838360016123ef565b8273ffffffffffffffffffffffffffffffffffffffff166121bf82610b64565b73ffffffffffffffffffffffffffffffffffffffff1614612215576040517f08c379a000000000000000000000000000000000000000000000000000000000815260040161220c906149e2565b60405180910390fd5b600b600082815260200190815260200160002060006101000a81549073ffffffffffffffffffffffffffffffffffffffff02191690556001600a60008573ffffffffffffffffffffffffffffffffffffffff1673ffffffffffffffffffffffffffffffffffffffff168152602001908152602001600020600082825403925050819055506001600a60008473ffffffffffffffffffffffffffffffffffffffff1673ffffffffffffffffffffffffffffffffffffffff16815260200190815260200160002060008282540192505081905550816009600083815260200190815260200160002060006101000a81548173ffffffffffffffffffffffffffffffffffffffff021916908373ffffffffffffffffffffffffffffffffffffffff160217905550808273ffffffffffffffffffffffffffffffffffffffff168473ffffffffffffffffffffffffffffffffffffffff167fddf252ad1be2c89b69c2b068fc378daa952ba7f163c4a11628f55a4df523b3ef60405160405180910390a46123a1838383600161254d565b505050565b6123ae610b4d565b6123ed576040517f08c379a00000000000000000000000000000000000000000000000000000000081526004016123e490614ae0565b60405180910390fd5b565b6123fb84848484612bfa565b600181111561243f576040517f08c379a000000000000000000000000000000000000000000000000000000000815260040161243690614b72565b60405180910390fd5b6000829050600073ffffffffffffffffffffffffffffffffffffffff168573ffffffffffffffffffffffffffffffffffffffff16036124865761248181612c00565b6124c5565b8373ffffffffffffffffffffffffffffffffffffffff168573ffffffffffffffffffffffffffffffffffffffff16146124c4576124c38582612c49565b5b5b600073ffffffffffffffffffffffffffffffffffffffff168473ffffffffffffffffffffffffffffffffffffffff16036125075761250281612db6565b612546565b8473ffffffffffffffffffffffffffffffffffffffff168473ffffffffffffffffffffffffffffffffffffffff1614612545576125448482612e87565b5b5b5050505050565b50505050565b600061255d612f06565b8260405160200161256f929190614bff565b604051602081830303815290604052805190602001209050919050565b600060418251146125d2576040517f08c379a00000000000000000000000000000000000000000000000000000000081526004016125c990614c82565b60405180910390fd5b60008060006020850151925060408501519150606085015160001a90506125fb86828585612f39565b935050505092915050565b600073ffffffffffffffffffffffffffffffffffffffff168273ffffffffffffffffffffffffffffffffffffffff1603612675576040517f08c379a000000000000000000000000000000000000000000000000000000000815260040161266c90614cee565b60405180910390fd5b61267e81611e2a565b156126be576040517f08c379a00000000000000000000000000000000000000000000000000000000081526004016126b590614d5a565b60405180910390fd5b6126cc6000838360016123ef565b6126d581611e2a565b15612715576040517f08c379a000000000000000000000000000000000000000000000000000000000815260040161270c90614d5a565b60405180910390fd5b6001600a60008473ffffffffffffffffffffffffffffffffffffffff1673ffffffffffffffffffffffffffffffffffffffff16815260200190815260200160002060008282540192505081905550816009600083815260200190815260200160002060006101000a81548173ffffffffffffffffffffffffffffffffffffffff021916908373ffffffffffffffffffffffffffffffffffffffff160217905550808273ffffffffffffffffffffffffffffffffffffffff16600073ffffffffffffffffffffffffffffffffffffffff167fddf252ad1be2c89b69c2b068fc378daa952ba7f163c4a11628f55a4df523b3ef60405160405180910390a461281f60008383600161254d565b5050565b61282b610b4d565b1561286b576040517f08c379a000000000000000000000000000000000000000000000000000000000815260040161286290614dc6565b60405180910390fd5b565b600061288e8473ffffffffffffffffffffffffffffffffffffffff166130c3565b156129e7578373ffffffffffffffffffffffffffffffffffffffff1663150b7a026128b7611322565b8786866040518563ffffffff1660e01b81526004016128d99493929190614e3b565b6020604051808303816000875af192505050801561291557506040513d601f19601f820116820180604052508101906129129190614e9c565b60015b612997573d8060008114612945576040519150601f19603f3d011682016040523d82523d6000602084013e61294a565b606091505b50600081510361298f576040517f08c379a00000000000000000000000000000000000000000000000000000000081526004016129869061488f565b60405180910390fd5b805181602001fd5b63150b7a0260e01b7bffffffffffffffffffffffffffffffffffffffffffffffffffffffff1916817bffffffffffffffffffffffffffffffffffffffffffffffffffffffff1916149150506129ec565b600190505b949350505050565b600046905090565b6000838383612a096129f4565b30604051602001612a1e959493929190614ec9565b6040516020818303038152906040528051906020012090509392505050565b600080600090507a184f03e93ff9f4daa797ed6e38ed64bf6a1f0100000000000000008310612a9b577a184f03e93ff9f4daa797ed6e38ed64bf6a1f0100000000000000008381612a9157612a90614941565b5b0492506040810190505b6d04ee2d6d415b85acef81000000008310612ad8576d04ee2d6d415b85acef81000000008381612ace57612acd614941565b5b0492506020810190505b662386f26fc100008310612b0757662386f26fc100008381612afd57612afc614941565b5b0492506010810190505b6305f5e1008310612b30576305f5e1008381612b2657612b25614941565b5b0492506008810190505b6127108310612b55576127108381612b4b57612b4a614941565b5b0492506004810190505b60648310612b785760648381612b6e57612b6d614941565b5b0492506002810190505b600a8310612b87576001810190505b80915050919050565b60007f01ffc9a7000000000000000000000000000000000000000000000000000000007bffffffffffffffffffffffffffffffffffffffffffffffffffffffff1916827bffffffffffffffffffffffffffffffffffffffffffffffffffffffff1916149050919050565b50505050565b600f805490506010600083815260200190815260200160002081905550600f81908060018154018082558091505060019003906000526020600020016000909190919091505550565b60006001612c5684610bea565b612c609190614f1c565b90506000600e6000848152602001908152602001600020549050818114612d45576000600d60008673ffffffffffffffffffffffffffffffffffffffff1673ffffffffffffffffffffffffffffffffffffffff168152602001908152602001600020600084815260200190815260200160002054905080600d60008773ffffffffffffffffffffffffffffffffffffffff1673ffffffffffffffffffffffffffffffffffffffff16815260200190815260200160002060008481526020019081526020016000208190555081600e600083815260200190815260200160002081905550505b600e600084815260200190815260200160002060009055600d60008573ffffffffffffffffffffffffffffffffffffffff1673ffffffffffffffffffffffffffffffffffffffff16815260200190815260200160002060008381526020019081526020016000206000905550505050565b60006001600f80549050612dca9190614f1c565b90506000601060008481526020019081526020016000205490506000600f8381548110612dfa57612df9613cf9565b5b9060005260206000200154905080600f8381548110612e1c57612e1b613cf9565b5b90600052602060002001819055508160106000838152602001908152602001600020819055506010600085815260200190815260200160002060009055600f805480612e6b57612e6a614f50565b5b6001900381819060005260206000200160009055905550505050565b6000612e9283610bea565b905081600d60008573ffffffffffffffffffffffffffffffffffffffff1673ffffffffffffffffffffffffffffffffffffffff16815260200190815260200160002060008381526020019081526020016000208190555080600e600084815260200190815260200160002081905550505050565b6000600254612f136129f4565b03612f22576001549050612f36565b612f336005546003546004546129fc565b90505b90565b60007f7fffffffffffffffffffffffffffffff5d576e7357a4501ddfe92f46681b20a08260001c1115612fa1576040517f08c379a0000000000000000000000000000000000000000000000000000000008152600401612f9890614ff1565b60405180910390fd5b601b8460ff161480612fb65750601c8460ff16145b612ff5576040517f08c379a0000000000000000000000000000000000000000000000000000000008152600401612fec90615083565b60405180910390fd5b60006001868686866040516000815260200160405260405161301a94939291906150bf565b6020604051602081039080840390855afa15801561303c573d6000803e3d6000fd5b505050602060405103519050600073ffffffffffffffffffffffffffffffffffffffff168173ffffffffffffffffffffffffffffffffffffffff16036130b7576040517f08c379a00000000000000000000000000000000000000000000000000000000081526004016130ae90615150565b60405180910390fd5b80915050949350505050565b6000808273ffffffffffffffffffffffffffffffffffffffff163b119050919050565b60405180608001604052806000815260200160008152602001600073ffffffffffffffffffffffffffffffffffffffff1681526020016000151581525090565b6000604051905090565b600080fd5b600080fd5b60007fffffffff0000000000000000000000000000000000000000000000000000000082169050919050565b61316f8161313a565b811461317a57600080fd5b50565b60008135905061318c81613166565b92915050565b6000602082840312156131a8576131a7613130565b5b60006131b68482850161317d565b91505092915050565b60008115159050919050565b6131d4816131bf565b82525050565b60006020820190506131ef60008301846131cb565b92915050565b600081519050919050565b600082825260208201905092915050565b60005b8381101561322f578082015181840152602081019050613214565b60008484015250505050565b6000601f19601f8301169050919050565b6000613257826131f5565b6132618185613200565b9350613271818560208601613211565b61327a8161323b565b840191505092915050565b6000602082019050818103600083015261329f818461324c565b905092915050565b6000819050919050565b6132ba816132a7565b81146132c557600080fd5b50565b6000813590506132d7816132b1565b92915050565b6000602082840312156132f3576132f2613130565b5b6000613301848285016132c8565b91505092915050565b600073ffffffffffffffffffffffffffffffffffffffff82169050919050565b60006133358261330a565b9050919050565b6133458161332a565b82525050565b6000602082019050613360600083018461333c565b92915050565b61336f8161332a565b811461337a57600080fd5b50565b60008135905061338c81613366565b92915050565b600080604083850312156133a9576133a8613130565b5b60006133b78582860161337d565b92505060206133c8858286016132c8565b9150509250929050565b6133db816132a7565b82525050565b60006020820190506133f660008301846133d2565b92915050565b60008060006060848603121561341557613414613130565b5b60006134238682870161337d565b93505060206134348682870161337d565b9250506040613445868287016132c8565b9150509250925092565b613458816131bf565b811461346357600080fd5b50565b6000813590506134758161344f565b92915050565b600080fd5b600080fd5b600080fd5b60008083601f8401126134a05761349f61347b565b5b8235905067ffffffffffffffff8111156134bd576134bc613480565b5b6020830191508360018202830111156134d9576134d8613485565b5b9250929050565b600080600080600080600060c0888a0312156134ff576134fe613130565b5b600061350d8a828b016132c8565b975050602061351e8a828b016132c8565b965050604061352f8a828b016132c8565b95505060606135408a828b0161337d565b94505060806135518a828b01613466565b93505060a088013567ffffffffffffffff81111561357257613571613135565b5b61357e8a828b0161348a565b925092505092959891949750929550565b6000602082840312156135a5576135a4613130565b5b60006135b38482850161337d565b91505092915050565b600080604083850312156135d3576135d2613130565b5b60006135e18582860161337d565b92505060206135f285828601613466565b9150509250929050565b600080fd5b7f4e487b7100000000000000000000000000000000000000000000000000000000600052604160045260246000fd5b6136398261323b565b810181811067ffffffffffffffff8211171561365857613657613601565b5b80604052505050565b600061366b613126565b90506136778282613630565b919050565b600067ffffffffffffffff82111561369757613696613601565b5b6136a08261323b565b9050602081019050919050565b82818337600083830152505050565b60006136cf6136ca8461367c565b613661565b9050828152602081018484840111156136eb576136ea6135fc565b5b6136f68482856136ad565b509392505050565b600082601f8301126137135761371261347b565b5b81356137238482602086016136bc565b91505092915050565b6000806000806080858703121561374657613745613130565b5b60006137548782880161337d565b94505060206137658782880161337d565b9350506040613776878288016132c8565b925050606085013567ffffffffffffffff81111561379757613796613135565b5b6137a3878288016136fe565b91505092959194509250565b600067ffffffffffffffff8211156137ca576137c9613601565b5b6137d38261323b565b9050602081019050919050565b60006137f36137ee846137af565b613661565b90508281526020810184848401111561380f5761380e6135fc565b5b61381a8482856136ad565b509392505050565b600082601f8301126138375761383661347b565b5b81356138478482602086016137e0565b91505092915050565b60006020828403121561386657613865613130565b5b600082013567ffffffffffffffff81111561388457613883613135565b5b61389084828501613822565b91505092915050565b600080fd5b6000608082840312156138b4576138b3613899565b5b81905092915050565b60008060a083850312156138d4576138d3613130565b5b60006138e28582860161337d565b92505060206138f38582860161389e565b9150509250929050565b600060808201905061391260008301876133d2565b61391f60208301866133d2565b61392c604083018561333c565b61393960608301846131cb565b95945050505050565b6000806040838503121561395957613958613130565b5b60006139678582860161337d565b92505060206139788582860161337d565b9150509250929050565b61398b816132a7565b82525050565b61399a8161332a565b82525050565b6139a9816131bf565b82525050565b6080820160008201516139c56000850182613982565b5060208201516139d86020850182613982565b5060408201516139eb6040850182613991565b5060608201516139fe60608501826139a0565b50505050565b6000608082019050613a1960008301846139af565b92915050565b7f4552433732313a20617070726f76616c20746f2063757272656e74206f776e6560008201527f7200000000000000000000000000000000000000000000000000000000000000602082015250565b6000613a7b602183613200565b9150613a8682613a1f565b604082019050919050565b60006020820190508181036000830152613aaa81613a6e565b9050919050565b7f4552433732313a20617070726f76652063616c6c6572206973206e6f7420746f60008201527f6b656e206f776e6572206f7220617070726f76656420666f7220616c6c000000602082015250565b6000613b0d603d83613200565b9150613b1882613ab1565b604082019050919050565b60006020820190508181036000830152613b3c81613b00565b9050919050565b7f4552433732313a2063616c6c6572206973206e6f7420746f6b656e206f776e6560008201527f72206f7220617070726f76656400000000000000000000000000000000000000602082015250565b6000613b9f602d83613200565b9150613baa82613b43565b604082019050919050565b60006020820190508181036000830152613bce81613b92565b9050919050565b7f455243373231456e756d657261626c653a206f776e657220696e646578206f7560008201527f74206f6620626f756e6473000000000000000000000000000000000000000000602082015250565b6000613c31602b83613200565b9150613c3c82613bd5565b604082019050919050565b60006020820190508181036000830152613c6081613c24565b9050919050565b7f455243373231456e756d657261626c653a20676c6f62616c20696e646578206f60008201527f7574206f6620626f756e64730000000000000000000000000000000000000000602082015250565b6000613cc3602c83613200565b9150613cce82613c67565b604082019050919050565b60006020820190508181036000830152613cf281613cb6565b9050919050565b7f4e487b7100000000000000000000000000000000000000000000000000000000600052603260045260246000fd5b7f416c726561647920436c61696d65642100000000000000000000000000000000600082015250565b6000613d5e601083613200565b9150613d6982613d28565b602082019050919050565b60006020820190508181036000830152613d8d81613d51565b9050919050565b7f496e76616c6964207369676e6174757265210000000000000000000000000000600082015250565b6000613dca601283613200565b9150613dd582613d94565b602082019050919050565b60006020820190508181036000830152613df981613dbd565b9050919050565b7f4552433732313a20696e76616c696420746f6b656e2049440000000000000000600082015250565b6000613e36601883613200565b9150613e4182613e00565b602082019050919050565b60006020820190508181036000830152613e6581613e29565b9050919050565b7f4552433732313a2061646472657373207a65726f206973206e6f74206120766160008201527f6c6964206f776e65720000000000000000000000000000000000000000000000602082015250565b6000613ec8602983613200565b9150613ed382613e6c565b604082019050919050565b60006020820190508181036000830152613ef781613ebb565b9050919050565b7f4e487b7100000000000000000000000000000000000000000000000000000000600052602260045260246000fd5b60006002820490506001821680613f4557607f821691505b602082108103613f5857613f57613efe565b5b50919050565b60008190508160005260206000209050919050565b60006020601f8301049050919050565b600082821b905092915050565b600060088302613fc07fffffffffffffffffffffffffffffffffffffffffffffffffffffffffffffffff82613f83565b613fca8683613f83565b95508019841693508086168417925050509392505050565b6000819050919050565b6000614007614002613ffd846132a7565b613fe2565b6132a7565b9050919050565b6000819050919050565b61402183613fec565b61403561402d8261400e565b848454613f90565b825550505050565b600090565b61404a61403d565b614055818484614018565b505050565b5b818110156140795761406e600082614042565b60018101905061405b565b5050565b601f8211156140be5761408f81613f5e565b61409884613f73565b810160208510156140a7578190505b6140bb6140b385613f73565b83018261405a565b50505b505050565b600082821c905092915050565b60006140e1600019846008026140c3565b1980831691505092915050565b60006140fa83836140d0565b9150826002028217905092915050565b614113826131f5565b67ffffffffffffffff81111561412c5761412b613601565b5b6141368254613f2d565b61414182828561407d565b600060209050601f8311600181146141745760008415614162578287015190505b61416c85826140ee565b8655506141d4565b601f19841661418286613f5e565b60005b828110156141aa57848901518255600182019150602085019450602081019050614185565b868310156141c757848901516141c3601f8916826140d0565b8355505b6001600288020188555050505b505050505050565b600081905092915050565b600081546141f481613f2d565b6141fe81866141dc565b94506001821660008114614219576001811461422e57614261565b60ff1983168652811515820286019350614261565b61423785613f5e565b60005b838110156142595781548189015260018201915060208101905061423a565b838801955050505b50505092915050565b600061427682846141e7565b915081905092915050565b7f696e697469616c697a653a20416c726561647920696e697469616c697a656421600082015250565b60006142b7602083613200565b91506142c282614281565b602082019050919050565b600060208201905081810360008301526142e6816142aa565b9050919050565b7f547269706c65634d6564616c3a2055524920717565727920666f72206e6f6e6560008201527f78697374656e7420746f6b656e00000000000000000000000000000000000000602082015250565b6000614349602d83613200565b9150614354826142ed565b604082019050919050565b600060208201905081810360008301526143788161433c565b9050919050565b600061438a826131f5565b61439481856141dc565b93506143a4818560208601613211565b80840191505092915050565b60006143bc828561437f565b91506143c8828461437f565b91508190509392505050565b600080fd5b6000608082840312156143ef576143ee6143d4565b5b6143f96080613661565b90506000614409848285016132c8565b600083015250602061441d848285016132c8565b60208301525060406144318482850161337d565b604083015250606061444584828501613466565b60608301525092915050565b60006080828403121561446757614466613130565b5b6000614475848285016143d9565b91505092915050565b7f4f776e61626c653a206e6577206f776e657220697320746865207a65726f206160008201527f6464726573730000000000000000000000000000000000000000000000000000602082015250565b60006144da602683613200565b91506144e58261447e565b604082019050919050565b60006020820190508181036000830152614509816144cd565b9050919050565b7f547269706c65634d6564616c3a206e6f6e6578697374656e7420746f6b656e00600082015250565b6000614546601f83613200565b915061455182614510565b602082019050919050565b6000602082019050818103600083015261457581614539565b9050919050565b7f7061757365207472616e73666572000000000000000000000000000000000000600082015250565b60006145b2600e83613200565b91506145bd8261457c565b602082019050919050565b600060208201905081810360008301526145e1816145a5565b9050919050565b7f6f6e6c7920666f72206f776e6572000000000000000000000000000000000000600082015250565b600061461e600e83613200565b9150614629826145e8565b602082019050919050565b6000602082019050818103600083015261464d81614611565b9050919050565b7f4f776e61626c653a2063616c6c6572206973206e6f7420746865206f776e6572600082015250565b600061468a602083613200565b915061469582614654565b602082019050919050565b600060208201905081810360008301526146b98161467d565b9050919050565b6000819050919050565b6146d3816146c0565b82525050565b600060c0820190506146ee60008301896146ca565b6146fb60208301886133d2565b61470860408301876133d2565b61471560608301866133d2565b614722608083018561333c565b61472f60a08301846131cb565b979650505050505050565b7f4e487b7100000000000000000000000000000000000000000000000000000000600052601160045260246000fd5b6000614774826132a7565b91507fffffffffffffffffffffffffffffffffffffffffffffffffffffffffffffffff82036147a6576147a561473a565b5b600182019050919050565b7f4552433732313a20617070726f766520746f2063616c6c657200000000000000600082015250565b60006147e7601983613200565b91506147f2826147b1565b602082019050919050565b60006020820190508181036000830152614816816147da565b9050919050565b7f4552433732313a207472616e7366657220746f206e6f6e20455243373231526560008201527f63656976657220696d706c656d656e7465720000000000000000000000000000602082015250565b6000614879603283613200565b91506148848261481d565b604082019050919050565b600060208201905081810360008301526148a88161486c565b9050919050565b7f656970496e697469616c697a65643a20416c726561647920696e697469616c6960008201527f7a65642100000000000000000000000000000000000000000000000000000000602082015250565b600061490b602483613200565b9150614916826148af565b604082019050919050565b6000602082019050818103600083015261493a816148fe565b9050919050565b7f4e487b7100000000000000000000000000000000000000000000000000000000600052601260045260246000fd5b7f4552433732313a207472616e736665722066726f6d20696e636f72726563742060008201527f6f776e6572000000000000000000000000000000000000000000000000000000602082015250565b60006149cc602583613200565b91506149d782614970565b604082019050919050565b600060208201905081810360008301526149fb816149bf565b9050919050565b7f4552433732313a207472616e7366657220746f20746865207a65726f2061646460008201527f7265737300000000000000000000000000000000000000000000000000000000602082015250565b6000614a5e602483613200565b9150614a6982614a02565b604082019050919050565b60006020820190508181036000830152614a8d81614a51565b9050919050565b7f5061757361626c653a206e6f7420706175736564000000000000000000000000600082015250565b6000614aca601483613200565b9150614ad582614a94565b602082019050919050565b60006020820190508181036000830152614af981614abd565b9050919050565b7f455243373231456e756d657261626c653a20636f6e736563757469766520747260008201527f616e7366657273206e6f7420737570706f727465640000000000000000000000602082015250565b6000614b5c603583613200565b9150614b6782614b00565b604082019050919050565b60006020820190508181036000830152614b8b81614b4f565b9050919050565b7f1901000000000000000000000000000000000000000000000000000000000000600082015250565b6000614bc86002836141dc565b9150614bd382614b92565b600282019050919050565b6000819050919050565b614bf9614bf4826146c0565b614bde565b82525050565b6000614c0a82614bbb565b9150614c168285614be8565b602082019150614c268284614be8565b6020820191508190509392505050565b7f45434453413a20696e76616c6964207369676e6174757265206c656e67746800600082015250565b6000614c6c601f83613200565b9150614c7782614c36565b602082019050919050565b60006020820190508181036000830152614c9b81614c5f565b9050919050565b7f4552433732313a206d696e7420746f20746865207a65726f2061646472657373600082015250565b6000614cd8602083613200565b9150614ce382614ca2565b602082019050919050565b60006020820190508181036000830152614d0781614ccb565b9050919050565b7f4552433732313a20746f6b656e20616c7265616479206d696e74656400000000600082015250565b6000614d44601c83613200565b9150614d4f82614d0e565b602082019050919050565b60006020820190508181036000830152614d7381614d37565b9050919050565b7f5061757361626c653a2070617573656400000000000000000000000000000000600082015250565b6000614db0601083613200565b9150614dbb82614d7a565b602082019050919050565b60006020820190508181036000830152614ddf81614da3565b9050919050565b600081519050919050565b600082825260208201905092915050565b6000614e0d82614de6565b614e178185614df1565b9350614e27818560208601613211565b614e308161323b565b840191505092915050565b6000608082019050614e50600083018761333c565b614e5d602083018661333c565b614e6a60408301856133d2565b8181036060830152614e7c8184614e02565b905095945050505050565b600081519050614e9681613166565b92915050565b600060208284031215614eb257614eb1613130565b5b6000614ec084828501614e87565b91505092915050565b600060a082019050614ede60008301886146ca565b614eeb60208301876146ca565b614ef860408301866146ca565b614f0560608301856133d2565b614f12608083018461333c565b9695505050505050565b6000614f27826132a7565b9150614f32836132a7565b9250828203905081811115614f4a57614f4961473a565b5b92915050565b7f4e487b7100000000000000000000000000000000000000000000000000000000600052603160045260246000fd5b7f45434453413a20696e76616c6964207369676e6174757265202773272076616c60008201527f7565000000000000000000000000000000000000000000000000000000000000602082015250565b6000614fdb602283613200565b9150614fe682614f7f565b604082019050919050565b6000602082019050818103600083015261500a81614fce565b9050919050565b7f45434453413a20696e76616c6964207369676e6174757265202776272076616c60008201527f7565000000000000000000000000000000000000000000000000000000000000602082015250565b600061506d602283613200565b915061507882615011565b604082019050919050565b6000602082019050818103600083015261509c81615060565b9050919050565b600060ff82169050919050565b6150b9816150a3565b82525050565b60006080820190506150d460008301876146ca565b6150e160208301866150b0565b6150ee60408301856146ca565b6150fb60608301846146ca565b95945050505050565b7f45434453413a20696e76616c6964207369676e61747572650000000000000000600082015250565b600061513a601883613200565b915061514582615104565b602082019050919050565b600060208201905081810360008301526151698161512d565b905091905056fea2646970667358221220cb878f93bfed8ce3de89e26cccebfa5821fbbf5db1accd333a57146fed4d03f764736f6c63430008120033",
			"opcodes": "PUSH1 0x80 PUSH1 0x40 MSTORE CALLVALUE DUP1 ISZERO PUSH3 0x11 JUMPI PUSH1 0x0 DUP1 REVERT JUMPDEST POP PUSH1 0x40 MLOAD PUSH3 0x5870 CODESIZE SUB DUP1 PUSH3 0x5870 DUP4 CODECOPY DUP2 DUP2 ADD PUSH1 0x40 MSTORE DUP2 ADD SWAP1 PUSH3 0x37 SWAP2 SWAP1 PUSH3 0x303 JUMP JUMPDEST DUP2 DUP2 PUSH1 0x0 PUSH1 0x6 PUSH1 0x0 PUSH2 0x100 EXP DUP2 SLOAD DUP2 PUSH1 0xFF MUL NOT AND SWAP1 DUP4 ISZERO ISZERO MUL OR SWAP1 SSTORE POP DUP2 PUSH1 0x7 SWAP1 DUP2 PUSH3 0x65 SWAP2 SWAP1 PUSH3 0x5D3 JUMP JUMPDEST POP DUP1 PUSH1 0x8 SWAP1 DUP2 PUSH3 0x77 SWAP2 SWAP1 PUSH3 0x5D3 JUMP JUMPDEST POP POP POP PUSH3 0x9A PUSH3 0x8E PUSH3 0xA2 PUSH1 0x20 SHL PUSH1 0x20 SHR JUMP JUMPDEST PUSH3 0xAA PUSH1 0x20 SHL PUSH1 0x20 SHR JUMP JUMPDEST POP POP PUSH3 0x6BA JUMP JUMPDEST PUSH1 0x0 CALLER SWAP1 POP SWAP1 JUMP JUMPDEST PUSH1 0x0 PUSH1 0x11 PUSH1 0x0 SWAP1 SLOAD SWAP1 PUSH2 0x100 EXP SWAP1 DIV PUSH20 0xFFFFFFFFFFFFFFFFFFFFFFFFFFFFFFFFFFFFFFFF AND SWAP1 POP DUP2 PUSH1 0x11 PUSH1 0x0 PUSH2 0x100 EXP DUP2 SLOAD DUP2 PUSH20 0xFFFFFFFFFFFFFFFFFFFFFFFFFFFFFFFFFFFFFFFF MUL NOT AND SWAP1 DUP4 PUSH20 0xFFFFFFFFFFFFFFFFFFFFFFFFFFFFFFFFFFFFFFFF AND MUL OR SWAP1 SSTORE POP DUP2 PUSH20 0xFFFFFFFFFFFFFFFFFFFFFFFFFFFFFFFFFFFFFFFF AND DUP2 PUSH20 0xFFFFFFFFFFFFFFFFFFFFFFFFFFFFFFFFFFFFFFFF AND PUSH32 0x8BE0079C531659141344CD1FD0A4F28419497F9722A3DAAFE3B4186F6B6457E0 PUSH1 0x40 MLOAD PUSH1 0x40 MLOAD DUP1 SWAP2 SUB SWAP1 LOG3 POP POP JUMP JUMPDEST PUSH1 0x0 PUSH1 0x40 MLOAD SWAP1 POP SWAP1 JUMP JUMPDEST PUSH1 0x0 DUP1 REVERT JUMPDEST PUSH1 0x0 DUP1 REVERT JUMPDEST PUSH1 0x0 DUP1 REVERT JUMPDEST PUSH1 0x0 DUP1 REVERT JUMPDEST PUSH1 0x0 PUSH1 0x1F NOT PUSH1 0x1F DUP4 ADD AND SWAP1 POP SWAP2 SWAP1 POP JUMP JUMPDEST PUSH32 0x4E487B7100000000000000000000000000000000000000000000000000000000 PUSH1 0x0 MSTORE PUSH1 0x41 PUSH1 0x4 MSTORE PUSH1 0x24 PUSH1 0x0 REVERT JUMPDEST PUSH3 0x1D9 DUP3 PUSH3 0x18E JUMP JUMPDEST DUP2 ADD DUP2 DUP2 LT PUSH8 0xFFFFFFFFFFFFFFFF DUP3 GT OR ISZERO PUSH3 0x1FB JUMPI PUSH3 0x1FA PUSH3 0x19F JUMP JUMPDEST JUMPDEST DUP1 PUSH1 0x40 MSTORE POP POP POP JUMP JUMPDEST PUSH1 0x0 PUSH3 0x210 PUSH3 0x170 JUMP JUMPDEST SWAP1 POP PUSH3 0x21E DUP3 DUP3 PUSH3 0x1CE JUMP JUMPDEST SWAP2 SWAP1 POP JUMP JUMPDEST PUSH1 0x0 PUSH8 0xFFFFFFFFFFFFFFFF DUP3 GT ISZERO PUSH3 0x241 JUMPI PUSH3 0x240 PUSH3 0x19F JUMP JUMPDEST JUMPDEST PUSH3 0x24C DUP3 PUSH3 0x18E JUMP JUMPDEST SWAP1 POP PUSH1 0x20 DUP2 ADD SWAP1 POP SWAP2 SWAP1 POP JUMP JUMPDEST PUSH1 0x0 JUMPDEST DUP4 DUP2 LT ISZERO PUSH3 0x279 JUMPI DUP1 DUP3 ADD MLOAD DUP2 DUP5 ADD MSTORE PUSH1 0x20 DUP2 ADD SWAP1 POP PUSH3 0x25C JUMP JUMPDEST PUSH1 0x0 DUP5 DUP5 ADD MSTORE POP POP POP POP JUMP JUMPDEST PUSH1 0x0 PUSH3 0x29C PUSH3 0x296 DUP5 PUSH3 0x223 JUMP JUMPDEST PUSH3 0x204 JUMP JUMPDEST SWAP1 POP DUP3 DUP2 MSTORE PUSH1 0x20 DUP2 ADD DUP5 DUP5 DUP5 ADD GT ISZERO PUSH3 0x2BB JUMPI PUSH3 0x2BA PUSH3 0x189 JUMP JUMPDEST JUMPDEST PUSH3 0x2C8 DUP5 DUP3 DUP6 PUSH3 0x259 JUMP JUMPDEST POP SWAP4 SWAP3 POP POP POP JUMP JUMPDEST PUSH1 0x0 DUP3 PUSH1 0x1F DUP4 ADD SLT PUSH3 0x2E8 JUMPI PUSH3 0x2E7 PUSH3 0x184 JUMP JUMPDEST JUMPDEST DUP2 MLOAD PUSH3 0x2FA DUP5 DUP3 PUSH1 0x20 DUP7 ADD PUSH3 0x285 JUMP JUMPDEST SWAP2 POP POP SWAP3 SWAP2 POP POP JUMP JUMPDEST PUSH1 0x0 DUP1 PUSH1 0x40 DUP4 DUP6 SUB SLT ISZERO PUSH3 0x31D JUMPI PUSH3 0x31C PUSH3 0x17A JUMP JUMPDEST JUMPDEST PUSH1 0x0 DUP4 ADD MLOAD PUSH8 0xFFFFFFFFFFFFFFFF DUP2 GT ISZERO PUSH3 0x33E JUMPI PUSH3 0x33D PUSH3 0x17F JUMP JUMPDEST JUMPDEST PUSH3 0x34C DUP6 DUP3 DUP7 ADD PUSH3 0x2D0 JUMP JUMPDEST SWAP3 POP POP PUSH1 0x20 DUP4 ADD MLOAD PUSH8 0xFFFFFFFFFFFFFFFF DUP2 GT ISZERO PUSH3 0x370 JUMPI PUSH3 0x36F PUSH3 0x17F JUMP JUMPDEST JUMPDEST PUSH3 0x37E DUP6 DUP3 DUP7 ADD PUSH3 0x2D0 JUMP JUMPDEST SWAP2 POP POP SWAP3 POP SWAP3 SWAP1 POP JUMP JUMPDEST PUSH1 0x0 DUP2 MLOAD SWAP1 POP SWAP2 SWAP1 POP JUMP JUMPDEST PUSH32 0x4E487B7100000000000000000000000000000000000000000000000000000000 PUSH1 0x0 MSTORE PUSH1 0x22 PUSH1 0x4 MSTORE PUSH1 0x24 PUSH1 0x0 REVERT JUMPDEST PUSH1 0x0 PUSH1 0x2 DUP3 DIV SWAP1 POP PUSH1 0x1 DUP3 AND DUP1 PUSH3 0x3DB JUMPI PUSH1 0x7F DUP3 AND SWAP2 POP JUMPDEST PUSH1 0x20 DUP3 LT DUP2 SUB PUSH3 0x3F1 JUMPI PUSH3 0x3F0 PUSH3 0x393 JUMP JUMPDEST JUMPDEST POP SWAP2 SWAP1 POP JUMP JUMPDEST PUSH1 0x0 DUP2 SWAP1 POP DUP2 PUSH1 0x0 MSTORE PUSH1 0x20 PUSH1 0x0 KECCAK256 SWAP1 POP SWAP2 SWAP1 POP JUMP JUMPDEST PUSH1 0x0 PUSH1 0x20 PUSH1 0x1F DUP4 ADD DIV SWAP1 POP SWAP2 SWAP1 POP JUMP JUMPDEST PUSH1 0x0 DUP3 DUP3 SHL SWAP1 POP SWAP3 SWAP2 POP POP JUMP JUMPDEST PUSH1 0x0 PUSH1 0x8 DUP4 MUL PUSH3 0x45B PUSH32 0xFFFFFFFFFFFFFFFFFFFFFFFFFFFFFFFFFFFFFFFFFFFFFFFFFFFFFFFFFFFFFFFF DUP3 PUSH3 0x41C JUMP JUMPDEST PUSH3 0x467 DUP7 DUP4 PUSH3 0x41C JUMP JUMPDEST SWAP6 POP DUP1 NOT DUP5 AND SWAP4 POP DUP1 DUP7 AND DUP5 OR SWAP3 POP POP POP SWAP4 SWAP3 POP POP POP JUMP JUMPDEST PUSH1 0x0 DUP2 SWAP1 POP SWAP2 SWAP1 POP JUMP JUMPDEST PUSH1 0x0 DUP2 SWAP1 POP SWAP2 SWAP1 POP JUMP JUMPDEST PUSH1 0x0 PUSH3 0x4B4 PUSH3 0x4AE PUSH3 0x4A8 DUP5 PUSH3 0x47F JUMP JUMPDEST PUSH3 0x489 JUMP JUMPDEST PUSH3 0x47F JUMP JUMPDEST SWAP1 POP SWAP2 SWAP1 POP JUMP JUMPDEST PUSH1 0x0 DUP2 SWAP1 POP SWAP2 SWAP1 POP JUMP JUMPDEST PUSH3 0x4D0 DUP4 PUSH3 0x493 JUMP JUMPDEST PUSH3 0x4E8 PUSH3 0x4DF DUP3 PUSH3 0x4BB JUMP JUMPDEST DUP5 DUP5 SLOAD PUSH3 0x429 JUMP JUMPDEST DUP3 SSTORE POP POP POP POP JUMP JUMPDEST PUSH1 0x0 SWAP1 JUMP JUMPDEST PUSH3 0x4FF PUSH3 0x4F0 JUMP JUMPDEST PUSH3 0x50C DUP2 DUP5 DUP5 PUSH3 0x4C5 JUMP JUMPDEST POP POP POP JUMP JUMPDEST JUMPDEST DUP2 DUP2 LT ISZERO PUSH3 0x534 JUMPI PUSH3 0x528 PUSH1 0x0 DUP3 PUSH3 0x4F5 JUMP JUMPDEST PUSH1 0x1 DUP2 ADD SWAP1 POP PUSH3 0x512 JUMP JUMPDEST POP POP JUMP JUMPDEST PUSH1 0x1F DUP3 GT ISZERO PUSH3 0x583 JUMPI PUSH3 0x54D DUP2 PUSH3 0x3F7 JUMP JUMPDEST PUSH3 0x558 DUP5 PUSH3 0x40C JUMP JUMPDEST DUP2 ADD PUSH1 0x20 DUP6 LT ISZERO PUSH3 0x568 JUMPI DUP2 SWAP1 POP JUMPDEST PUSH3 0x580 PUSH3 0x577 DUP6 PUSH3 0x40C JUMP JUMPDEST DUP4 ADD DUP3 PUSH3 0x511 JUMP JUMPDEST POP POP JUMPDEST POP POP POP JUMP JUMPDEST PUSH1 0x0 DUP3 DUP3 SHR SWAP1 POP SWAP3 SWAP2 POP POP JUMP JUMPDEST PUSH1 0x0 PUSH3 0x5A8 PUSH1 0x0 NOT DUP5 PUSH1 0x8 MUL PUSH3 0x588 JUMP JUMPDEST NOT DUP1 DUP4 AND SWAP2 POP POP SWAP3 SWAP2 POP POP JUMP JUMPDEST PUSH1 0x0 PUSH3 0x5C3 DUP4 DUP4 PUSH3 0x595 JUMP JUMPDEST SWAP2 POP DUP3 PUSH1 0x2 MUL DUP3 OR SWAP1 POP SWAP3 SWAP2 POP POP JUMP JUMPDEST PUSH3 0x5DE DUP3 PUSH3 0x388 JUMP JUMPDEST PUSH8 0xFFFFFFFFFFFFFFFF DUP2 GT ISZERO PUSH3 0x5FA JUMPI PUSH3 0x5F9 PUSH3 0x19F JUMP JUMPDEST JUMPDEST PUSH3 0x606 DUP3 SLOAD PUSH3 0x3C2 JUMP JUMPDEST PUSH3 0x613 DUP3 DUP3 DUP6 PUSH3 0x538 JUMP JUMPDEST PUSH1 0x0 PUSH1 0x20 SWAP1 POP PUSH1 0x1F DUP4 GT PUSH1 0x1 DUP2 EQ PUSH3 0x64B JUMPI PUSH1 0x0 DUP5 ISZERO PUSH3 0x636 JUMPI DUP3 DUP8 ADD MLOAD SWAP1 POP JUMPDEST PUSH3 0x642 DUP6 DUP3 PUSH3 0x5B5 JUMP JUMPDEST DUP7 SSTORE POP PUSH3 0x6B2 JUMP JUMPDEST PUSH1 0x1F NOT DUP5 AND PUSH3 0x65B DUP7 PUSH3 0x3F7 JUMP JUMPDEST PUSH1 0x0 JUMPDEST DUP3 DUP2 LT ISZERO PUSH3 0x685 JUMPI DUP5 DUP10 ADD MLOAD DUP3 SSTORE PUSH1 0x1 DUP3 ADD SWAP2 POP PUSH1 0x20 DUP6 ADD SWAP5 POP PUSH1 0x20 DUP2 ADD SWAP1 POP PUSH3 0x65E JUMP JUMPDEST DUP7 DUP4 LT ISZERO PUSH3 0x6A5 JUMPI DUP5 DUP10 ADD MLOAD PUSH3 0x6A1 PUSH1 0x1F DUP10 AND DUP3 PUSH3 0x595 JUMP JUMPDEST DUP4 SSTORE POP JUMPDEST PUSH1 0x1 PUSH1 0x2 DUP9 MUL ADD DUP9 SSTORE POP POP POP JUMPDEST POP POP POP POP POP POP JUMP JUMPDEST PUSH2 0x51A6 DUP1 PUSH3 0x6CA PUSH1 0x0 CODECOPY PUSH1 0x0 RETURN INVALID PUSH1 0x80 PUSH1 0x40 MSTORE CALLVALUE DUP1 ISZERO PUSH2 0x10 JUMPI PUSH1 0x0 DUP1 REVERT JUMPDEST POP PUSH1 0x4 CALLDATASIZE LT PUSH2 0x1E5 JUMPI PUSH1 0x0 CALLDATALOAD PUSH1 0xE0 SHR DUP1 PUSH4 0x70A08231 GT PUSH2 0x10F JUMPI DUP1 PUSH4 0xC4D66DE8 GT PUSH2 0xA2 JUMPI DUP1 PUSH4 0xE985E9C5 GT PUSH2 0x71 JUMPI DUP1 PUSH4 0xE985E9C5 EQ PUSH2 0x57F JUMPI DUP1 PUSH4 0xF25259F6 EQ PUSH2 0x5AF JUMPI DUP1 PUSH4 0xF2FDE38B EQ PUSH2 0x5CB JUMPI DUP1 PUSH4 0xFDCDCB33 EQ PUSH2 0x5E7 JUMPI PUSH2 0x1E5 JUMP JUMPDEST DUP1 PUSH4 0xC4D66DE8 EQ PUSH2 0x4D0 JUMPI DUP1 PUSH4 0xC87B56DD EQ PUSH2 0x4EC JUMPI DUP1 PUSH4 0xC94C1BD4 EQ PUSH2 0x51C JUMPI DUP1 PUSH4 0xDD3EB9BD EQ PUSH2 0x54C JUMPI PUSH2 0x1E5 JUMP JUMPDEST DUP1 PUSH4 0x95D89B41 GT PUSH2 0xDE JUMPI DUP1 PUSH4 0x95D89B41 EQ PUSH2 0x45E JUMPI DUP1 PUSH4 0xA22CB465 EQ PUSH2 0x47C JUMPI DUP1 PUSH4 0xB88D4FDE EQ PUSH2 0x498 JUMPI DUP1 PUSH4 0xBCEB2A22 EQ PUSH2 0x4B4 JUMPI PUSH2 0x1E5 JUMP JUMPDEST DUP1 PUSH4 0x70A08231 EQ PUSH2 0x3FC JUMPI DUP1 PUSH4 0x715018A6 EQ PUSH2 0x42C JUMPI DUP1 PUSH4 0x8456CB59 EQ PUSH2 0x436 JUMPI DUP1 PUSH4 0x8DA5CB5B EQ PUSH2 0x440 JUMPI PUSH2 0x1E5 JUMP JUMPDEST DUP1 PUSH4 0x2F745C59 GT PUSH2 0x187 JUMPI DUP1 PUSH4 0x4F6CCCE7 GT PUSH2 0x156 JUMPI DUP1 PUSH4 0x4F6CCCE7 EQ PUSH2 0x34E JUMPI DUP1 PUSH4 0x53885F31 EQ PUSH2 0x37E JUMPI DUP1 PUSH4 0x5C975ABB EQ PUSH2 0x3AE JUMPI DUP1 PUSH4 0x6352211E EQ PUSH2 0x3CC JUMPI PUSH2 0x1E5 JUMP JUMPDEST DUP1 PUSH4 0x2F745C59 EQ PUSH2 0x2DC JUMPI DUP1 PUSH4 0x3F4BA83A EQ PUSH2 0x30C JUMPI DUP1 PUSH4 0x42842E0E EQ PUSH2 0x316 JUMPI DUP1 PUSH4 0x42966C68 EQ PUSH2 0x332 JUMPI PUSH2 0x1E5 JUMP JUMPDEST DUP1 PUSH4 0x95EA7B3 GT PUSH2 0x1C3 JUMPI DUP1 PUSH4 0x95EA7B3 EQ PUSH2 0x268 JUMPI DUP1 PUSH4 0x18160DDD EQ PUSH2 0x284 JUMPI DUP1 PUSH4 0x238AC933 EQ PUSH2 0x2A2 JUMPI DUP1 PUSH4 0x23B872DD EQ PUSH2 0x2C0 JUMPI PUSH2 0x1E5 JUMP JUMPDEST DUP1 PUSH4 0x1FFC9A7 EQ PUSH2 0x1EA JUMPI DUP1 PUSH4 0x6FDDE03 EQ PUSH2 0x21A JUMPI DUP1 PUSH4 0x81812FC EQ PUSH2 0x238 JUMPI JUMPDEST PUSH1 0x0 DUP1 REVERT JUMPDEST PUSH2 0x204 PUSH1 0x4 DUP1 CALLDATASIZE SUB DUP2 ADD SWAP1 PUSH2 0x1FF SWAP2 SWAP1 PUSH2 0x3192 JUMP JUMPDEST PUSH2 0x617 JUMP JUMPDEST PUSH1 0x40 MLOAD PUSH2 0x211 SWAP2 SWAP1 PUSH2 0x31DA JUMP JUMPDEST PUSH1 0x40 MLOAD DUP1 SWAP2 SUB SWAP1 RETURN JUMPDEST PUSH2 0x222 PUSH2 0x629 JUMP JUMPDEST PUSH1 0x40 MLOAD PUSH2 0x22F SWAP2 SWAP1 PUSH2 0x3285 JUMP JUMPDEST PUSH1 0x40 MLOAD DUP1 SWAP2 SUB SWAP1 RETURN JUMPDEST PUSH2 0x252 PUSH1 0x4 DUP1 CALLDATASIZE SUB DUP2 ADD SWAP1 PUSH2 0x24D SWAP2 SWAP1 PUSH2 0x32DD JUMP JUMPDEST PUSH2 0x666 JUMP JUMPDEST PUSH1 0x40 MLOAD PUSH2 0x25F SWAP2 SWAP1 PUSH2 0x334B JUMP JUMPDEST PUSH1 0x40 MLOAD DUP1 SWAP2 SUB SWAP1 RETURN JUMPDEST PUSH2 0x282 PUSH1 0x4 DUP1 CALLDATASIZE SUB DUP2 ADD SWAP1 PUSH2 0x27D SWAP2 SWAP1 PUSH2 0x3392 JUMP JUMPDEST PUSH2 0x6AC JUMP JUMPDEST STOP JUMPDEST PUSH2 0x28C PUSH2 0x7C3 JUMP JUMPDEST PUSH1 0x40 MLOAD PUSH2 0x299 SWAP2 SWAP1 PUSH2 0x33E1 JUMP JUMPDEST PUSH1 0x40 MLOAD DUP1 SWAP2 SUB SWAP1 RETURN JUMPDEST PUSH2 0x2AA PUSH2 0x7D0 JUMP JUMPDEST PUSH1 0x40 MLOAD PUSH2 0x2B7 SWAP2 SWAP1 PUSH2 0x334B JUMP JUMPDEST PUSH1 0x40 MLOAD DUP1 SWAP2 SUB SWAP1 RETURN JUMPDEST PUSH2 0x2DA PUSH1 0x4 DUP1 CALLDATASIZE SUB DUP2 ADD SWAP1 PUSH2 0x2D5 SWAP2 SWAP1 PUSH2 0x33FC JUMP JUMPDEST PUSH2 0x7F6 JUMP JUMPDEST STOP JUMPDEST PUSH2 0x2F6 PUSH1 0x4 DUP1 CALLDATASIZE SUB DUP2 ADD SWAP1 PUSH2 0x2F1 SWAP2 SWAP1 PUSH2 0x3392 JUMP JUMPDEST PUSH2 0x856 JUMP JUMPDEST PUSH1 0x40 MLOAD PUSH2 0x303 SWAP2 SWAP1 PUSH2 0x33E1 JUMP JUMPDEST PUSH1 0x40 MLOAD DUP1 SWAP2 SUB SWAP1 RETURN JUMPDEST PUSH2 0x314 PUSH2 0x8FB JUMP JUMPDEST STOP JUMPDEST PUSH2 0x330 PUSH1 0x4 DUP1 CALLDATASIZE SUB DUP2 ADD SWAP1 PUSH2 0x32B SWAP2 SWAP1 PUSH2 0x33FC JUMP JUMPDEST PUSH2 0x90D JUMP JUMPDEST STOP JUMPDEST PUSH2 0x34C PUSH1 0x4 DUP1 CALLDATASIZE SUB DUP2 ADD SWAP1 PUSH2 0x347 SWAP2 SWAP1 PUSH2 0x32DD JUMP JUMPDEST PUSH2 0x92D JUMP JUMPDEST STOP JUMPDEST PUSH2 0x368 PUSH1 0x4 DUP1 CALLDATASIZE SUB DUP2 ADD SWAP1 PUSH2 0x363 SWAP2 SWAP1 PUSH2 0x32DD JUMP JUMPDEST PUSH2 0x9A2 JUMP JUMPDEST PUSH1 0x40 MLOAD PUSH2 0x375 SWAP2 SWAP1 PUSH2 0x33E1 JUMP JUMPDEST PUSH1 0x40 MLOAD DUP1 SWAP2 SUB SWAP1 RETURN JUMPDEST PUSH2 0x398 PUSH1 0x4 DUP1 CALLDATASIZE SUB DUP2 ADD SWAP1 PUSH2 0x393 SWAP2 SWAP1 PUSH2 0x34E0 JUMP JUMPDEST PUSH2 0xA13 JUMP JUMPDEST PUSH1 0x40 MLOAD PUSH2 0x3A5 SWAP2 SWAP1 PUSH2 0x33E1 JUMP JUMPDEST PUSH1 0x40 MLOAD DUP1 SWAP2 SUB SWAP1 RETURN JUMPDEST PUSH2 0x3B6 PUSH2 0xB4D JUMP JUMPDEST PUSH1 0x40 MLOAD PUSH2 0x3C3 SWAP2 SWAP1 PUSH2 0x31DA JUMP JUMPDEST PUSH1 0x40 MLOAD DUP1 SWAP2 SUB SWAP1 RETURN JUMPDEST PUSH2 0x3E6 PUSH1 0x4 DUP1 CALLDATASIZE SUB DUP2 ADD SWAP1 PUSH2 0x3E1 SWAP2 SWAP1 PUSH2 0x32DD JUMP JUMPDEST PUSH2 0xB64 JUMP JUMPDEST PUSH1 0x40 MLOAD PUSH2 0x3F3 SWAP2 SWAP1 PUSH2 0x334B JUMP JUMPDEST PUSH1 0x40 MLOAD DUP1 SWAP2 SUB SWAP1 RETURN JUMPDEST PUSH2 0x416 PUSH1 0x4 DUP1 CALLDATASIZE SUB DUP2 ADD SWAP1 PUSH2 0x411 SWAP2 SWAP1 PUSH2 0x358F JUMP JUMPDEST PUSH2 0xBEA JUMP JUMPDEST PUSH1 0x40 MLOAD PUSH2 0x423 SWAP2 SWAP1 PUSH2 0x33E1 JUMP JUMPDEST PUSH1 0x40 MLOAD DUP1 SWAP2 SUB SWAP1 RETURN JUMPDEST PUSH2 0x434 PUSH2 0xCA1 JUMP JUMPDEST STOP JUMPDEST PUSH2 0x43E PUSH2 0xCB5 JUMP JUMPDEST STOP JUMPDEST PUSH2 0x448 PUSH2 0xCC7 JUMP JUMPDEST PUSH1 0x40 MLOAD PUSH2 0x455 SWAP2 SWAP1 PUSH2 0x334B JUMP JUMPDEST PUSH1 0x40 MLOAD DUP1 SWAP2 SUB SWAP1 RETURN JUMPDEST PUSH2 0x466 PUSH2 0xCF1 JUMP JUMPDEST PUSH1 0x40 MLOAD PUSH2 0x473 SWAP2 SWAP1 PUSH2 0x3285 JUMP JUMPDEST PUSH1 0x40 MLOAD DUP1 SWAP2 SUB SWAP1 RETURN JUMPDEST PUSH2 0x496 PUSH1 0x4 DUP1 CALLDATASIZE SUB DUP2 ADD SWAP1 PUSH2 0x491 SWAP2 SWAP1 PUSH2 0x35BC JUMP JUMPDEST PUSH2 0xD2E JUMP JUMPDEST STOP JUMPDEST PUSH2 0x4B2 PUSH1 0x4 DUP1 CALLDATASIZE SUB DUP2 ADD SWAP1 PUSH2 0x4AD SWAP2 SWAP1 PUSH2 0x372C JUMP JUMPDEST PUSH2 0xD44 JUMP JUMPDEST STOP JUMPDEST PUSH2 0x4CE PUSH1 0x4 DUP1 CALLDATASIZE SUB DUP2 ADD SWAP1 PUSH2 0x4C9 SWAP2 SWAP1 PUSH2 0x3850 JUMP JUMPDEST PUSH2 0xDA6 JUMP JUMPDEST STOP JUMPDEST PUSH2 0x4EA PUSH1 0x4 DUP1 CALLDATASIZE SUB DUP2 ADD SWAP1 PUSH2 0x4E5 SWAP2 SWAP1 PUSH2 0x358F JUMP JUMPDEST PUSH2 0xE04 JUMP JUMPDEST STOP JUMPDEST PUSH2 0x506 PUSH1 0x4 DUP1 CALLDATASIZE SUB DUP2 ADD SWAP1 PUSH2 0x501 SWAP2 SWAP1 PUSH2 0x32DD JUMP JUMPDEST PUSH2 0xEEF JUMP JUMPDEST PUSH1 0x40 MLOAD PUSH2 0x513 SWAP2 SWAP1 PUSH2 0x3285 JUMP JUMPDEST PUSH1 0x40 MLOAD DUP1 SWAP2 SUB SWAP1 RETURN JUMPDEST PUSH2 0x536 PUSH1 0x4 DUP1 CALLDATASIZE SUB DUP2 ADD SWAP1 PUSH2 0x531 SWAP2 SWAP1 PUSH2 0x38BD JUMP JUMPDEST PUSH2 0xF77 JUMP JUMPDEST PUSH1 0x40 MLOAD PUSH2 0x543 SWAP2 SWAP1 PUSH2 0x33E1 JUMP JUMPDEST PUSH1 0x40 MLOAD DUP1 SWAP2 SUB SWAP1 RETURN JUMPDEST PUSH2 0x566 PUSH1 0x4 DUP1 CALLDATASIZE SUB DUP2 ADD SWAP1 PUSH2 0x561 SWAP2 SWAP1 PUSH2 0x32DD JUMP JUMPDEST PUSH2 0xFA3 JUMP JUMPDEST PUSH1 0x40 MLOAD PUSH2 0x576 SWAP5 SWAP4 SWAP3 SWAP2 SWAP1 PUSH2 0x38FD JUMP JUMPDEST PUSH1 0x40 MLOAD DUP1 SWAP2 SUB SWAP1 RETURN JUMPDEST PUSH2 0x599 PUSH1 0x4 DUP1 CALLDATASIZE SUB DUP2 ADD SWAP1 PUSH2 0x594 SWAP2 SWAP1 PUSH2 0x3942 JUMP JUMPDEST PUSH2 0x1000 JUMP JUMPDEST PUSH1 0x40 MLOAD PUSH2 0x5A6 SWAP2 SWAP1 PUSH2 0x31DA JUMP JUMPDEST PUSH1 0x40 MLOAD DUP1 SWAP2 SUB SWAP1 RETURN JUMPDEST PUSH2 0x5C9 PUSH1 0x4 DUP1 CALLDATASIZE SUB DUP2 ADD SWAP1 PUSH2 0x5C4 SWAP2 SWAP1 PUSH2 0x358F JUMP JUMPDEST PUSH2 0x1094 JUMP JUMPDEST STOP JUMPDEST PUSH2 0x5E5 PUSH1 0x4 DUP1 CALLDATASIZE SUB DUP2 ADD SWAP1 PUSH2 0x5E0 SWAP2 SWAP1 PUSH2 0x358F JUMP JUMPDEST PUSH2 0x10E0 JUMP JUMPDEST STOP JUMPDEST PUSH2 0x601 PUSH1 0x4 DUP1 CALLDATASIZE SUB DUP2 ADD SWAP1 PUSH2 0x5FC SWAP2 SWAP1 PUSH2 0x32DD JUMP JUMPDEST PUSH2 0x1163 JUMP JUMPDEST PUSH1 0x40 MLOAD PUSH2 0x60E SWAP2 SWAP1 PUSH2 0x3A04 JUMP JUMPDEST PUSH1 0x40 MLOAD DUP1 SWAP2 SUB SWAP1 RETURN JUMPDEST PUSH1 0x0 PUSH2 0x622 DUP3 PUSH2 0x125D JUMP JUMPDEST SWAP1 POP SWAP2 SWAP1 POP JUMP JUMPDEST PUSH1 0x60 PUSH1 0x40 MLOAD DUP1 PUSH1 0x40 ADD PUSH1 0x40 MSTORE DUP1 PUSH1 0xD DUP2 MSTORE PUSH1 0x20 ADD PUSH32 0x4D4544414C2E547269706C654300000000000000000000000000000000000000 DUP2 MSTORE POP SWAP1 POP SWAP1 JUMP JUMPDEST PUSH1 0x0 PUSH2 0x671 DUP3 PUSH2 0x12D7 JUMP JUMPDEST PUSH1 0xB PUSH1 0x0 DUP4 DUP2 MSTORE PUSH1 0x20 ADD SWAP1 DUP2 MSTORE PUSH1 0x20 ADD PUSH1 0x0 KECCAK256 PUSH1 0x0 SWAP1 SLOAD SWAP1 PUSH2 0x100 EXP SWAP1 DIV PUSH20 0xFFFFFFFFFFFFFFFFFFFFFFFFFFFFFFFFFFFFFFFF AND SWAP1 POP SWAP2 SWAP1 POP JUMP JUMPDEST PUSH1 0x0 PUSH2 0x6B7 DUP3 PUSH2 0xB64 JUMP JUMPDEST SWAP1 POP DUP1 PUSH20 0xFFFFFFFFFFFFFFFFFFFFFFFFFFFFFFFFFFFFFFFF AND DUP4 PUSH20 0xFFFFFFFFFFFFFFFFFFFFFFFFFFFFFFFFFFFFFFFF AND SUB PUSH2 0x727 JUMPI PUSH1 0x40 MLOAD PUSH32 0x8C379A000000000000000000000000000000000000000000000000000000000 DUP2 MSTORE PUSH1 0x4 ADD PUSH2 0x71E SWAP1 PUSH2 0x3A91 JUMP JUMPDEST PUSH1 0x40 MLOAD DUP1 SWAP2 SUB SWAP1 REVERT JUMPDEST DUP1 PUSH20 0xFFFFFFFFFFFFFFFFFFFFFFFFFFFFFFFFFFFFFFFF AND PUSH2 0x746 PUSH2 0x1322 JUMP JUMPDEST PUSH20 0xFFFFFFFFFFFFFFFFFFFFFFFFFFFFFFFFFFFFFFFF AND EQ DUP1 PUSH2 0x775 JUMPI POP PUSH2 0x774 DUP2 PUSH2 0x76F PUSH2 0x1322 JUMP JUMPDEST PUSH2 0x1000 JUMP JUMPDEST JUMPDEST PUSH2 0x7B4 JUMPI PUSH1 0x40 MLOAD PUSH32 0x8C379A000000000000000000000000000000000000000000000000000000000 DUP2 MSTORE PUSH1 0x4 ADD PUSH2 0x7AB SWAP1 PUSH2 0x3B23 JUMP JUMPDEST PUSH1 0x40 MLOAD DUP1 SWAP2 SUB SWAP1 REVERT JUMPDEST PUSH2 0x7BE DUP4 DUP4 PUSH2 0x132A JUMP JUMPDEST POP POP POP JUMP JUMPDEST PUSH1 0x0 PUSH1 0xF DUP1 SLOAD SWAP1 POP SWAP1 POP SWAP1 JUMP JUMPDEST PUSH1 0x12 PUSH1 0x0 SWAP1 SLOAD SWAP1 PUSH2 0x100 EXP SWAP1 DIV PUSH20 0xFFFFFFFFFFFFFFFFFFFFFFFFFFFFFFFFFFFFFFFF AND DUP2 JUMP JUMPDEST PUSH2 0x807 PUSH2 0x801 PUSH2 0x1322 JUMP JUMPDEST DUP3 PUSH2 0x13E3 JUMP JUMPDEST PUSH2 0x846 JUMPI PUSH1 0x40 MLOAD PUSH32 0x8C379A000000000000000000000000000000000000000000000000000000000 DUP2 MSTORE PUSH1 0x4 ADD PUSH2 0x83D SWAP1 PUSH2 0x3BB5 JUMP JUMPDEST PUSH1 0x40 MLOAD DUP1 SWAP2 SUB SWAP1 REVERT JUMPDEST PUSH2 0x851 DUP4 DUP4 DUP4 PUSH2 0x1478 JUMP JUMPDEST POP POP POP JUMP JUMPDEST PUSH1 0x0 PUSH2 0x861 DUP4 PUSH2 0xBEA JUMP JUMPDEST DUP3 LT PUSH2 0x8A2 JUMPI PUSH1 0x40 MLOAD PUSH32 0x8C379A000000000000000000000000000000000000000000000000000000000 DUP2 MSTORE PUSH1 0x4 ADD PUSH2 0x899 SWAP1 PUSH2 0x3C47 JUMP JUMPDEST PUSH1 0x40 MLOAD DUP1 SWAP2 SUB SWAP1 REVERT JUMPDEST PUSH1 0xD PUSH1 0x0 DUP5 PUSH20 0xFFFFFFFFFFFFFFFFFFFFFFFFFFFFFFFFFFFFFFFF AND PUSH20 0xFFFFFFFFFFFFFFFFFFFFFFFFFFFFFFFFFFFFFFFF AND DUP2 MSTORE PUSH1 0x20 ADD SWAP1 DUP2 MSTORE PUSH1 0x20 ADD PUSH1 0x0 KECCAK256 PUSH1 0x0 DUP4 DUP2 MSTORE PUSH1 0x20 ADD SWAP1 DUP2 MSTORE PUSH1 0x20 ADD PUSH1 0x0 KECCAK256 SLOAD SWAP1 POP SWAP3 SWAP2 POP POP JUMP JUMPDEST PUSH2 0x903 PUSH2 0x15C8 JUMP JUMPDEST PUSH2 0x90B PUSH2 0x1646 JUMP JUMPDEST JUMP JUMPDEST PUSH2 0x928 DUP4 DUP4 DUP4 PUSH1 0x40 MLOAD DUP1 PUSH1 0x20 ADD PUSH1 0x40 MSTORE DUP1 PUSH1 0x0 DUP2 MSTORE POP PUSH2 0xD44 JUMP JUMPDEST POP POP POP JUMP JUMPDEST PUSH2 0x935 PUSH2 0x15C8 JUMP JUMPDEST PUSH2 0x93E DUP2 PUSH2 0x16A9 JUMP JUMPDEST PUSH1 0x15 PUSH1 0x0 DUP3 DUP2 MSTORE PUSH1 0x20 ADD SWAP1 DUP2 MSTORE PUSH1 0x20 ADD PUSH1 0x0 KECCAK256 PUSH1 0x0 DUP1 DUP3 ADD PUSH1 0x0 SWAP1 SSTORE PUSH1 0x1 DUP3 ADD PUSH1 0x0 SWAP1 SSTORE PUSH1 0x2 DUP3 ADD PUSH1 0x0 PUSH2 0x100 EXP DUP2 SLOAD SWAP1 PUSH20 0xFFFFFFFFFFFFFFFFFFFFFFFFFFFFFFFFFFFFFFFF MUL NOT AND SWAP1 SSTORE PUSH1 0x2 DUP3 ADD PUSH1 0x14 PUSH2 0x100 EXP DUP2 SLOAD SWAP1 PUSH1 0xFF MUL NOT AND SWAP1 SSTORE POP POP POP JUMP JUMPDEST PUSH1 0x0 PUSH2 0x9AC PUSH2 0x7C3 JUMP JUMPDEST DUP3 LT PUSH2 0x9ED JUMPI PUSH1 0x40 MLOAD PUSH32 0x8C379A000000000000000000000000000000000000000000000000000000000 DUP2 MSTORE PUSH1 0x4 ADD PUSH2 0x9E4 SWAP1 PUSH2 0x3CD9 JUMP JUMPDEST PUSH1 0x40 MLOAD DUP1 SWAP2 SUB SWAP1 REVERT JUMPDEST PUSH1 0xF DUP3 DUP2 SLOAD DUP2 LT PUSH2 0xA01 JUMPI PUSH2 0xA00 PUSH2 0x3CF9 JUMP JUMPDEST JUMPDEST SWAP1 PUSH1 0x0 MSTORE PUSH1 0x20 PUSH1 0x0 KECCAK256 ADD SLOAD SWAP1 POP SWAP2 SWAP1 POP JUMP JUMPDEST PUSH1 0x0 PUSH1 0x16 PUSH1 0x0 DUP9 DUP2 MSTORE PUSH1 0x20 ADD SWAP1 DUP2 MSTORE PUSH1 0x20 ADD PUSH1 0x0 KECCAK256 PUSH1 0x0 SWAP1 SLOAD SWAP1 PUSH2 0x100 EXP SWAP1 DIV PUSH1 0xFF AND ISZERO PUSH2 0xA76 JUMPI PUSH1 0x40 MLOAD PUSH32 0x8C379A000000000000000000000000000000000000000000000000000000000 DUP2 MSTORE PUSH1 0x4 ADD PUSH2 0xA6D SWAP1 PUSH2 0x3D74 JUMP JUMPDEST PUSH1 0x40 MLOAD DUP1 SWAP2 SUB SWAP1 REVERT JUMPDEST PUSH2 0xA8D PUSH2 0xA86 DUP10 DUP10 DUP10 DUP10 DUP10 PUSH2 0x17F7 JUMP JUMPDEST DUP5 DUP5 PUSH2 0x185D JUMP JUMPDEST PUSH2 0xACC JUMPI PUSH1 0x40 MLOAD PUSH32 0x8C379A000000000000000000000000000000000000000000000000000000000 DUP2 MSTORE PUSH1 0x4 ADD PUSH2 0xAC3 SWAP1 PUSH2 0x3DE0 JUMP JUMPDEST PUSH1 0x40 MLOAD DUP1 SWAP2 SUB SWAP1 REVERT JUMPDEST PUSH1 0x1 PUSH1 0x16 PUSH1 0x0 DUP10 DUP2 MSTORE PUSH1 0x20 ADD SWAP1 DUP2 MSTORE PUSH1 0x20 ADD PUSH1 0x0 KECCAK256 PUSH1 0x0 PUSH2 0x100 EXP DUP2 SLOAD DUP2 PUSH1 0xFF MUL NOT AND SWAP1 DUP4 ISZERO ISZERO MUL OR SWAP1 SSTORE POP PUSH1 0x0 PUSH1 0x40 MLOAD DUP1 PUSH1 0x80 ADD PUSH1 0x40 MSTORE DUP1 DUP11 DUP2 MSTORE PUSH1 0x20 ADD DUP9 DUP2 MSTORE PUSH1 0x20 ADD DUP8 PUSH20 0xFFFFFFFFFFFFFFFFFFFFFFFFFFFFFFFFFFFFFFFF AND DUP2 MSTORE PUSH1 0x20 ADD DUP7 ISZERO ISZERO DUP2 MSTORE POP SWAP1 POP PUSH2 0xB3F DUP7 DUP3 PUSH2 0x1906 JUMP JUMPDEST SWAP2 POP POP SWAP8 SWAP7 POP POP POP POP POP POP POP JUMP JUMPDEST PUSH1 0x0 PUSH1 0x6 PUSH1 0x0 SWAP1 SLOAD SWAP1 PUSH2 0x100 EXP SWAP1 DIV PUSH1 0xFF AND SWAP1 POP SWAP1 JUMP JUMPDEST PUSH1 0x0 DUP1 PUSH2 0xB70 DUP4 PUSH2 0x1A1C JUMP JUMPDEST SWAP1 POP PUSH1 0x0 PUSH20 0xFFFFFFFFFFFFFFFFFFFFFFFFFFFFFFFFFFFFFFFF AND DUP2 PUSH20 0xFFFFFFFFFFFFFFFFFFFFFFFFFFFFFFFFFFFFFFFF AND SUB PUSH2 0xBE1 JUMPI PUSH1 0x40 MLOAD PUSH32 0x8C379A000000000000000000000000000000000000000000000000000000000 DUP2 MSTORE PUSH1 0x4 ADD PUSH2 0xBD8 SWAP1 PUSH2 0x3E4C JUMP JUMPDEST PUSH1 0x40 MLOAD DUP1 SWAP2 SUB SWAP1 REVERT JUMPDEST DUP1 SWAP2 POP POP SWAP2 SWAP1 POP JUMP JUMPDEST PUSH1 0x0 DUP1 PUSH20 0xFFFFFFFFFFFFFFFFFFFFFFFFFFFFFFFFFFFFFFFF AND DUP3 PUSH20 0xFFFFFFFFFFFFFFFFFFFFFFFFFFFFFFFFFFFFFFFF AND SUB PUSH2 0xC5A JUMPI PUSH1 0x40 MLOAD PUSH32 0x8C379A000000000000000000000000000000000000000000000000000000000 DUP2 MSTORE PUSH1 0x4 ADD PUSH2 0xC51 SWAP1 PUSH2 0x3EDE JUMP JUMPDEST PUSH1 0x40 MLOAD DUP1 SWAP2 SUB SWAP1 REVERT JUMPDEST PUSH1 0xA PUSH1 0x0 DUP4 PUSH20 0xFFFFFFFFFFFFFFFFFFFFFFFFFFFFFFFFFFFFFFFF AND PUSH20 0xFFFFFFFFFFFFFFFFFFFFFFFFFFFFFFFFFFFFFFFF AND DUP2 MSTORE PUSH1 0x20 ADD SWAP1 DUP2 MSTORE PUSH1 0x20 ADD PUSH1 0x0 KECCAK256 SLOAD SWAP1 POP SWAP2 SWAP1 POP JUMP JUMPDEST PUSH2 0xCA9 PUSH2 0x15C8 JUMP JUMPDEST PUSH2 0xCB3 PUSH1 0x0 PUSH2 0x1A59 JUMP JUMPDEST JUMP JUMPDEST PUSH2 0xCBD PUSH2 0x15C8 JUMP JUMPDEST PUSH2 0xCC5 PUSH2 0x1B1F JUMP JUMPDEST JUMP JUMPDEST PUSH1 0x0 PUSH1 0x11 PUSH1 0x0 SWAP1 SLOAD SWAP1 PUSH2 0x100 EXP SWAP1 DIV PUSH20 0xFFFFFFFFFFFFFFFFFFFFFFFFFFFFFFFFFFFFFFFF AND SWAP1 POP SWAP1 JUMP JUMPDEST PUSH1 0x60 PUSH1 0x40 MLOAD DUP1 PUSH1 0x40 ADD PUSH1 0x40 MSTORE DUP1 PUSH1 0x5 DUP2 MSTORE PUSH1 0x20 ADD PUSH32 0x4D4544414C000000000000000000000000000000000000000000000000000000 DUP2 MSTORE POP SWAP1 POP SWAP1 JUMP JUMPDEST PUSH2 0xD40 PUSH2 0xD39 PUSH2 0x1322 JUMP JUMPDEST DUP4 DUP4 PUSH2 0x1B82 JUMP JUMPDEST POP POP JUMP JUMPDEST PUSH2 0xD55 PUSH2 0xD4F PUSH2 0x1322 JUMP JUMPDEST DUP4 PUSH2 0x13E3 JUMP JUMPDEST PUSH2 0xD94 JUMPI PUSH1 0x40 MLOAD PUSH32 0x8C379A000000000000000000000000000000000000000000000000000000000 DUP2 MSTORE PUSH1 0x4 ADD PUSH2 0xD8B SWAP1 PUSH2 0x3BB5 JUMP JUMPDEST PUSH1 0x40 MLOAD DUP1 SWAP2 SUB SWAP1 REVERT JUMPDEST PUSH2 0xDA0 DUP5 DUP5 DUP5 DUP5 PUSH2 0x1CEE JUMP JUMPDEST POP POP POP POP JUMP JUMPDEST PUSH2 0xDAE PUSH2 0x15C8 JUMP JUMPDEST DUP1 PUSH1 0x13 SWAP1 DUP2 PUSH2 0xDBD SWAP2 SWAP1 PUSH2 0x410A JUMP JUMPDEST POP PUSH1 0x13 PUSH1 0x40 MLOAD PUSH2 0xDCD SWAP2 SWAP1 PUSH2 0x426A JUMP JUMPDEST PUSH1 0x40 MLOAD DUP1 SWAP2 SUB SWAP1 KECCAK256 PUSH32 0x5B2F71AE2236304212A8F3529AA50B6AE9FE556CC6A4AF4F9B51F89328D057F2 PUSH1 0x40 MLOAD PUSH1 0x40 MLOAD DUP1 SWAP2 SUB SWAP1 LOG2 POP JUMP JUMPDEST PUSH1 0x11 PUSH1 0x14 SWAP1 SLOAD SWAP1 PUSH2 0x100 EXP SWAP1 DIV PUSH1 0xFF AND ISZERO PUSH2 0xE54 JUMPI PUSH1 0x40 MLOAD PUSH32 0x8C379A000000000000000000000000000000000000000000000000000000000 DUP2 MSTORE PUSH1 0x4 ADD PUSH2 0xE4B SWAP1 PUSH2 0x42CD JUMP JUMPDEST PUSH1 0x40 MLOAD DUP1 SWAP2 SUB SWAP1 REVERT JUMPDEST PUSH2 0xE5D DUP2 PUSH2 0x1A59 JUMP JUMPDEST PUSH2 0xED1 PUSH1 0x40 MLOAD DUP1 PUSH1 0x40 ADD PUSH1 0x40 MSTORE DUP1 PUSH1 0x7 DUP2 MSTORE PUSH1 0x20 ADD PUSH32 0x547269706C654300000000000000000000000000000000000000000000000000 DUP2 MSTORE POP PUSH1 0x40 MLOAD DUP1 PUSH1 0x40 ADD PUSH1 0x40 MSTORE DUP1 PUSH1 0x5 DUP2 MSTORE PUSH1 0x20 ADD PUSH32 0x312E302E30000000000000000000000000000000000000000000000000000000 DUP2 MSTORE POP PUSH2 0x1D4A JUMP JUMPDEST PUSH1 0x1 PUSH1 0x11 PUSH1 0x14 PUSH2 0x100 EXP DUP2 SLOAD DUP2 PUSH1 0xFF MUL NOT AND SWAP1 DUP4 ISZERO ISZERO MUL OR SWAP1 SSTORE POP POP JUMP JUMPDEST PUSH1 0x60 PUSH2 0xEFA DUP3 PUSH2 0x1E2A JUMP JUMPDEST PUSH2 0xF39 JUMPI PUSH1 0x40 MLOAD PUSH32 0x8C379A000000000000000000000000000000000000000000000000000000000 DUP2 MSTORE PUSH1 0x4 ADD PUSH2 0xF30 SWAP1 PUSH2 0x435F JUMP JUMPDEST PUSH1 0x40 MLOAD DUP1 SWAP2 SUB SWAP1 REVERT JUMPDEST PUSH1 0x0 PUSH2 0xF43 PUSH2 0x1E6B JUMP JUMPDEST SWAP1 POP DUP1 PUSH2 0xF4F DUP5 PUSH2 0x1EFD JUMP JUMPDEST PUSH1 0x40 MLOAD PUSH1 0x20 ADD PUSH2 0xF60 SWAP3 SWAP2 SWAP1 PUSH2 0x43B0 JUMP JUMPDEST PUSH1 0x40 MLOAD PUSH1 0x20 DUP2 DUP4 SUB SUB DUP2 MSTORE SWAP1 PUSH1 0x40 MSTORE SWAP2 POP POP SWAP2 SWAP1 POP JUMP JUMPDEST PUSH1 0x0 PUSH2 0xF81 PUSH2 0x15C8 JUMP JUMPDEST PUSH2 0xF9B DUP4 DUP4 DUP1 CALLDATASIZE SUB DUP2 ADD SWAP1 PUSH2 0xF96 SWAP2 SWAP1 PUSH2 0x4451 JUMP JUMPDEST PUSH2 0x1906 JUMP JUMPDEST SWAP1 POP SWAP3 SWAP2 POP POP JUMP JUMPDEST PUSH1 0x15 PUSH1 0x20 MSTORE DUP1 PUSH1 0x0 MSTORE PUSH1 0x40 PUSH1 0x0 KECCAK256 PUSH1 0x0 SWAP2 POP SWAP1 POP DUP1 PUSH1 0x0 ADD SLOAD SWAP1 DUP1 PUSH1 0x1 ADD SLOAD SWAP1 DUP1 PUSH1 0x2 ADD PUSH1 0x0 SWAP1 SLOAD SWAP1 PUSH2 0x100 EXP SWAP1 DIV PUSH20 0xFFFFFFFFFFFFFFFFFFFFFFFFFFFFFFFFFFFFFFFF AND SWAP1 DUP1 PUSH1 0x2 ADD PUSH1 0x14 SWAP1 SLOAD SWAP1 PUSH2 0x100 EXP SWAP1 DIV PUSH1 0xFF AND SWAP1 POP DUP5 JUMP JUMPDEST PUSH1 0x0 PUSH1 0xC PUSH1 0x0 DUP5 PUSH20 0xFFFFFFFFFFFFFFFFFFFFFFFFFFFFFFFFFFFFFFFF AND PUSH20 0xFFFFFFFFFFFFFFFFFFFFFFFFFFFFFFFFFFFFFFFF AND DUP2 MSTORE PUSH1 0x20 ADD SWAP1 DUP2 MSTORE PUSH1 0x20 ADD PUSH1 0x0 KECCAK256 PUSH1 0x0 DUP4 PUSH20 0xFFFFFFFFFFFFFFFFFFFFFFFFFFFFFFFFFFFFFFFF AND PUSH20 0xFFFFFFFFFFFFFFFFFFFFFFFFFFFFFFFFFFFFFFFF AND DUP2 MSTORE PUSH1 0x20 ADD SWAP1 DUP2 MSTORE PUSH1 0x20 ADD PUSH1 0x0 KECCAK256 PUSH1 0x0 SWAP1 SLOAD SWAP1 PUSH2 0x100 EXP SWAP1 DIV PUSH1 0xFF AND SWAP1 POP SWAP3 SWAP2 POP POP JUMP JUMPDEST PUSH2 0x109C PUSH2 0x15C8 JUMP JUMPDEST DUP1 PUSH1 0x12 PUSH1 0x0 PUSH2 0x100 EXP DUP2 SLOAD DUP2 PUSH20 0xFFFFFFFFFFFFFFFFFFFFFFFFFFFFFFFFFFFFFFFF MUL NOT AND SWAP1 DUP4 PUSH20 0xFFFFFFFFFFFFFFFFFFFFFFFFFFFFFFFFFFFFFFFF AND MUL OR SWAP1 SSTORE POP POP JUMP JUMPDEST PUSH2 0x10E8 PUSH2 0x15C8 JUMP JUMPDEST PUSH1 0x0 PUSH20 0xFFFFFFFFFFFFFFFFFFFFFFFFFFFFFFFFFFFFFFFF AND DUP2 PUSH20 0xFFFFFFFFFFFFFFFFFFFFFFFFFFFFFFFFFFFFFFFF AND SUB PUSH2 0x1157 JUMPI PUSH1 0x40 MLOAD PUSH32 0x8C379A000000000000000000000000000000000000000000000000000000000 DUP2 MSTORE PUSH1 0x4 ADD PUSH2 0x114E SWAP1 PUSH2 0x44F0 JUMP JUMPDEST PUSH1 0x40 MLOAD DUP1 SWAP2 SUB SWAP1 REVERT JUMPDEST PUSH2 0x1160 DUP2 PUSH2 0x1A59 JUMP JUMPDEST POP JUMP JUMPDEST PUSH2 0x116B PUSH2 0x30E6 JUMP JUMPDEST PUSH2 0x1174 DUP3 PUSH2 0x1E2A JUMP JUMPDEST PUSH2 0x11B3 JUMPI PUSH1 0x40 MLOAD PUSH32 0x8C379A000000000000000000000000000000000000000000000000000000000 DUP2 MSTORE PUSH1 0x4 ADD PUSH2 0x11AA SWAP1 PUSH2 0x455C JUMP JUMPDEST PUSH1 0x40 MLOAD DUP1 SWAP2 SUB SWAP1 REVERT JUMPDEST PUSH1 0x15 PUSH1 0x0 DUP4 DUP2 MSTORE PUSH1 0x20 ADD SWAP1 DUP2 MSTORE PUSH1 0x20 ADD PUSH1 0x0 KECCAK256 PUSH1 0x40 MLOAD DUP1 PUSH1 0x80 ADD PUSH1 0x40 MSTORE SWAP1 DUP2 PUSH1 0x0 DUP3 ADD SLOAD DUP2 MSTORE PUSH1 0x20 ADD PUSH1 0x1 DUP3 ADD SLOAD DUP2 MSTORE PUSH1 0x20 ADD PUSH1 0x2 DUP3 ADD PUSH1 0x0 SWAP1 SLOAD SWAP1 PUSH2 0x100 EXP SWAP1 DIV PUSH20 0xFFFFFFFFFFFFFFFFFFFFFFFFFFFFFFFFFFFFFFFF AND PUSH20 0xFFFFFFFFFFFFFFFFFFFFFFFFFFFFFFFFFFFFFFFF AND PUSH20 0xFFFFFFFFFFFFFFFFFFFFFFFFFFFFFFFFFFFFFFFF AND DUP2 MSTORE PUSH1 0x20 ADD PUSH1 0x2 DUP3 ADD PUSH1 0x14 SWAP1 SLOAD SWAP1 PUSH2 0x100 EXP SWAP1 DIV PUSH1 0xFF AND ISZERO ISZERO ISZERO ISZERO DUP2 MSTORE POP POP SWAP1 POP SWAP2 SWAP1 POP JUMP JUMPDEST PUSH1 0x0 PUSH32 0x780E9D6300000000000000000000000000000000000000000000000000000000 PUSH28 0xFFFFFFFFFFFFFFFFFFFFFFFFFFFFFFFFFFFFFFFFFFFFFFFFFFFFFFFF NOT AND DUP3 PUSH28 0xFFFFFFFFFFFFFFFFFFFFFFFFFFFFFFFFFFFFFFFFFFFFFFFFFFFFFFFF NOT AND EQ DUP1 PUSH2 0x12D0 JUMPI POP PUSH2 0x12CF DUP3 PUSH2 0x1FCB JUMP JUMPDEST JUMPDEST SWAP1 POP SWAP2 SWAP1 POP JUMP JUMPDEST PUSH2 0x12E0 DUP2 PUSH2 0x1E2A JUMP JUMPDEST PUSH2 0x131F JUMPI PUSH1 0x40 MLOAD PUSH32 0x8C379A000000000000000000000000000000000000000000000000000000000 DUP2 MSTORE PUSH1 0x4 ADD PUSH2 0x1316 SWAP1 PUSH2 0x3E4C JUMP JUMPDEST PUSH1 0x40 MLOAD DUP1 SWAP2 SUB SWAP1 REVERT JUMPDEST POP JUMP JUMPDEST PUSH1 0x0 CALLER SWAP1 POP SWAP1 JUMP JUMPDEST DUP2 PUSH1 0xB PUSH1 0x0 DUP4 DUP2 MSTORE PUSH1 0x20 ADD SWAP1 DUP2 MSTORE PUSH1 0x20 ADD PUSH1 0x0 KECCAK256 PUSH1 0x0 PUSH2 0x100 EXP DUP2 SLOAD DUP2 PUSH20 0xFFFFFFFFFFFFFFFFFFFFFFFFFFFFFFFFFFFFFFFF MUL NOT AND SWAP1 DUP4 PUSH20 0xFFFFFFFFFFFFFFFFFFFFFFFFFFFFFFFFFFFFFFFF AND MUL OR SWAP1 SSTORE POP DUP1 DUP3 PUSH20 0xFFFFFFFFFFFFFFFFFFFFFFFFFFFFFFFFFFFFFFFF AND PUSH2 0x139D DUP4 PUSH2 0xB64 JUMP JUMPDEST PUSH20 0xFFFFFFFFFFFFFFFFFFFFFFFFFFFFFFFFFFFFFFFF AND PUSH32 0x8C5BE1E5EBEC7D5BD14F71427D1E84F3DD0314C0F7B2291E5B200AC8C7C3B925 PUSH1 0x40 MLOAD PUSH1 0x40 MLOAD DUP1 SWAP2 SUB SWAP1 LOG4 POP POP JUMP JUMPDEST PUSH1 0x0 DUP1 PUSH2 0x13EF DUP4 PUSH2 0xB64 JUMP JUMPDEST SWAP1 POP DUP1 PUSH20 0xFFFFFFFFFFFFFFFFFFFFFFFFFFFFFFFFFFFFFFFF AND DUP5 PUSH20 0xFFFFFFFFFFFFFFFFFFFFFFFFFFFFFFFFFFFFFFFF AND EQ DUP1 PUSH2 0x1431 JUMPI POP PUSH2 0x1430 DUP2 DUP6 PUSH2 0x1000 JUMP JUMPDEST JUMPDEST DUP1 PUSH2 0x146F JUMPI POP DUP4 PUSH20 0xFFFFFFFFFFFFFFFFFFFFFFFFFFFFFFFFFFFFFFFF AND PUSH2 0x1457 DUP5 PUSH2 0x666 JUMP JUMPDEST PUSH20 0xFFFFFFFFFFFFFFFFFFFFFFFFFFFFFFFFFFFFFFFF AND EQ JUMPDEST SWAP2 POP POP SWAP3 SWAP2 POP POP JUMP JUMPDEST PUSH2 0x1480 PUSH2 0xB4D JUMP JUMPDEST ISZERO PUSH2 0x14CB JUMPI PUSH1 0x0 PUSH2 0x14C6 JUMPI PUSH1 0x40 MLOAD PUSH32 0x8C379A000000000000000000000000000000000000000000000000000000000 DUP2 MSTORE PUSH1 0x4 ADD PUSH2 0x14BD SWAP1 PUSH2 0x45C8 JUMP JUMPDEST PUSH1 0x40 MLOAD DUP1 SWAP2 SUB SWAP1 REVERT JUMPDEST PUSH2 0x15B8 JUMP JUMPDEST PUSH1 0x0 PUSH1 0x15 PUSH1 0x0 DUP4 DUP2 MSTORE PUSH1 0x20 ADD SWAP1 DUP2 MSTORE PUSH1 0x20 ADD PUSH1 0x0 KECCAK256 PUSH1 0x40 MLOAD DUP1 PUSH1 0x80 ADD PUSH1 0x40 MSTORE SWAP1 DUP2 PUSH1 0x0 DUP3 ADD SLOAD DUP2 MSTORE PUSH1 0x20 ADD PUSH1 0x1 DUP3 ADD SLOAD DUP2 MSTORE PUSH1 0x20 ADD PUSH1 0x2 DUP3 ADD PUSH1 0x0 SWAP1 SLOAD SWAP1 PUSH2 0x100 EXP SWAP1 DIV PUSH20 0xFFFFFFFFFFFFFFFFFFFFFFFFFFFFFFFFFFFFFFFF AND PUSH20 0xFFFFFFFFFFFFFFFFFFFFFFFFFFFFFFFFFFFFFFFF AND PUSH20 0xFFFFFFFFFFFFFFFFFFFFFFFFFFFFFFFFFFFFFFFF AND DUP2 MSTORE PUSH1 0x20 ADD PUSH1 0x2 DUP3 ADD PUSH1 0x14 SWAP1 SLOAD SWAP1 PUSH2 0x100 EXP SWAP1 DIV PUSH1 0xFF AND ISZERO ISZERO ISZERO ISZERO DUP2 MSTORE POP POP SWAP1 POP DUP1 PUSH1 0x60 ADD MLOAD PUSH2 0x15B6 JUMPI PUSH1 0x40 MLOAD PUSH32 0x8C379A000000000000000000000000000000000000000000000000000000000 DUP2 MSTORE PUSH1 0x4 ADD PUSH2 0x15AD SWAP1 PUSH2 0x4634 JUMP JUMPDEST PUSH1 0x40 MLOAD DUP1 SWAP2 SUB SWAP1 REVERT JUMPDEST POP JUMPDEST PUSH2 0x15C3 DUP4 DUP4 DUP4 PUSH2 0x20AD JUMP JUMPDEST POP POP POP JUMP JUMPDEST PUSH2 0x15D0 PUSH2 0x1322 JUMP JUMPDEST PUSH20 0xFFFFFFFFFFFFFFFFFFFFFFFFFFFFFFFFFFFFFFFF AND PUSH2 0x15EE PUSH2 0xCC7 JUMP JUMPDEST PUSH20 0xFFFFFFFFFFFFFFFFFFFFFFFFFFFFFFFFFFFFFFFF AND EQ PUSH2 0x1644 JUMPI PUSH1 0x40 MLOAD PUSH32 0x8C379A000000000000000000000000000000000000000000000000000000000 DUP2 MSTORE PUSH1 0x4 ADD PUSH2 0x163B SWAP1 PUSH2 0x46A0 JUMP JUMPDEST PUSH1 0x40 MLOAD DUP1 SWAP2 SUB SWAP1 REVERT JUMPDEST JUMP JUMPDEST PUSH2 0x164E PUSH2 0x23A6 JUMP JUMPDEST PUSH1 0x0 PUSH1 0x6 PUSH1 0x0 PUSH2 0x100 EXP DUP2 SLOAD DUP2 PUSH1 0xFF MUL NOT AND SWAP1 DUP4 ISZERO ISZERO MUL OR SWAP1 SSTORE POP PUSH32 0x5DB9EE0A495BF2E6FF9C91A7834C1BA4FDD244A5E8AA4E537BD38AEAE4B073AA PUSH2 0x1692 PUSH2 0x1322 JUMP JUMPDEST PUSH1 0x40 MLOAD PUSH2 0x169F SWAP2 SWAP1 PUSH2 0x334B JUMP JUMPDEST PUSH1 0x40 MLOAD DUP1 SWAP2 SUB SWAP1 LOG1 JUMP JUMPDEST PUSH1 0x0 PUSH2 0x16B4 DUP3 PUSH2 0xB64 JUMP JUMPDEST SWAP1 POP PUSH2 0x16C4 DUP2 PUSH1 0x0 DUP5 PUSH1 0x1 PUSH2 0x23EF JUMP JUMPDEST PUSH2 0x16CD DUP3 PUSH2 0xB64 JUMP JUMPDEST SWAP1 POP PUSH1 0xB PUSH1 0x0 DUP4 DUP2 MSTORE PUSH1 0x20 ADD SWAP1 DUP2 MSTORE PUSH1 0x20 ADD PUSH1 0x0 KECCAK256 PUSH1 0x0 PUSH2 0x100 EXP DUP2 SLOAD SWAP1 PUSH20 0xFFFFFFFFFFFFFFFFFFFFFFFFFFFFFFFFFFFFFFFF MUL NOT AND SWAP1 SSTORE PUSH1 0x1 PUSH1 0xA PUSH1 0x0 DUP4 PUSH20 0xFFFFFFFFFFFFFFFFFFFFFFFFFFFFFFFFFFFFFFFF AND PUSH20 0xFFFFFFFFFFFFFFFFFFFFFFFFFFFFFFFFFFFFFFFF AND DUP2 MSTORE PUSH1 0x20 ADD SWAP1 DUP2 MSTORE PUSH1 0x20 ADD PUSH1 0x0 KECCAK256 PUSH1 0x0 DUP3 DUP3 SLOAD SUB SWAP3 POP POP DUP2 SWAP1 SSTORE POP PUSH1 0x9 PUSH1 0x0 DUP4 DUP2 MSTORE PUSH1 0x20 ADD SWAP1 DUP2 MSTORE PUSH1 0x20 ADD PUSH1 0x0 KECCAK256 PUSH1 0x0 PUSH2 0x100 EXP DUP2 SLOAD SWAP1 PUSH20 0xFFFFFFFFFFFFFFFFFFFFFFFFFFFFFFFFFFFFFFFF MUL NOT AND SWAP1 SSTORE DUP2 PUSH1 0x0 PUSH20 0xFFFFFFFFFFFFFFFFFFFFFFFFFFFFFFFFFFFFFFFF AND DUP3 PUSH20 0xFFFFFFFFFFFFFFFFFFFFFFFFFFFFFFFFFFFFFFFF AND PUSH32 0xDDF252AD1BE2C89B69C2B068FC378DAA952BA7F163C4A11628F55A4DF523B3EF PUSH1 0x40 MLOAD PUSH1 0x40 MLOAD DUP1 SWAP2 SUB SWAP1 LOG4 PUSH2 0x17F3 DUP2 PUSH1 0x0 DUP5 PUSH1 0x1 PUSH2 0x254D JUMP JUMPDEST POP POP JUMP JUMPDEST PUSH1 0x0 PUSH2 0x1852 PUSH32 0xD551CBCD8ECB0AC2FCD6E90CB64F0F834565672971FED08AC62146837DCD43BD DUP8 DUP8 DUP8 DUP8 DUP8 PUSH1 0x40 MLOAD PUSH1 0x20 ADD PUSH2 0x1837 SWAP7 SWAP6 SWAP5 SWAP4 SWAP3 SWAP2 SWAP1 PUSH2 0x46D9 JUMP JUMPDEST PUSH1 0x40 MLOAD PUSH1 0x20 DUP2 DUP4 SUB SUB DUP2 MSTORE SWAP1 PUSH1 0x40 MSTORE DUP1 MLOAD SWAP1 PUSH1 0x20 ADD KECCAK256 PUSH2 0x2553 JUMP JUMPDEST SWAP1 POP SWAP6 SWAP5 POP POP POP POP POP JUMP JUMPDEST PUSH1 0x0 PUSH1 0x12 PUSH1 0x0 SWAP1 SLOAD SWAP1 PUSH2 0x100 EXP SWAP1 DIV PUSH20 0xFFFFFFFFFFFFFFFFFFFFFFFFFFFFFFFFFFFFFFFF AND PUSH20 0xFFFFFFFFFFFFFFFFFFFFFFFFFFFFFFFFFFFFFFFF AND PUSH2 0x18E6 DUP6 DUP6 DUP6 DUP1 DUP1 PUSH1 0x1F ADD PUSH1 0x20 DUP1 SWAP2 DIV MUL PUSH1 0x20 ADD PUSH1 0x40 MLOAD SWAP1 DUP2 ADD PUSH1 0x40 MSTORE DUP1 SWAP4 SWAP3 SWAP2 SWAP1 DUP2 DUP2 MSTORE PUSH1 0x20 ADD DUP4 DUP4 DUP1 DUP3 DUP5 CALLDATACOPY PUSH1 0x0 DUP2 DUP5 ADD MSTORE PUSH1 0x1F NOT PUSH1 0x1F DUP3 ADD AND SWAP1 POP DUP1 DUP4 ADD SWAP3 POP POP POP POP POP POP POP PUSH2 0x258C JUMP JUMPDEST PUSH20 0xFFFFFFFFFFFFFFFFFFFFFFFFFFFFFFFFFFFFFFFF AND EQ SWAP1 POP SWAP4 SWAP3 POP POP POP JUMP JUMPDEST PUSH1 0x0 PUSH1 0x14 PUSH1 0x0 DUP2 SLOAD DUP1 SWAP3 SWAP2 SWAP1 PUSH2 0x191B SWAP1 PUSH2 0x4769 JUMP JUMPDEST SWAP2 SWAP1 POP SSTORE POP DUP2 PUSH1 0x15 PUSH1 0x0 PUSH1 0x14 SLOAD DUP2 MSTORE PUSH1 0x20 ADD SWAP1 DUP2 MSTORE PUSH1 0x20 ADD PUSH1 0x0 KECCAK256 PUSH1 0x0 DUP3 ADD MLOAD DUP2 PUSH1 0x0 ADD SSTORE PUSH1 0x20 DUP3 ADD MLOAD DUP2 PUSH1 0x1 ADD SSTORE PUSH1 0x40 DUP3 ADD MLOAD DUP2 PUSH1 0x2 ADD PUSH1 0x0 PUSH2 0x100 EXP DUP2 SLOAD DUP2 PUSH20 0xFFFFFFFFFFFFFFFFFFFFFFFFFFFFFFFFFFFFFFFF MUL NOT AND SWAP1 DUP4 PUSH20 0xFFFFFFFFFFFFFFFFFFFFFFFFFFFFFFFFFFFFFFFF AND MUL OR SWAP1 SSTORE POP PUSH1 0x60 DUP3 ADD MLOAD DUP2 PUSH1 0x2 ADD PUSH1 0x14 PUSH2 0x100 EXP DUP2 SLOAD DUP2 PUSH1 0xFF MUL NOT AND SWAP1 DUP4 ISZERO ISZERO MUL OR SWAP1 SSTORE POP SWAP1 POP POP PUSH2 0x19C0 DUP4 PUSH1 0x14 SLOAD PUSH2 0x2606 JUMP JUMPDEST PUSH1 0x14 SLOAD DUP4 PUSH20 0xFFFFFFFFFFFFFFFFFFFFFFFFFFFFFFFFFFFFFFFF AND PUSH32 0x31E0FC16C192EE274C14A271688E925909508AC86B24785C6BA7290A2BD91A60 DUP5 PUSH1 0x40 MLOAD PUSH2 0x1A09 SWAP2 SWAP1 PUSH2 0x3A04 JUMP JUMPDEST PUSH1 0x40 MLOAD DUP1 SWAP2 SUB SWAP1 LOG3 PUSH1 0x14 SLOAD SWAP1 POP SWAP3 SWAP2 POP POP JUMP JUMPDEST PUSH1 0x0 PUSH1 0x9 PUSH1 0x0 DUP4 DUP2 MSTORE PUSH1 0x20 ADD SWAP1 DUP2 MSTORE PUSH1 0x20 ADD PUSH1 0x0 KECCAK256 PUSH1 0x0 SWAP1 SLOAD SWAP1 PUSH2 0x100 EXP SWAP1 DIV PUSH20 0xFFFFFFFFFFFFFFFFFFFFFFFFFFFFFFFFFFFFFFFF AND SWAP1 POP SWAP2 SWAP1 POP JUMP JUMPDEST PUSH1 0x0 PUSH1 0x11 PUSH1 0x0 SWAP1 SLOAD SWAP1 PUSH2 0x100 EXP SWAP1 DIV PUSH20 0xFFFFFFFFFFFFFFFFFFFFFFFFFFFFFFFFFFFFFFFF AND SWAP1 POP DUP2 PUSH1 0x11 PUSH1 0x0 PUSH2 0x100 EXP DUP2 SLOAD DUP2 PUSH20 0xFFFFFFFFFFFFFFFFFFFFFFFFFFFFFFFFFFFFFFFF MUL NOT AND SWAP1 DUP4 PUSH20 0xFFFFFFFFFFFFFFFFFFFFFFFFFFFFFFFFFFFFFFFF AND MUL OR SWAP1 SSTORE POP DUP2 PUSH20 0xFFFFFFFFFFFFFFFFFFFFFFFFFFFFFFFFFFFFFFFF AND DUP2 PUSH20 0xFFFFFFFFFFFFFFFFFFFFFFFFFFFFFFFFFFFFFFFF AND PUSH32 0x8BE0079C531659141344CD1FD0A4F28419497F9722A3DAAFE3B4186F6B6457E0 PUSH1 0x40 MLOAD PUSH1 0x40 MLOAD DUP1 SWAP2 SUB SWAP1 LOG3 POP POP JUMP JUMPDEST PUSH2 0x1B27 PUSH2 0x2823 JUMP JUMPDEST PUSH1 0x1 PUSH1 0x6 PUSH1 0x0 PUSH2 0x100 EXP DUP2 SLOAD DUP2 PUSH1 0xFF MUL NOT AND SWAP1 DUP4 ISZERO ISZERO MUL OR SWAP1 SSTORE POP PUSH32 0x62E78CEA01BEE320CD4E420270B5EA74000D11B0C9F74754EBDBFC544B05A258 PUSH2 0x1B6B PUSH2 0x1322 JUMP JUMPDEST PUSH1 0x40 MLOAD PUSH2 0x1B78 SWAP2 SWAP1 PUSH2 0x334B JUMP JUMPDEST PUSH1 0x40 MLOAD DUP1 SWAP2 SUB SWAP1 LOG1 JUMP JUMPDEST DUP2 PUSH20 0xFFFFFFFFFFFFFFFFFFFFFFFFFFFFFFFFFFFFFFFF AND DUP4 PUSH20 0xFFFFFFFFFFFFFFFFFFFFFFFFFFFFFFFFFFFFFFFF AND SUB PUSH2 0x1BF0 JUMPI PUSH1 0x40 MLOAD PUSH32 0x8C379A000000000000000000000000000000000000000000000000000000000 DUP2 MSTORE PUSH1 0x4 ADD PUSH2 0x1BE7 SWAP1 PUSH2 0x47FD JUMP JUMPDEST PUSH1 0x40 MLOAD DUP1 SWAP2 SUB SWAP1 REVERT JUMPDEST DUP1 PUSH1 0xC PUSH1 0x0 DUP6 PUSH20 0xFFFFFFFFFFFFFFFFFFFFFFFFFFFFFFFFFFFFFFFF AND PUSH20 0xFFFFFFFFFFFFFFFFFFFFFFFFFFFFFFFFFFFFFFFF AND DUP2 MSTORE PUSH1 0x20 ADD SWAP1 DUP2 MSTORE PUSH1 0x20 ADD PUSH1 0x0 KECCAK256 PUSH1 0x0 DUP5 PUSH20 0xFFFFFFFFFFFFFFFFFFFFFFFFFFFFFFFFFFFFFFFF AND PUSH20 0xFFFFFFFFFFFFFFFFFFFFFFFFFFFFFFFFFFFFFFFF AND DUP2 MSTORE PUSH1 0x20 ADD SWAP1 DUP2 MSTORE PUSH1 0x20 ADD PUSH1 0x0 KECCAK256 PUSH1 0x0 PUSH2 0x100 EXP DUP2 SLOAD DUP2 PUSH1 0xFF MUL NOT AND SWAP1 DUP4 ISZERO ISZERO MUL OR SWAP1 SSTORE POP DUP2 PUSH20 0xFFFFFFFFFFFFFFFFFFFFFFFFFFFFFFFFFFFFFFFF AND DUP4 PUSH20 0xFFFFFFFFFFFFFFFFFFFFFFFFFFFFFFFFFFFFFFFF AND PUSH32 0x17307EAB39AB6107E8899845AD3D59BD9653F200F220920489CA2B5937696C31 DUP4 PUSH1 0x40 MLOAD PUSH2 0x1CE1 SWAP2 SWAP1 PUSH2 0x31DA JUMP JUMPDEST PUSH1 0x40 MLOAD DUP1 SWAP2 SUB SWAP1 LOG3 POP POP POP JUMP JUMPDEST PUSH2 0x1CF9 DUP5 DUP5 DUP5 PUSH2 0x1478 JUMP JUMPDEST PUSH2 0x1D05 DUP5 DUP5 DUP5 DUP5 PUSH2 0x286D JUMP JUMPDEST PUSH2 0x1D44 JUMPI PUSH1 0x40 MLOAD PUSH32 0x8C379A000000000000000000000000000000000000000000000000000000000 DUP2 MSTORE PUSH1 0x4 ADD PUSH2 0x1D3B SWAP1 PUSH2 0x488F JUMP JUMPDEST PUSH1 0x40 MLOAD DUP1 SWAP2 SUB SWAP1 REVERT JUMPDEST POP POP POP POP JUMP JUMPDEST PUSH1 0x0 DUP1 SLOAD SWAP1 PUSH2 0x100 EXP SWAP1 DIV PUSH1 0xFF AND ISZERO PUSH2 0x1D98 JUMPI PUSH1 0x40 MLOAD PUSH32 0x8C379A000000000000000000000000000000000000000000000000000000000 DUP2 MSTORE PUSH1 0x4 ADD PUSH2 0x1D8F SWAP1 PUSH2 0x4921 JUMP JUMPDEST PUSH1 0x40 MLOAD DUP1 SWAP2 SUB SWAP1 REVERT JUMPDEST PUSH1 0x0 DUP3 DUP1 MLOAD SWAP1 PUSH1 0x20 ADD KECCAK256 SWAP1 POP PUSH1 0x0 DUP3 DUP1 MLOAD SWAP1 PUSH1 0x20 ADD KECCAK256 SWAP1 POP PUSH1 0x0 PUSH32 0x8B73C3C69BB8FE3D512ECC4CF759CC79239F7B179B0FFACAA9A75D522B39400F SWAP1 POP DUP3 PUSH1 0x3 DUP2 SWAP1 SSTORE POP DUP2 PUSH1 0x4 DUP2 SWAP1 SSTORE POP PUSH2 0x1DEB PUSH2 0x29F4 JUMP JUMPDEST PUSH1 0x2 DUP2 SWAP1 SSTORE POP PUSH2 0x1DFC DUP2 DUP5 DUP5 PUSH2 0x29FC JUMP JUMPDEST PUSH1 0x1 DUP2 SWAP1 SSTORE POP DUP1 PUSH1 0x5 DUP2 SWAP1 SSTORE POP PUSH1 0x1 PUSH1 0x0 DUP1 PUSH2 0x100 EXP DUP2 SLOAD DUP2 PUSH1 0xFF MUL NOT AND SWAP1 DUP4 ISZERO ISZERO MUL OR SWAP1 SSTORE POP POP POP POP POP POP JUMP JUMPDEST PUSH1 0x0 DUP1 PUSH20 0xFFFFFFFFFFFFFFFFFFFFFFFFFFFFFFFFFFFFFFFF AND PUSH2 0x1E4C DUP4 PUSH2 0x1A1C JUMP JUMPDEST PUSH20 0xFFFFFFFFFFFFFFFFFFFFFFFFFFFFFFFFFFFFFFFF AND EQ ISZERO SWAP1 POP SWAP2 SWAP1 POP JUMP JUMPDEST PUSH1 0x60 PUSH1 0x13 DUP1 SLOAD PUSH2 0x1E7A SWAP1 PUSH2 0x3F2D JUMP JUMPDEST DUP1 PUSH1 0x1F ADD PUSH1 0x20 DUP1 SWAP2 DIV MUL PUSH1 0x20 ADD PUSH1 0x40 MLOAD SWAP1 DUP2 ADD PUSH1 0x40 MSTORE DUP1 SWAP3 SWAP2 SWAP1 DUP2 DUP2 MSTORE PUSH1 0x20 ADD DUP3 DUP1 SLOAD PUSH2 0x1EA6 SWAP1 PUSH2 0x3F2D JUMP JUMPDEST DUP1 ISZERO PUSH2 0x1EF3 JUMPI DUP1 PUSH1 0x1F LT PUSH2 0x1EC8 JUMPI PUSH2 0x100 DUP1 DUP4 SLOAD DIV MUL DUP4 MSTORE SWAP2 PUSH1 0x20 ADD SWAP2 PUSH2 0x1EF3 JUMP JUMPDEST DUP3 ADD SWAP2 SWAP1 PUSH1 0x0 MSTORE PUSH1 0x20 PUSH1 0x0 KECCAK256 SWAP1 JUMPDEST DUP2 SLOAD DUP2 MSTORE SWAP1 PUSH1 0x1 ADD SWAP1 PUSH1 0x20 ADD DUP1 DUP4 GT PUSH2 0x1ED6 JUMPI DUP3 SWAP1 SUB PUSH1 0x1F AND DUP3 ADD SWAP2 JUMPDEST POP POP POP POP POP SWAP1 POP SWAP1 JUMP JUMPDEST PUSH1 0x60 PUSH1 0x0 PUSH1 0x1 PUSH2 0x1F0C DUP5 PUSH2 0x2A3D JUMP JUMPDEST ADD SWAP1 POP PUSH1 0x0 DUP2 PUSH8 0xFFFFFFFFFFFFFFFF DUP2 GT ISZERO PUSH2 0x1F2B JUMPI PUSH2 0x1F2A PUSH2 0x3601 JUMP JUMPDEST JUMPDEST PUSH1 0x40 MLOAD SWAP1 DUP1 DUP3 MSTORE DUP1 PUSH1 0x1F ADD PUSH1 0x1F NOT AND PUSH1 0x20 ADD DUP3 ADD PUSH1 0x40 MSTORE DUP1 ISZERO PUSH2 0x1F5D JUMPI DUP2 PUSH1 0x20 ADD PUSH1 0x1 DUP3 MUL DUP1 CALLDATASIZE DUP4 CALLDATACOPY DUP1 DUP3 ADD SWAP2 POP POP SWAP1 POP JUMPDEST POP SWAP1 POP PUSH1 0x0 DUP3 PUSH1 0x20 ADD DUP3 ADD SWAP1 POP JUMPDEST PUSH1 0x1 ISZERO PUSH2 0x1FC0 JUMPI DUP1 DUP1 PUSH1 0x1 SWAP1 SUB SWAP2 POP POP PUSH32 0x3031323334353637383961626364656600000000000000000000000000000000 PUSH1 0xA DUP7 MOD BYTE DUP2 MSTORE8 PUSH1 0xA DUP6 DUP2 PUSH2 0x1FB4 JUMPI PUSH2 0x1FB3 PUSH2 0x4941 JUMP JUMPDEST JUMPDEST DIV SWAP5 POP PUSH1 0x0 DUP6 SUB PUSH2 0x1F6B JUMPI JUMPDEST DUP2 SWAP4 POP POP POP POP SWAP2 SWAP1 POP JUMP JUMPDEST PUSH1 0x0 PUSH32 0x80AC58CD00000000000000000000000000000000000000000000000000000000 PUSH28 0xFFFFFFFFFFFFFFFFFFFFFFFFFFFFFFFFFFFFFFFFFFFFFFFFFFFFFFFF NOT AND DUP3 PUSH28 0xFFFFFFFFFFFFFFFFFFFFFFFFFFFFFFFFFFFFFFFFFFFFFFFFFFFFFFFF NOT AND EQ DUP1 PUSH2 0x2096 JUMPI POP PUSH32 0x5B5E139F00000000000000000000000000000000000000000000000000000000 PUSH28 0xFFFFFFFFFFFFFFFFFFFFFFFFFFFFFFFFFFFFFFFFFFFFFFFFFFFFFFFF NOT AND DUP3 PUSH28 0xFFFFFFFFFFFFFFFFFFFFFFFFFFFFFFFFFFFFFFFFFFFFFFFFFFFFFFFF NOT AND EQ JUMPDEST DUP1 PUSH2 0x20A6 JUMPI POP PUSH2 0x20A5 DUP3 PUSH2 0x2B90 JUMP JUMPDEST JUMPDEST SWAP1 POP SWAP2 SWAP1 POP JUMP JUMPDEST DUP3 PUSH20 0xFFFFFFFFFFFFFFFFFFFFFFFFFFFFFFFFFFFFFFFF AND PUSH2 0x20CD DUP3 PUSH2 0xB64 JUMP JUMPDEST PUSH20 0xFFFFFFFFFFFFFFFFFFFFFFFFFFFFFFFFFFFFFFFF AND EQ PUSH2 0x2123 JUMPI PUSH1 0x40 MLOAD PUSH32 0x8C379A000000000000000000000000000000000000000000000000000000000 DUP2 MSTORE PUSH1 0x4 ADD PUSH2 0x211A SWAP1 PUSH2 0x49E2 JUMP JUMPDEST PUSH1 0x40 MLOAD DUP1 SWAP2 SUB SWAP1 REVERT JUMPDEST PUSH1 0x0 PUSH20 0xFFFFFFFFFFFFFFFFFFFFFFFFFFFFFFFFFFFFFFFF AND DUP3 PUSH20 0xFFFFFFFFFFFFFFFFFFFFFFFFFFFFFFFFFFFFFFFF AND SUB PUSH2 0x2192 JUMPI PUSH1 0x40 MLOAD PUSH32 0x8C379A000000000000000000000000000000000000000000000000000000000 DUP2 MSTORE PUSH1 0x4 ADD PUSH2 0x2189 SWAP1 PUSH2 0x4A74 JUMP JUMPDEST PUSH1 0x40 MLOAD DUP1 SWAP2 SUB SWAP1 REVERT JUMPDEST PUSH2 0x219F DUP4 DUP4 DUP4 PUSH1 0x1 PUSH2 0x23EF JUMP JUMPDEST DUP3 PUSH20 0xFFFFFFFFFFFFFFFFFFFFFFFFFFFFFFFFFFFFFFFF AND PUSH2 0x21BF DUP3 PUSH2 0xB64 JUMP JUMPDEST PUSH20 0xFFFFFFFFFFFFFFFFFFFFFFFFFFFFFFFFFFFFFFFF AND EQ PUSH2 0x2215 JUMPI PUSH1 0x40 MLOAD PUSH32 0x8C379A000000000000000000000000000000000000000000000000000000000 DUP2 MSTORE PUSH1 0x4 ADD PUSH2 0x220C SWAP1 PUSH2 0x49E2 JUMP JUMPDEST PUSH1 0x40 MLOAD DUP1 SWAP2 SUB SWAP1 REVERT JUMPDEST PUSH1 0xB PUSH1 0x0 DUP3 DUP2 MSTORE PUSH1 0x20 ADD SWAP1 DUP2 MSTORE PUSH1 0x20 ADD PUSH1 0x0 KECCAK256 PUSH1 0x0 PUSH2 0x100 EXP DUP2 SLOAD SWAP1 PUSH20 0xFFFFFFFFFFFFFFFFFFFFFFFFFFFFFFFFFFFFFFFF MUL NOT AND SWAP1 SSTORE PUSH1 0x1 PUSH1 0xA PUSH1 0x0 DUP6 PUSH20 0xFFFFFFFFFFFFFFFFFFFFFFFFFFFFFFFFFFFFFFFF AND PUSH20 0xFFFFFFFFFFFFFFFFFFFFFFFFFFFFFFFFFFFFFFFF AND DUP2 MSTORE PUSH1 0x20 ADD SWAP1 DUP2 MSTORE PUSH1 0x20 ADD PUSH1 0x0 KECCAK256 PUSH1 0x0 DUP3 DUP3 SLOAD SUB SWAP3 POP POP DUP2 SWAP1 SSTORE POP PUSH1 0x1 PUSH1 0xA PUSH1 0x0 DUP5 PUSH20 0xFFFFFFFFFFFFFFFFFFFFFFFFFFFFFFFFFFFFFFFF AND PUSH20 0xFFFFFFFFFFFFFFFFFFFFFFFFFFFFFFFFFFFFFFFF AND DUP2 MSTORE PUSH1 0x20 ADD SWAP1 DUP2 MSTORE PUSH1 0x20 ADD PUSH1 0x0 KECCAK256 PUSH1 0x0 DUP3 DUP3 SLOAD ADD SWAP3 POP POP DUP2 SWAP1 SSTORE POP DUP2 PUSH1 0x9 PUSH1 0x0 DUP4 DUP2 MSTORE PUSH1 0x20 ADD SWAP1 DUP2 MSTORE PUSH1 0x20 ADD PUSH1 0x0 KECCAK256 PUSH1 0x0 PUSH2 0x100 EXP DUP2 SLOAD DUP2 PUSH20 0xFFFFFFFFFFFFFFFFFFFFFFFFFFFFFFFFFFFFFFFF MUL NOT AND SWAP1 DUP4 PUSH20 0xFFFFFFFFFFFFFFFFFFFFFFFFFFFFFFFFFFFFFFFF AND MUL OR SWAP1 SSTORE POP DUP1 DUP3 PUSH20 0xFFFFFFFFFFFFFFFFFFFFFFFFFFFFFFFFFFFFFFFF AND DUP5 PUSH20 0xFFFFFFFFFFFFFFFFFFFFFFFFFFFFFFFFFFFFFFFF AND PUSH32 0xDDF252AD1BE2C89B69C2B068FC378DAA952BA7F163C4A11628F55A4DF523B3EF PUSH1 0x40 MLOAD PUSH1 0x40 MLOAD DUP1 SWAP2 SUB SWAP1 LOG4 PUSH2 0x23A1 DUP4 DUP4 DUP4 PUSH1 0x1 PUSH2 0x254D JUMP JUMPDEST POP POP POP JUMP JUMPDEST PUSH2 0x23AE PUSH2 0xB4D JUMP JUMPDEST PUSH2 0x23ED JUMPI PUSH1 0x40 MLOAD PUSH32 0x8C379A000000000000000000000000000000000000000000000000000000000 DUP2 MSTORE PUSH1 0x4 ADD PUSH2 0x23E4 SWAP1 PUSH2 0x4AE0 JUMP JUMPDEST PUSH1 0x40 MLOAD DUP1 SWAP2 SUB SWAP1 REVERT JUMPDEST JUMP JUMPDEST PUSH2 0x23FB DUP5 DUP5 DUP5 DUP5 PUSH2 0x2BFA JUMP JUMPDEST PUSH1 0x1 DUP2 GT ISZERO PUSH2 0x243F JUMPI PUSH1 0x40 MLOAD PUSH32 0x8C379A000000000000000000000000000000000000000000000000000000000 DUP2 MSTORE PUSH1 0x4 ADD PUSH2 0x2436 SWAP1 PUSH2 0x4B72 JUMP JUMPDEST PUSH1 0x40 MLOAD DUP1 SWAP2 SUB SWAP1 REVERT JUMPDEST PUSH1 0x0 DUP3 SWAP1 POP PUSH1 0x0 PUSH20 0xFFFFFFFFFFFFFFFFFFFFFFFFFFFFFFFFFFFFFFFF AND DUP6 PUSH20 0xFFFFFFFFFFFFFFFFFFFFFFFFFFFFFFFFFFFFFFFF AND SUB PUSH2 0x2486 JUMPI PUSH2 0x2481 DUP2 PUSH2 0x2C00 JUMP JUMPDEST PUSH2 0x24C5 JUMP JUMPDEST DUP4 PUSH20 0xFFFFFFFFFFFFFFFFFFFFFFFFFFFFFFFFFFFFFFFF AND DUP6 PUSH20 0xFFFFFFFFFFFFFFFFFFFFFFFFFFFFFFFFFFFFFFFF AND EQ PUSH2 0x24C4 JUMPI PUSH2 0x24C3 DUP6 DUP3 PUSH2 0x2C49 JUMP JUMPDEST JUMPDEST JUMPDEST PUSH1 0x0 PUSH20 0xFFFFFFFFFFFFFFFFFFFFFFFFFFFFFFFFFFFFFFFF AND DUP5 PUSH20 0xFFFFFFFFFFFFFFFFFFFFFFFFFFFFFFFFFFFFFFFF AND SUB PUSH2 0x2507 JUMPI PUSH2 0x2502 DUP2 PUSH2 0x2DB6 JUMP JUMPDEST PUSH2 0x2546 JUMP JUMPDEST DUP5 PUSH20 0xFFFFFFFFFFFFFFFFFFFFFFFFFFFFFFFFFFFFFFFF AND DUP5 PUSH20 0xFFFFFFFFFFFFFFFFFFFFFFFFFFFFFFFFFFFFFFFF AND EQ PUSH2 0x2545 JUMPI PUSH2 0x2544 DUP5 DUP3 PUSH2 0x2E87 JUMP JUMPDEST JUMPDEST JUMPDEST POP POP POP POP POP JUMP JUMPDEST POP POP POP POP JUMP JUMPDEST PUSH1 0x0 PUSH2 0x255D PUSH2 0x2F06 JUMP JUMPDEST DUP3 PUSH1 0x40 MLOAD PUSH1 0x20 ADD PUSH2 0x256F SWAP3 SWAP2 SWAP1 PUSH2 0x4BFF JUMP JUMPDEST PUSH1 0x40 MLOAD PUSH1 0x20 DUP2 DUP4 SUB SUB DUP2 MSTORE SWAP1 PUSH1 0x40 MSTORE DUP1 MLOAD SWAP1 PUSH1 0x20 ADD KECCAK256 SWAP1 POP SWAP2 SWAP1 POP JUMP JUMPDEST PUSH1 0x0 PUSH1 0x41 DUP3 MLOAD EQ PUSH2 0x25D2 JUMPI PUSH1 0x40 MLOAD PUSH32 0x8C379A000000000000000000000000000000000000000000000000000000000 DUP2 MSTORE PUSH1 0x4 ADD PUSH2 0x25C9 SWAP1 PUSH2 0x4C82 JUMP JUMPDEST PUSH1 0x40 MLOAD DUP1 SWAP2 SUB SWAP1 REVERT JUMPDEST PUSH1 0x0 DUP1 PUSH1 0x0 PUSH1 0x20 DUP6 ADD MLOAD SWAP3 POP PUSH1 0x40 DUP6 ADD MLOAD SWAP2 POP PUSH1 0x60 DUP6 ADD MLOAD PUSH1 0x0 BYTE SWAP1 POP PUSH2 0x25FB DUP7 DUP3 DUP6 DUP6 PUSH2 0x2F39 JUMP JUMPDEST SWAP4 POP POP POP POP SWAP3 SWAP2 POP POP JUMP JUMPDEST PUSH1 0x0 PUSH20 0xFFFFFFFFFFFFFFFFFFFFFFFFFFFFFFFFFFFFFFFF AND DUP3 PUSH20 0xFFFFFFFFFFFFFFFFFFFFFFFFFFFFFFFFFFFFFFFF AND SUB PUSH2 0x2675 JUMPI PUSH1 0x40 MLOAD PUSH32 0x8C379A000000000000000000000000000000000000000000000000000000000 DUP2 MSTORE PUSH1 0x4 ADD PUSH2 0x266C SWAP1 PUSH2 0x4CEE JUMP JUMPDEST PUSH1 0x40 MLOAD DUP1 SWAP2 SUB SWAP1 REVERT JUMPDEST PUSH2 0x267E DUP2 PUSH2 0x1E2A JUMP JUMPDEST ISZERO PUSH2 0x26BE JUMPI PUSH1 0x40 MLOAD PUSH32 0x8C379A000000000000000000000000000000000000000000000000000000000 DUP2 MSTORE PUSH1 0x4 ADD PUSH2 0x26B5 SWAP1 PUSH2 0x4D5A JUMP JUMPDEST PUSH1 0x40 MLOAD DUP1 SWAP2 SUB SWAP1 REVERT JUMPDEST PUSH2 0x26CC PUSH1 0x0 DUP4 DUP4 PUSH1 0x1 PUSH2 0x23EF JUMP JUMPDEST PUSH2 0x26D5 DUP2 PUSH2 0x1E2A JUMP JUMPDEST ISZERO PUSH2 0x2715 JUMPI PUSH1 0x40 MLOAD PUSH32 0x8C379A000000000000000000000000000000000000000000000000000000000 DUP2 MSTORE PUSH1 0x4 ADD PUSH2 0x270C SWAP1 PUSH2 0x4D5A JUMP JUMPDEST PUSH1 0x40 MLOAD DUP1 SWAP2 SUB SWAP1 REVERT JUMPDEST PUSH1 0x1 PUSH1 0xA PUSH1 0x0 DUP5 PUSH20 0xFFFFFFFFFFFFFFFFFFFFFFFFFFFFFFFFFFFFFFFF AND PUSH20 0xFFFFFFFFFFFFFFFFFFFFFFFFFFFFFFFFFFFFFFFF AND DUP2 MSTORE PUSH1 0x20 ADD SWAP1 DUP2 MSTORE PUSH1 0x20 ADD PUSH1 0x0 KECCAK256 PUSH1 0x0 DUP3 DUP3 SLOAD ADD SWAP3 POP POP DUP2 SWAP1 SSTORE POP DUP2 PUSH1 0x9 PUSH1 0x0 DUP4 DUP2 MSTORE PUSH1 0x20 ADD SWAP1 DUP2 MSTORE PUSH1 0x20 ADD PUSH1 0x0 KECCAK256 PUSH1 0x0 PUSH2 0x100 EXP DUP2 SLOAD DUP2 PUSH20 0xFFFFFFFFFFFFFFFFFFFFFFFFFFFFFFFFFFFFFFFF MUL NOT AND SWAP1 DUP4 PUSH20 0xFFFFFFFFFFFFFFFFFFFFFFFFFFFFFFFFFFFFFFFF AND MUL OR SWAP1 SSTORE POP DUP1 DUP3 PUSH20 0xFFFFFFFFFFFFFFFFFFFFFFFFFFFFFFFFFFFFFFFF AND PUSH1 0x0 PUSH20 0xFFFFFFFFFFFFFFFFFFFFFFFFFFFFFFFFFFFFFFFF AND PUSH32 0xDDF252AD1BE2C89B69C2B068FC378DAA952BA7F163C4A11628F55A4DF523B3EF PUSH1 0x40 MLOAD PUSH1 0x40 MLOAD DUP1 SWAP2 SUB SWAP1 LOG4 PUSH2 0x281F PUSH1 0x0 DUP4 DUP4 PUSH1 0x1 PUSH2 0x254D JUMP JUMPDEST POP POP JUMP JUMPDEST PUSH2 0x282B PUSH2 0xB4D JUMP JUMPDEST ISZERO PUSH2 0x286B JUMPI PUSH1 0x40 MLOAD PUSH32 0x8C379A000000000000000000000000000000000000000000000000000000000 DUP2 MSTORE PUSH1 0x4 ADD PUSH2 0x2862 SWAP1 PUSH2 0x4DC6 JUMP JUMPDEST PUSH1 0x40 MLOAD DUP1 SWAP2 SUB SWAP1 REVERT JUMPDEST JUMP JUMPDEST PUSH1 0x0 PUSH2 0x288E DUP5 PUSH20 0xFFFFFFFFFFFFFFFFFFFFFFFFFFFFFFFFFFFFFFFF AND PUSH2 0x30C3 JUMP JUMPDEST ISZERO PUSH2 0x29E7 JUMPI DUP4 PUSH20 0xFFFFFFFFFFFFFFFFFFFFFFFFFFFFFFFFFFFFFFFF AND PUSH4 0x150B7A02 PUSH2 0x28B7 PUSH2 0x1322 JUMP JUMPDEST DUP8 DUP7 DUP7 PUSH1 0x40 MLOAD DUP6 PUSH4 0xFFFFFFFF AND PUSH1 0xE0 SHL DUP2 MSTORE PUSH1 0x4 ADD PUSH2 0x28D9 SWAP5 SWAP4 SWAP3 SWAP2 SWAP1 PUSH2 0x4E3B JUMP JUMPDEST PUSH1 0x20 PUSH1 0x40 MLOAD DUP1 DUP4 SUB DUP2 PUSH1 0x0 DUP8 GAS CALL SWAP3 POP POP POP DUP1 ISZERO PUSH2 0x2915 JUMPI POP PUSH1 0x40 MLOAD RETURNDATASIZE PUSH1 0x1F NOT PUSH1 0x1F DUP3 ADD AND DUP3 ADD DUP1 PUSH1 0x40 MSTORE POP DUP2 ADD SWAP1 PUSH2 0x2912 SWAP2 SWAP1 PUSH2 0x4E9C JUMP JUMPDEST PUSH1 0x1 JUMPDEST PUSH2 0x2997 JUMPI RETURNDATASIZE DUP1 PUSH1 0x0 DUP2 EQ PUSH2 0x2945 JUMPI PUSH1 0x40 MLOAD SWAP2 POP PUSH1 0x1F NOT PUSH1 0x3F RETURNDATASIZE ADD AND DUP3 ADD PUSH1 0x40 MSTORE RETURNDATASIZE DUP3 MSTORE RETURNDATASIZE PUSH1 0x0 PUSH1 0x20 DUP5 ADD RETURNDATACOPY PUSH2 0x294A JUMP JUMPDEST PUSH1 0x60 SWAP2 POP JUMPDEST POP PUSH1 0x0 DUP2 MLOAD SUB PUSH2 0x298F JUMPI PUSH1 0x40 MLOAD PUSH32 0x8C379A000000000000000000000000000000000000000000000000000000000 DUP2 MSTORE PUSH1 0x4 ADD PUSH2 0x2986 SWAP1 PUSH2 0x488F JUMP JUMPDEST PUSH1 0x40 MLOAD DUP1 SWAP2 SUB SWAP1 REVERT JUMPDEST DUP1 MLOAD DUP2 PUSH1 0x20 ADD REVERT JUMPDEST PUSH4 0x150B7A02 PUSH1 0xE0 SHL PUSH28 0xFFFFFFFFFFFFFFFFFFFFFFFFFFFFFFFFFFFFFFFFFFFFFFFFFFFFFFFF NOT AND DUP2 PUSH28 0xFFFFFFFFFFFFFFFFFFFFFFFFFFFFFFFFFFFFFFFFFFFFFFFFFFFFFFFF NOT AND EQ SWAP2 POP POP PUSH2 0x29EC JUMP JUMPDEST PUSH1 0x1 SWAP1 POP JUMPDEST SWAP5 SWAP4 POP POP POP POP JUMP JUMPDEST PUSH1 0x0 CHAINID SWAP1 POP SWAP1 JUMP JUMPDEST PUSH1 0x0 DUP4 DUP4 DUP4 PUSH2 0x2A09 PUSH2 0x29F4 JUMP JUMPDEST ADDRESS PUSH1 0x40 MLOAD PUSH1 0x20 ADD PUSH2 0x2A1E SWAP6 SWAP5 SWAP4 SWAP3 SWAP2 SWAP1 PUSH2 0x4EC9 JUMP JUMPDEST PUSH1 0x40 MLOAD PUSH1 0x20 DUP2 DUP4 SUB SUB DUP2 MSTORE SWAP1 PUSH1 0x40 MSTORE DUP1 MLOAD SWAP1 PUSH1 0x20 ADD KECCAK256 SWAP1 POP SWAP4 SWAP3 POP POP POP JUMP JUMPDEST PUSH1 0x0 DUP1 PUSH1 0x0 SWAP1 POP PUSH27 0x184F03E93FF9F4DAA797ED6E38ED64BF6A1F010000000000000000 DUP4 LT PUSH2 0x2A9B JUMPI PUSH27 0x184F03E93FF9F4DAA797ED6E38ED64BF6A1F010000000000000000 DUP4 DUP2 PUSH2 0x2A91 JUMPI PUSH2 0x2A90 PUSH2 0x4941 JUMP JUMPDEST JUMPDEST DIV SWAP3 POP PUSH1 0x40 DUP2 ADD SWAP1 POP JUMPDEST PUSH14 0x4EE2D6D415B85ACEF8100000000 DUP4 LT PUSH2 0x2AD8 JUMPI PUSH14 0x4EE2D6D415B85ACEF8100000000 DUP4 DUP2 PUSH2 0x2ACE JUMPI PUSH2 0x2ACD PUSH2 0x4941 JUMP JUMPDEST JUMPDEST DIV SWAP3 POP PUSH1 0x20 DUP2 ADD SWAP1 POP JUMPDEST PUSH7 0x2386F26FC10000 DUP4 LT PUSH2 0x2B07 JUMPI PUSH7 0x2386F26FC10000 DUP4 DUP2 PUSH2 0x2AFD JUMPI PUSH2 0x2AFC PUSH2 0x4941 JUMP JUMPDEST JUMPDEST DIV SWAP3 POP PUSH1 0x10 DUP2 ADD SWAP1 POP JUMPDEST PUSH4 0x5F5E100 DUP4 LT PUSH2 0x2B30 JUMPI PUSH4 0x5F5E100 DUP4 DUP2 PUSH2 0x2B26 JUMPI PUSH2 0x2B25 PUSH2 0x4941 JUMP JUMPDEST JUMPDEST DIV SWAP3 POP PUSH1 0x8 DUP2 ADD SWAP1 POP JUMPDEST PUSH2 0x2710 DUP4 LT PUSH2 0x2B55 JUMPI PUSH2 0x2710 DUP4 DUP2 PUSH2 0x2B4B JUMPI PUSH2 0x2B4A PUSH2 0x4941 JUMP JUMPDEST JUMPDEST DIV SWAP3 POP PUSH1 0x4 DUP2 ADD SWAP1 POP JUMPDEST PUSH1 0x64 DUP4 LT PUSH2 0x2B78 JUMPI PUSH1 0x64 DUP4 DUP2 PUSH2 0x2B6E JUMPI PUSH2 0x2B6D PUSH2 0x4941 JUMP JUMPDEST JUMPDEST DIV SWAP3 POP PUSH1 0x2 DUP2 ADD SWAP1 POP JUMPDEST PUSH1 0xA DUP4 LT PUSH2 0x2B87 JUMPI PUSH1 0x1 DUP2 ADD SWAP1 POP JUMPDEST DUP1 SWAP2 POP POP SWAP2 SWAP1 POP JUMP JUMPDEST PUSH1 0x0 PUSH32 0x1FFC9A700000000000000000000000000000000000000000000000000000000 PUSH28 0xFFFFFFFFFFFFFFFFFFFFFFFFFFFFFFFFFFFFFFFFFFFFFFFFFFFFFFFF NOT AND DUP3 PUSH28 0xFFFFFFFFFFFFFFFFFFFFFFFFFFFFFFFFFFFFFFFFFFFFFFFFFFFFFFFF NOT AND EQ SWAP1 POP SWAP2 SWAP1 POP JUMP JUMPDEST POP POP POP POP JUMP JUMPDEST PUSH1 0xF DUP1 SLOAD SWAP1 POP PUSH1 0x10 PUSH1 0x0 DUP4 DUP2 MSTORE PUSH1 0x20 ADD SWAP1 DUP2 MSTORE PUSH1 0x20 ADD PUSH1 0x0 KECCAK256 DUP2 SWAP1 SSTORE POP PUSH1 0xF DUP2 SWAP1 DUP1 PUSH1 0x1 DUP2 SLOAD ADD DUP1 DUP3 SSTORE DUP1 SWAP2 POP POP PUSH1 0x1 SWAP1 SUB SWAP1 PUSH1 0x0 MSTORE PUSH1 0x20 PUSH1 0x0 KECCAK256 ADD PUSH1 0x0 SWAP1 SWAP2 SWAP1 SWAP2 SWAP1 SWAP2 POP SSTORE POP JUMP JUMPDEST PUSH1 0x0 PUSH1 0x1 PUSH2 0x2C56 DUP5 PUSH2 0xBEA JUMP JUMPDEST PUSH2 0x2C60 SWAP2 SWAP1 PUSH2 0x4F1C JUMP JUMPDEST SWAP1 POP PUSH1 0x0 PUSH1 0xE PUSH1 0x0 DUP5 DUP2 MSTORE PUSH1 0x20 ADD SWAP1 DUP2 MSTORE PUSH1 0x20 ADD PUSH1 0x0 KECCAK256 SLOAD SWAP1 POP DUP2 DUP2 EQ PUSH2 0x2D45 JUMPI PUSH1 0x0 PUSH1 0xD PUSH1 0x0 DUP7 PUSH20 0xFFFFFFFFFFFFFFFFFFFFFFFFFFFFFFFFFFFFFFFF AND PUSH20 0xFFFFFFFFFFFFFFFFFFFFFFFFFFFFFFFFFFFFFFFF AND DUP2 MSTORE PUSH1 0x20 ADD SWAP1 DUP2 MSTORE PUSH1 0x20 ADD PUSH1 0x0 KECCAK256 PUSH1 0x0 DUP5 DUP2 MSTORE PUSH1 0x20 ADD SWAP1 DUP2 MSTORE PUSH1 0x20 ADD PUSH1 0x0 KECCAK256 SLOAD SWAP1 POP DUP1 PUSH1 0xD PUSH1 0x0 DUP8 PUSH20 0xFFFFFFFFFFFFFFFFFFFFFFFFFFFFFFFFFFFFFFFF AND PUSH20 0xFFFFFFFFFFFFFFFFFFFFFFFFFFFFFFFFFFFFFFFF AND DUP2 MSTORE PUSH1 0x20 ADD SWAP1 DUP2 MSTORE PUSH1 0x20 ADD PUSH1 0x0 KECCAK256 PUSH1 0x0 DUP5 DUP2 MSTORE PUSH1 0x20 ADD SWAP1 DUP2 MSTORE PUSH1 0x20 ADD PUSH1 0x0 KECCAK256 DUP2 SWAP1 SSTORE POP DUP2 PUSH1 0xE PUSH1 0x0 DUP4 DUP2 MSTORE PUSH1 0x20 ADD SWAP1 DUP2 MSTORE PUSH1 0x20 ADD PUSH1 0x0 KECCAK256 DUP2 SWAP1 SSTORE POP POP JUMPDEST PUSH1 0xE PUSH1 0x0 DUP5 DUP2 MSTORE PUSH1 0x20 ADD SWAP1 DUP2 MSTORE PUSH1 0x20 ADD PUSH1 0x0 KECCAK256 PUSH1 0x0 SWAP1 SSTORE PUSH1 0xD PUSH1 0x0 DUP6 PUSH20 0xFFFFFFFFFFFFFFFFFFFFFFFFFFFFFFFFFFFFFFFF AND PUSH20 0xFFFFFFFFFFFFFFFFFFFFFFFFFFFFFFFFFFFFFFFF AND DUP2 MSTORE PUSH1 0x20 ADD SWAP1 DUP2 MSTORE PUSH1 0x20 ADD PUSH1 0x0 KECCAK256 PUSH1 0x0 DUP4 DUP2 MSTORE PUSH1 0x20 ADD SWAP1 DUP2 MSTORE PUSH1 0x20 ADD PUSH1 0x0 KECCAK256 PUSH1 0x0 SWAP1 SSTORE POP POP POP POP JUMP JUMPDEST PUSH1 0x0 PUSH1 0x1 PUSH1 0xF DUP1 SLOAD SWAP1 POP PUSH2 0x2DCA SWAP2 SWAP1 PUSH2 0x4F1C JUMP JUMPDEST SWAP1 POP PUSH1 0x0 PUSH1 0x10 PUSH1 0x0 DUP5 DUP2 MSTORE PUSH1 0x20 ADD SWAP1 DUP2 MSTORE PUSH1 0x20 ADD PUSH1 0x0 KECCAK256 SLOAD SWAP1 POP PUSH1 0x0 PUSH1 0xF DUP4 DUP2 SLOAD DUP2 LT PUSH2 0x2DFA JUMPI PUSH2 0x2DF9 PUSH2 0x3CF9 JUMP JUMPDEST JUMPDEST SWAP1 PUSH1 0x0 MSTORE PUSH1 0x20 PUSH1 0x0 KECCAK256 ADD SLOAD SWAP1 POP DUP1 PUSH1 0xF DUP4 DUP2 SLOAD DUP2 LT PUSH2 0x2E1C JUMPI PUSH2 0x2E1B PUSH2 0x3CF9 JUMP JUMPDEST JUMPDEST SWAP1 PUSH1 0x0 MSTORE PUSH1 0x20 PUSH1 0x0 KECCAK256 ADD DUP2 SWAP1 SSTORE POP DUP2 PUSH1 0x10 PUSH1 0x0 DUP4 DUP2 MSTORE PUSH1 0x20 ADD SWAP1 DUP2 MSTORE PUSH1 0x20 ADD PUSH1 0x0 KECCAK256 DUP2 SWAP1 SSTORE POP PUSH1 0x10 PUSH1 0x0 DUP6 DUP2 MSTORE PUSH1 0x20 ADD SWAP1 DUP2 MSTORE PUSH1 0x20 ADD PUSH1 0x0 KECCAK256 PUSH1 0x0 SWAP1 SSTORE PUSH1 0xF DUP1 SLOAD DUP1 PUSH2 0x2E6B JUMPI PUSH2 0x2E6A PUSH2 0x4F50 JUMP JUMPDEST JUMPDEST PUSH1 0x1 SWAP1 SUB DUP2 DUP2 SWAP1 PUSH1 0x0 MSTORE PUSH1 0x20 PUSH1 0x0 KECCAK256 ADD PUSH1 0x0 SWAP1 SSTORE SWAP1 SSTORE POP POP POP POP JUMP JUMPDEST PUSH1 0x0 PUSH2 0x2E92 DUP4 PUSH2 0xBEA JUMP JUMPDEST SWAP1 POP DUP2 PUSH1 0xD PUSH1 0x0 DUP6 PUSH20 0xFFFFFFFFFFFFFFFFFFFFFFFFFFFFFFFFFFFFFFFF AND PUSH20 0xFFFFFFFFFFFFFFFFFFFFFFFFFFFFFFFFFFFFFFFF AND DUP2 MSTORE PUSH1 0x20 ADD SWAP1 DUP2 MSTORE PUSH1 0x20 ADD PUSH1 0x0 KECCAK256 PUSH1 0x0 DUP4 DUP2 MSTORE PUSH1 0x20 ADD SWAP1 DUP2 MSTORE PUSH1 0x20 ADD PUSH1 0x0 KECCAK256 DUP2 SWAP1 SSTORE POP DUP1 PUSH1 0xE PUSH1 0x0 DUP5 DUP2 MSTORE PUSH1 0x20 ADD SWAP1 DUP2 MSTORE PUSH1 0x20 ADD PUSH1 0x0 KECCAK256 DUP2 SWAP1 SSTORE POP POP POP POP JUMP JUMPDEST PUSH1 0x0 PUSH1 0x2 SLOAD PUSH2 0x2F13 PUSH2 0x29F4 JUMP JUMPDEST SUB PUSH2 0x2F22 JUMPI PUSH1 0x1 SLOAD SWAP1 POP PUSH2 0x2F36 JUMP JUMPDEST PUSH2 0x2F33 PUSH1 0x5 SLOAD PUSH1 0x3 SLOAD PUSH1 0x4 SLOAD PUSH2 0x29FC JUMP JUMPDEST SWAP1 POP JUMPDEST SWAP1 JUMP JUMPDEST PUSH1 0x0 PUSH32 0x7FFFFFFFFFFFFFFFFFFFFFFFFFFFFFFF5D576E7357A4501DDFE92F46681B20A0 DUP3 PUSH1 0x0 SHR GT ISZERO PUSH2 0x2FA1 JUMPI PUSH1 0x40 MLOAD PUSH32 0x8C379A000000000000000000000000000000000000000000000000000000000 DUP2 MSTORE PUSH1 0x4 ADD PUSH2 0x2F98 SWAP1 PUSH2 0x4FF1 JUMP JUMPDEST PUSH1 0x40 MLOAD DUP1 SWAP2 SUB SWAP1 REVERT JUMPDEST PUSH1 0x1B DUP5 PUSH1 0xFF AND EQ DUP1 PUSH2 0x2FB6 JUMPI POP PUSH1 0x1C DUP5 PUSH1 0xFF AND EQ JUMPDEST PUSH2 0x2FF5 JUMPI PUSH1 0x40 MLOAD PUSH32 0x8C379A000000000000000000000000000000000000000000000000000000000 DUP2 MSTORE PUSH1 0x4 ADD PUSH2 0x2FEC SWAP1 PUSH2 0x5083 JUMP JUMPDEST PUSH1 0x40 MLOAD DUP1 SWAP2 SUB SWAP1 REVERT JUMPDEST PUSH1 0x0 PUSH1 0x1 DUP7 DUP7 DUP7 DUP7 PUSH1 0x40 MLOAD PUSH1 0x0 DUP2 MSTORE PUSH1 0x20 ADD PUSH1 0x40 MSTORE PUSH1 0x40 MLOAD PUSH2 0x301A SWAP5 SWAP4 SWAP3 SWAP2 SWAP1 PUSH2 0x50BF JUMP JUMPDEST PUSH1 0x20 PUSH1 0x40 MLOAD PUSH1 0x20 DUP2 SUB SWAP1 DUP1 DUP5 SUB SWAP1 DUP6 GAS STATICCALL ISZERO DUP1 ISZERO PUSH2 0x303C JUMPI RETURNDATASIZE PUSH1 0x0 DUP1 RETURNDATACOPY RETURNDATASIZE PUSH1 0x0 REVERT JUMPDEST POP POP POP PUSH1 0x20 PUSH1 0x40 MLOAD SUB MLOAD SWAP1 POP PUSH1 0x0 PUSH20 0xFFFFFFFFFFFFFFFFFFFFFFFFFFFFFFFFFFFFFFFF AND DUP2 PUSH20 0xFFFFFFFFFFFFFFFFFFFFFFFFFFFFFFFFFFFFFFFF AND SUB PUSH2 0x30B7 JUMPI PUSH1 0x40 MLOAD PUSH32 0x8C379A000000000000000000000000000000000000000000000000000000000 DUP2 MSTORE PUSH1 0x4 ADD PUSH2 0x30AE SWAP1 PUSH2 0x5150 JUMP JUMPDEST PUSH1 0x40 MLOAD DUP1 SWAP2 SUB SWAP1 REVERT JUMPDEST DUP1 SWAP2 POP POP SWAP5 SWAP4 POP POP POP POP JUMP JUMPDEST PUSH1 0x0 DUP1 DUP3 PUSH20 0xFFFFFFFFFFFFFFFFFFFFFFFFFFFFFFFFFFFFFFFF AND EXTCODESIZE GT SWAP1 POP SWAP2 SWAP1 POP JUMP JUMPDEST PUSH1 0x40 MLOAD DUP1 PUSH1 0x80 ADD PUSH1 0x40 MSTORE DUP1 PUSH1 0x0 DUP2 MSTORE PUSH1 0x20 ADD PUSH1 0x0 DUP2 MSTORE PUSH1 0x20 ADD PUSH1 0x0 PUSH20 0xFFFFFFFFFFFFFFFFFFFFFFFFFFFFFFFFFFFFFFFF AND DUP2 MSTORE PUSH1 0x20 ADD PUSH1 0x0 ISZERO ISZERO DUP2 MSTORE POP SWAP1 JUMP JUMPDEST PUSH1 0x0 PUSH1 0x40 MLOAD SWAP1 POP SWAP1 JUMP JUMPDEST PUSH1 0x0 DUP1 REVERT JUMPDEST PUSH1 0x0 DUP1 REVERT JUMPDEST PUSH1 0x0 PUSH32 0xFFFFFFFF00000000000000000000000000000000000000000000000000000000 DUP3 AND SWAP1 POP SWAP2 SWAP1 POP JUMP JUMPDEST PUSH2 0x316F DUP2 PUSH2 0x313A JUMP JUMPDEST DUP2 EQ PUSH2 0x317A JUMPI PUSH1 0x0 DUP1 REVERT JUMPDEST POP JUMP JUMPDEST PUSH1 0x0 DUP2 CALLDATALOAD SWAP1 POP PUSH2 0x318C DUP2 PUSH2 0x3166 JUMP JUMPDEST SWAP3 SWAP2 POP POP JUMP JUMPDEST PUSH1 0x0 PUSH1 0x20 DUP3 DUP5 SUB SLT ISZERO PUSH2 0x31A8 JUMPI PUSH2 0x31A7 PUSH2 0x3130 JUMP JUMPDEST JUMPDEST PUSH1 0x0 PUSH2 0x31B6 DUP5 DUP3 DUP6 ADD PUSH2 0x317D JUMP JUMPDEST SWAP2 POP POP SWAP3 SWAP2 POP POP JUMP JUMPDEST PUSH1 0x0 DUP2 ISZERO ISZERO SWAP1 POP SWAP2 SWAP1 POP JUMP JUMPDEST PUSH2 0x31D4 DUP2 PUSH2 0x31BF JUMP JUMPDEST DUP3 MSTORE POP POP JUMP JUMPDEST PUSH1 0x0 PUSH1 0x20 DUP3 ADD SWAP1 POP PUSH2 0x31EF PUSH1 0x0 DUP4 ADD DUP5 PUSH2 0x31CB JUMP JUMPDEST SWAP3 SWAP2 POP POP JUMP JUMPDEST PUSH1 0x0 DUP2 MLOAD SWAP1 POP SWAP2 SWAP1 POP JUMP JUMPDEST PUSH1 0x0 DUP3 DUP3 MSTORE PUSH1 0x20 DUP3 ADD SWAP1 POP SWAP3 SWAP2 POP POP JUMP JUMPDEST PUSH1 0x0 JUMPDEST DUP4 DUP2 LT ISZERO PUSH2 0x322F JUMPI DUP1 DUP3 ADD MLOAD DUP2 DUP5 ADD MSTORE PUSH1 0x20 DUP2 ADD SWAP1 POP PUSH2 0x3214 JUMP JUMPDEST PUSH1 0x0 DUP5 DUP5 ADD MSTORE POP POP POP POP JUMP JUMPDEST PUSH1 0x0 PUSH1 0x1F NOT PUSH1 0x1F DUP4 ADD AND SWAP1 POP SWAP2 SWAP1 POP JUMP JUMPDEST PUSH1 0x0 PUSH2 0x3257 DUP3 PUSH2 0x31F5 JUMP JUMPDEST PUSH2 0x3261 DUP2 DUP6 PUSH2 0x3200 JUMP JUMPDEST SWAP4 POP PUSH2 0x3271 DUP2 DUP6 PUSH1 0x20 DUP7 ADD PUSH2 0x3211 JUMP JUMPDEST PUSH2 0x327A DUP2 PUSH2 0x323B JUMP JUMPDEST DUP5 ADD SWAP2 POP POP SWAP3 SWAP2 POP POP JUMP JUMPDEST PUSH1 0x0 PUSH1 0x20 DUP3 ADD SWAP1 POP DUP2 DUP2 SUB PUSH1 0x0 DUP4 ADD MSTORE PUSH2 0x329F DUP2 DUP5 PUSH2 0x324C JUMP JUMPDEST SWAP1 POP SWAP3 SWAP2 POP POP JUMP JUMPDEST PUSH1 0x0 DUP2 SWAP1 POP SWAP2 SWAP1 POP JUMP JUMPDEST PUSH2 0x32BA DUP2 PUSH2 0x32A7 JUMP JUMPDEST DUP2 EQ PUSH2 0x32C5 JUMPI PUSH1 0x0 DUP1 REVERT JUMPDEST POP JUMP JUMPDEST PUSH1 0x0 DUP2 CALLDATALOAD SWAP1 POP PUSH2 0x32D7 DUP2 PUSH2 0x32B1 JUMP JUMPDEST SWAP3 SWAP2 POP POP JUMP JUMPDEST PUSH1 0x0 PUSH1 0x20 DUP3 DUP5 SUB SLT ISZERO PUSH2 0x32F3 JUMPI PUSH2 0x32F2 PUSH2 0x3130 JUMP JUMPDEST JUMPDEST PUSH1 0x0 PUSH2 0x3301 DUP5 DUP3 DUP6 ADD PUSH2 0x32C8 JUMP JUMPDEST SWAP2 POP POP SWAP3 SWAP2 POP POP JUMP JUMPDEST PUSH1 0x0 PUSH20 0xFFFFFFFFFFFFFFFFFFFFFFFFFFFFFFFFFFFFFFFF DUP3 AND SWAP1 POP SWAP2 SWAP1 POP JUMP JUMPDEST PUSH1 0x0 PUSH2 0x3335 DUP3 PUSH2 0x330A JUMP JUMPDEST SWAP1 POP SWAP2 SWAP1 POP JUMP JUMPDEST PUSH2 0x3345 DUP2 PUSH2 0x332A JUMP JUMPDEST DUP3 MSTORE POP POP JUMP JUMPDEST PUSH1 0x0 PUSH1 0x20 DUP3 ADD SWAP1 POP PUSH2 0x3360 PUSH1 0x0 DUP4 ADD DUP5 PUSH2 0x333C JUMP JUMPDEST SWAP3 SWAP2 POP POP JUMP JUMPDEST PUSH2 0x336F DUP2 PUSH2 0x332A JUMP JUMPDEST DUP2 EQ PUSH2 0x337A JUMPI PUSH1 0x0 DUP1 REVERT JUMPDEST POP JUMP JUMPDEST PUSH1 0x0 DUP2 CALLDATALOAD SWAP1 POP PUSH2 0x338C DUP2 PUSH2 0x3366 JUMP JUMPDEST SWAP3 SWAP2 POP POP JUMP JUMPDEST PUSH1 0x0 DUP1 PUSH1 0x40 DUP4 DUP6 SUB SLT ISZERO PUSH2 0x33A9 JUMPI PUSH2 0x33A8 PUSH2 0x3130 JUMP JUMPDEST JUMPDEST PUSH1 0x0 PUSH2 0x33B7 DUP6 DUP3 DUP7 ADD PUSH2 0x337D JUMP JUMPDEST SWAP3 POP POP PUSH1 0x20 PUSH2 0x33C8 DUP6 DUP3 DUP7 ADD PUSH2 0x32C8 JUMP JUMPDEST SWAP2 POP POP SWAP3 POP SWAP3 SWAP1 POP JUMP JUMPDEST PUSH2 0x33DB DUP2 PUSH2 0x32A7 JUMP JUMPDEST DUP3 MSTORE POP POP JUMP JUMPDEST PUSH1 0x0 PUSH1 0x20 DUP3 ADD SWAP1 POP PUSH2 0x33F6 PUSH1 0x0 DUP4 ADD DUP5 PUSH2 0x33D2 JUMP JUMPDEST SWAP3 SWAP2 POP POP JUMP JUMPDEST PUSH1 0x0 DUP1 PUSH1 0x0 PUSH1 0x60 DUP5 DUP7 SUB SLT ISZERO PUSH2 0x3415 JUMPI PUSH2 0x3414 PUSH2 0x3130 JUMP JUMPDEST JUMPDEST PUSH1 0x0 PUSH2 0x3423 DUP7 DUP3 DUP8 ADD PUSH2 0x337D JUMP JUMPDEST SWAP4 POP POP PUSH1 0x20 PUSH2 0x3434 DUP7 DUP3 DUP8 ADD PUSH2 0x337D JUMP JUMPDEST SWAP3 POP POP PUSH1 0x40 PUSH2 0x3445 DUP7 DUP3 DUP8 ADD PUSH2 0x32C8 JUMP JUMPDEST SWAP2 POP POP SWAP3 POP SWAP3 POP SWAP3 JUMP JUMPDEST PUSH2 0x3458 DUP2 PUSH2 0x31BF JUMP JUMPDEST DUP2 EQ PUSH2 0x3463 JUMPI PUSH1 0x0 DUP1 REVERT JUMPDEST POP JUMP JUMPDEST PUSH1 0x0 DUP2 CALLDATALOAD SWAP1 POP PUSH2 0x3475 DUP2 PUSH2 0x344F JUMP JUMPDEST SWAP3 SWAP2 POP POP JUMP JUMPDEST PUSH1 0x0 DUP1 REVERT JUMPDEST PUSH1 0x0 DUP1 REVERT JUMPDEST PUSH1 0x0 DUP1 REVERT JUMPDEST PUSH1 0x0 DUP1 DUP4 PUSH1 0x1F DUP5 ADD SLT PUSH2 0x34A0 JUMPI PUSH2 0x349F PUSH2 0x347B JUMP JUMPDEST JUMPDEST DUP3 CALLDATALOAD SWAP1 POP PUSH8 0xFFFFFFFFFFFFFFFF DUP2 GT ISZERO PUSH2 0x34BD JUMPI PUSH2 0x34BC PUSH2 0x3480 JUMP JUMPDEST JUMPDEST PUSH1 0x20 DUP4 ADD SWAP2 POP DUP4 PUSH1 0x1 DUP3 MUL DUP4 ADD GT ISZERO PUSH2 0x34D9 JUMPI PUSH2 0x34D8 PUSH2 0x3485 JUMP JUMPDEST JUMPDEST SWAP3 POP SWAP3 SWAP1 POP JUMP JUMPDEST PUSH1 0x0 DUP1 PUSH1 0x0 DUP1 PUSH1 0x0 DUP1 PUSH1 0x0 PUSH1 0xC0 DUP9 DUP11 SUB SLT ISZERO PUSH2 0x34FF JUMPI PUSH2 0x34FE PUSH2 0x3130 JUMP JUMPDEST JUMPDEST PUSH1 0x0 PUSH2 0x350D DUP11 DUP3 DUP12 ADD PUSH2 0x32C8 JUMP JUMPDEST SWAP8 POP POP PUSH1 0x20 PUSH2 0x351E DUP11 DUP3 DUP12 ADD PUSH2 0x32C8 JUMP JUMPDEST SWAP7 POP POP PUSH1 0x40 PUSH2 0x352F DUP11 DUP3 DUP12 ADD PUSH2 0x32C8 JUMP JUMPDEST SWAP6 POP POP PUSH1 0x60 PUSH2 0x3540 DUP11 DUP3 DUP12 ADD PUSH2 0x337D JUMP JUMPDEST SWAP5 POP POP PUSH1 0x80 PUSH2 0x3551 DUP11 DUP3 DUP12 ADD PUSH2 0x3466 JUMP JUMPDEST SWAP4 POP POP PUSH1 0xA0 DUP9 ADD CALLDATALOAD PUSH8 0xFFFFFFFFFFFFFFFF DUP2 GT ISZERO PUSH2 0x3572 JUMPI PUSH2 0x3571 PUSH2 0x3135 JUMP JUMPDEST JUMPDEST PUSH2 0x357E DUP11 DUP3 DUP12 ADD PUSH2 0x348A JUMP JUMPDEST SWAP3 POP SWAP3 POP POP SWAP3 SWAP6 SWAP9 SWAP2 SWAP5 SWAP8 POP SWAP3 SWAP6 POP JUMP JUMPDEST PUSH1 0x0 PUSH1 0x20 DUP3 DUP5 SUB SLT ISZERO PUSH2 0x35A5 JUMPI PUSH2 0x35A4 PUSH2 0x3130 JUMP JUMPDEST JUMPDEST PUSH1 0x0 PUSH2 0x35B3 DUP5 DUP3 DUP6 ADD PUSH2 0x337D JUMP JUMPDEST SWAP2 POP POP SWAP3 SWAP2 POP POP JUMP JUMPDEST PUSH1 0x0 DUP1 PUSH1 0x40 DUP4 DUP6 SUB SLT ISZERO PUSH2 0x35D3 JUMPI PUSH2 0x35D2 PUSH2 0x3130 JUMP JUMPDEST JUMPDEST PUSH1 0x0 PUSH2 0x35E1 DUP6 DUP3 DUP7 ADD PUSH2 0x337D JUMP JUMPDEST SWAP3 POP POP PUSH1 0x20 PUSH2 0x35F2 DUP6 DUP3 DUP7 ADD PUSH2 0x3466 JUMP JUMPDEST SWAP2 POP POP SWAP3 POP SWAP3 SWAP1 POP JUMP JUMPDEST PUSH1 0x0 DUP1 REVERT JUMPDEST PUSH32 0x4E487B7100000000000000000000000000000000000000000000000000000000 PUSH1 0x0 MSTORE PUSH1 0x41 PUSH1 0x4 MSTORE PUSH1 0x24 PUSH1 0x0 REVERT JUMPDEST PUSH2 0x3639 DUP3 PUSH2 0x323B JUMP JUMPDEST DUP2 ADD DUP2 DUP2 LT PUSH8 0xFFFFFFFFFFFFFFFF DUP3 GT OR ISZERO PUSH2 0x3658 JUMPI PUSH2 0x3657 PUSH2 0x3601 JUMP JUMPDEST JUMPDEST DUP1 PUSH1 0x40 MSTORE POP POP POP JUMP JUMPDEST PUSH1 0x0 PUSH2 0x366B PUSH2 0x3126 JUMP JUMPDEST SWAP1 POP PUSH2 0x3677 DUP3 DUP3 PUSH2 0x3630 JUMP JUMPDEST SWAP2 SWAP1 POP JUMP JUMPDEST PUSH1 0x0 PUSH8 0xFFFFFFFFFFFFFFFF DUP3 GT ISZERO PUSH2 0x3697 JUMPI PUSH2 0x3696 PUSH2 0x3601 JUMP JUMPDEST JUMPDEST PUSH2 0x36A0 DUP3 PUSH2 0x323B JUMP JUMPDEST SWAP1 POP PUSH1 0x20 DUP2 ADD SWAP1 POP SWAP2 SWAP1 POP JUMP JUMPDEST DUP3 DUP2 DUP4 CALLDATACOPY PUSH1 0x0 DUP4 DUP4 ADD MSTORE POP POP POP JUMP JUMPDEST PUSH1 0x0 PUSH2 0x36CF PUSH2 0x36CA DUP5 PUSH2 0x367C JUMP JUMPDEST PUSH2 0x3661 JUMP JUMPDEST SWAP1 POP DUP3 DUP2 MSTORE PUSH1 0x20 DUP2 ADD DUP5 DUP5 DUP5 ADD GT ISZERO PUSH2 0x36EB JUMPI PUSH2 0x36EA PUSH2 0x35FC JUMP JUMPDEST JUMPDEST PUSH2 0x36F6 DUP5 DUP3 DUP6 PUSH2 0x36AD JUMP JUMPDEST POP SWAP4 SWAP3 POP POP POP JUMP JUMPDEST PUSH1 0x0 DUP3 PUSH1 0x1F DUP4 ADD SLT PUSH2 0x3713 JUMPI PUSH2 0x3712 PUSH2 0x347B JUMP JUMPDEST JUMPDEST DUP2 CALLDATALOAD PUSH2 0x3723 DUP5 DUP3 PUSH1 0x20 DUP7 ADD PUSH2 0x36BC JUMP JUMPDEST SWAP2 POP POP SWAP3 SWAP2 POP POP JUMP JUMPDEST PUSH1 0x0 DUP1 PUSH1 0x0 DUP1 PUSH1 0x80 DUP6 DUP8 SUB SLT ISZERO PUSH2 0x3746 JUMPI PUSH2 0x3745 PUSH2 0x3130 JUMP JUMPDEST JUMPDEST PUSH1 0x0 PUSH2 0x3754 DUP8 DUP3 DUP9 ADD PUSH2 0x337D JUMP JUMPDEST SWAP5 POP POP PUSH1 0x20 PUSH2 0x3765 DUP8 DUP3 DUP9 ADD PUSH2 0x337D JUMP JUMPDEST SWAP4 POP POP PUSH1 0x40 PUSH2 0x3776 DUP8 DUP3 DUP9 ADD PUSH2 0x32C8 JUMP JUMPDEST SWAP3 POP POP PUSH1 0x60 DUP6 ADD CALLDATALOAD PUSH8 0xFFFFFFFFFFFFFFFF DUP2 GT ISZERO PUSH2 0x3797 JUMPI PUSH2 0x3796 PUSH2 0x3135 JUMP JUMPDEST JUMPDEST PUSH2 0x37A3 DUP8 DUP3 DUP9 ADD PUSH2 0x36FE JUMP JUMPDEST SWAP2 POP POP SWAP3 SWAP6 SWAP2 SWAP5 POP SWAP3 POP JUMP JUMPDEST PUSH1 0x0 PUSH8 0xFFFFFFFFFFFFFFFF DUP3 GT ISZERO PUSH2 0x37CA JUMPI PUSH2 0x37C9 PUSH2 0x3601 JUMP JUMPDEST JUMPDEST PUSH2 0x37D3 DUP3 PUSH2 0x323B JUMP JUMPDEST SWAP1 POP PUSH1 0x20 DUP2 ADD SWAP1 POP SWAP2 SWAP1 POP JUMP JUMPDEST PUSH1 0x0 PUSH2 0x37F3 PUSH2 0x37EE DUP5 PUSH2 0x37AF JUMP JUMPDEST PUSH2 0x3661 JUMP JUMPDEST SWAP1 POP DUP3 DUP2 MSTORE PUSH1 0x20 DUP2 ADD DUP5 DUP5 DUP5 ADD GT ISZERO PUSH2 0x380F JUMPI PUSH2 0x380E PUSH2 0x35FC JUMP JUMPDEST JUMPDEST PUSH2 0x381A DUP5 DUP3 DUP6 PUSH2 0x36AD JUMP JUMPDEST POP SWAP4 SWAP3 POP POP POP JUMP JUMPDEST PUSH1 0x0 DUP3 PUSH1 0x1F DUP4 ADD SLT PUSH2 0x3837 JUMPI PUSH2 0x3836 PUSH2 0x347B JUMP JUMPDEST JUMPDEST DUP2 CALLDATALOAD PUSH2 0x3847 DUP5 DUP3 PUSH1 0x20 DUP7 ADD PUSH2 0x37E0 JUMP JUMPDEST SWAP2 POP POP SWAP3 SWAP2 POP POP JUMP JUMPDEST PUSH1 0x0 PUSH1 0x20 DUP3 DUP5 SUB SLT ISZERO PUSH2 0x3866 JUMPI PUSH2 0x3865 PUSH2 0x3130 JUMP JUMPDEST JUMPDEST PUSH1 0x0 DUP3 ADD CALLDATALOAD PUSH8 0xFFFFFFFFFFFFFFFF DUP2 GT ISZERO PUSH2 0x3884 JUMPI PUSH2 0x3883 PUSH2 0x3135 JUMP JUMPDEST JUMPDEST PUSH2 0x3890 DUP5 DUP3 DUP6 ADD PUSH2 0x3822 JUMP JUMPDEST SWAP2 POP POP SWAP3 SWAP2 POP POP JUMP JUMPDEST PUSH1 0x0 DUP1 REVERT JUMPDEST PUSH1 0x0 PUSH1 0x80 DUP3 DUP5 SUB SLT ISZERO PUSH2 0x38B4 JUMPI PUSH2 0x38B3 PUSH2 0x3899 JUMP JUMPDEST JUMPDEST DUP2 SWAP1 POP SWAP3 SWAP2 POP POP JUMP JUMPDEST PUSH1 0x0 DUP1 PUSH1 0xA0 DUP4 DUP6 SUB SLT ISZERO PUSH2 0x38D4 JUMPI PUSH2 0x38D3 PUSH2 0x3130 JUMP JUMPDEST JUMPDEST PUSH1 0x0 PUSH2 0x38E2 DUP6 DUP3 DUP7 ADD PUSH2 0x337D JUMP JUMPDEST SWAP3 POP POP PUSH1 0x20 PUSH2 0x38F3 DUP6 DUP3 DUP7 ADD PUSH2 0x389E JUMP JUMPDEST SWAP2 POP POP SWAP3 POP SWAP3 SWAP1 POP JUMP JUMPDEST PUSH1 0x0 PUSH1 0x80 DUP3 ADD SWAP1 POP PUSH2 0x3912 PUSH1 0x0 DUP4 ADD DUP8 PUSH2 0x33D2 JUMP JUMPDEST PUSH2 0x391F PUSH1 0x20 DUP4 ADD DUP7 PUSH2 0x33D2 JUMP JUMPDEST PUSH2 0x392C PUSH1 0x40 DUP4 ADD DUP6 PUSH2 0x333C JUMP JUMPDEST PUSH2 0x3939 PUSH1 0x60 DUP4 ADD DUP5 PUSH2 0x31CB JUMP JUMPDEST SWAP6 SWAP5 POP POP POP POP POP JUMP JUMPDEST PUSH1 0x0 DUP1 PUSH1 0x40 DUP4 DUP6 SUB SLT ISZERO PUSH2 0x3959 JUMPI PUSH2 0x3958 PUSH2 0x3130 JUMP JUMPDEST JUMPDEST PUSH1 0x0 PUSH2 0x3967 DUP6 DUP3 DUP7 ADD PUSH2 0x337D JUMP JUMPDEST SWAP3 POP POP PUSH1 0x20 PUSH2 0x3978 DUP6 DUP3 DUP7 ADD PUSH2 0x337D JUMP JUMPDEST SWAP2 POP POP SWAP3 POP SWAP3 SWAP1 POP JUMP JUMPDEST PUSH2 0x398B DUP2 PUSH2 0x32A7 JUMP JUMPDEST DUP3 MSTORE POP POP JUMP JUMPDEST PUSH2 0x399A DUP2 PUSH2 0x332A JUMP JUMPDEST DUP3 MSTORE POP POP JUMP JUMPDEST PUSH2 0x39A9 DUP2 PUSH2 0x31BF JUMP JUMPDEST DUP3 MSTORE POP POP JUMP JUMPDEST PUSH1 0x80 DUP3 ADD PUSH1 0x0 DUP3 ADD MLOAD PUSH2 0x39C5 PUSH1 0x0 DUP6 ADD DUP3 PUSH2 0x3982 JUMP JUMPDEST POP PUSH1 0x20 DUP3 ADD MLOAD PUSH2 0x39D8 PUSH1 0x20 DUP6 ADD DUP3 PUSH2 0x3982 JUMP JUMPDEST POP PUSH1 0x40 DUP3 ADD MLOAD PUSH2 0x39EB PUSH1 0x40 DUP6 ADD DUP3 PUSH2 0x3991 JUMP JUMPDEST POP PUSH1 0x60 DUP3 ADD MLOAD PUSH2 0x39FE PUSH1 0x60 DUP6 ADD DUP3 PUSH2 0x39A0 JUMP JUMPDEST POP POP POP POP JUMP JUMPDEST PUSH1 0x0 PUSH1 0x80 DUP3 ADD SWAP1 POP PUSH2 0x3A19 PUSH1 0x0 DUP4 ADD DUP5 PUSH2 0x39AF JUMP JUMPDEST SWAP3 SWAP2 POP POP JUMP JUMPDEST PUSH32 0x4552433732313A20617070726F76616C20746F2063757272656E74206F776E65 PUSH1 0x0 DUP3 ADD MSTORE PUSH32 0x7200000000000000000000000000000000000000000000000000000000000000 PUSH1 0x20 DUP3 ADD MSTORE POP JUMP JUMPDEST PUSH1 0x0 PUSH2 0x3A7B PUSH1 0x21 DUP4 PUSH2 0x3200 JUMP JUMPDEST SWAP2 POP PUSH2 0x3A86 DUP3 PUSH2 0x3A1F JUMP JUMPDEST PUSH1 0x40 DUP3 ADD SWAP1 POP SWAP2 SWAP1 POP JUMP JUMPDEST PUSH1 0x0 PUSH1 0x20 DUP3 ADD SWAP1 POP DUP2 DUP2 SUB PUSH1 0x0 DUP4 ADD MSTORE PUSH2 0x3AAA DUP2 PUSH2 0x3A6E JUMP JUMPDEST SWAP1 POP SWAP2 SWAP1 POP JUMP JUMPDEST PUSH32 0x4552433732313A20617070726F76652063616C6C6572206973206E6F7420746F PUSH1 0x0 DUP3 ADD MSTORE PUSH32 0x6B656E206F776E6572206F7220617070726F76656420666F7220616C6C000000 PUSH1 0x20 DUP3 ADD MSTORE POP JUMP JUMPDEST PUSH1 0x0 PUSH2 0x3B0D PUSH1 0x3D DUP4 PUSH2 0x3200 JUMP JUMPDEST SWAP2 POP PUSH2 0x3B18 DUP3 PUSH2 0x3AB1 JUMP JUMPDEST PUSH1 0x40 DUP3 ADD SWAP1 POP SWAP2 SWAP1 POP JUMP JUMPDEST PUSH1 0x0 PUSH1 0x20 DUP3 ADD SWAP1 POP DUP2 DUP2 SUB PUSH1 0x0 DUP4 ADD MSTORE PUSH2 0x3B3C DUP2 PUSH2 0x3B00 JUMP JUMPDEST SWAP1 POP SWAP2 SWAP1 POP JUMP JUMPDEST PUSH32 0x4552433732313A2063616C6C6572206973206E6F7420746F6B656E206F776E65 PUSH1 0x0 DUP3 ADD MSTORE PUSH32 0x72206F7220617070726F76656400000000000000000000000000000000000000 PUSH1 0x20 DUP3 ADD MSTORE POP JUMP JUMPDEST PUSH1 0x0 PUSH2 0x3B9F PUSH1 0x2D DUP4 PUSH2 0x3200 JUMP JUMPDEST SWAP2 POP PUSH2 0x3BAA DUP3 PUSH2 0x3B43 JUMP JUMPDEST PUSH1 0x40 DUP3 ADD SWAP1 POP SWAP2 SWAP1 POP JUMP JUMPDEST PUSH1 0x0 PUSH1 0x20 DUP3 ADD SWAP1 POP DUP2 DUP2 SUB PUSH1 0x0 DUP4 ADD MSTORE PUSH2 0x3BCE DUP2 PUSH2 0x3B92 JUMP JUMPDEST SWAP1 POP SWAP2 SWAP1 POP JUMP JUMPDEST PUSH32 0x455243373231456E756D657261626C653A206F776E657220696E646578206F75 PUSH1 0x0 DUP3 ADD MSTORE PUSH32 0x74206F6620626F756E6473000000000000000000000000000000000000000000 PUSH1 0x20 DUP3 ADD MSTORE POP JUMP JUMPDEST PUSH1 0x0 PUSH2 0x3C31 PUSH1 0x2B DUP4 PUSH2 0x3200 JUMP JUMPDEST SWAP2 POP PUSH2 0x3C3C DUP3 PUSH2 0x3BD5 JUMP JUMPDEST PUSH1 0x40 DUP3 ADD SWAP1 POP SWAP2 SWAP1 POP JUMP JUMPDEST PUSH1 0x0 PUSH1 0x20 DUP3 ADD SWAP1 POP DUP2 DUP2 SUB PUSH1 0x0 DUP4 ADD MSTORE PUSH2 0x3C60 DUP2 PUSH2 0x3C24 JUMP JUMPDEST SWAP1 POP SWAP2 SWAP1 POP JUMP JUMPDEST PUSH32 0x455243373231456E756D657261626C653A20676C6F62616C20696E646578206F PUSH1 0x0 DUP3 ADD MSTORE PUSH32 0x7574206F6620626F756E64730000000000000000000000000000000000000000 PUSH1 0x20 DUP3 ADD MSTORE POP JUMP JUMPDEST PUSH1 0x0 PUSH2 0x3CC3 PUSH1 0x2C DUP4 PUSH2 0x3200 JUMP JUMPDEST SWAP2 POP PUSH2 0x3CCE DUP3 PUSH2 0x3C67 JUMP JUMPDEST PUSH1 0x40 DUP3 ADD SWAP1 POP SWAP2 SWAP1 POP JUMP JUMPDEST PUSH1 0x0 PUSH1 0x20 DUP3 ADD SWAP1 POP DUP2 DUP2 SUB PUSH1 0x0 DUP4 ADD MSTORE PUSH2 0x3CF2 DUP2 PUSH2 0x3CB6 JUMP JUMPDEST SWAP1 POP SWAP2 SWAP1 POP JUMP JUMPDEST PUSH32 0x4E487B7100000000000000000000000000000000000000000000000000000000 PUSH1 0x0 MSTORE PUSH1 0x32 PUSH1 0x4 MSTORE PUSH1 0x24 PUSH1 0x0 REVERT JUMPDEST PUSH32 0x416C726561647920436C61696D65642100000000000000000000000000000000 PUSH1 0x0 DUP3 ADD MSTORE POP JUMP JUMPDEST PUSH1 0x0 PUSH2 0x3D5E PUSH1 0x10 DUP4 PUSH2 0x3200 JUMP JUMPDEST SWAP2 POP PUSH2 0x3D69 DUP3 PUSH2 0x3D28 JUMP JUMPDEST PUSH1 0x20 DUP3 ADD SWAP1 POP SWAP2 SWAP1 POP JUMP JUMPDEST PUSH1 0x0 PUSH1 0x20 DUP3 ADD SWAP1 POP DUP2 DUP2 SUB PUSH1 0x0 DUP4 ADD MSTORE PUSH2 0x3D8D DUP2 PUSH2 0x3D51 JUMP JUMPDEST SWAP1 POP SWAP2 SWAP1 POP JUMP JUMPDEST PUSH32 0x496E76616C6964207369676E6174757265210000000000000000000000000000 PUSH1 0x0 DUP3 ADD MSTORE POP JUMP JUMPDEST PUSH1 0x0 PUSH2 0x3DCA PUSH1 0x12 DUP4 PUSH2 0x3200 JUMP JUMPDEST SWAP2 POP PUSH2 0x3DD5 DUP3 PUSH2 0x3D94 JUMP JUMPDEST PUSH1 0x20 DUP3 ADD SWAP1 POP SWAP2 SWAP1 POP JUMP JUMPDEST PUSH1 0x0 PUSH1 0x20 DUP3 ADD SWAP1 POP DUP2 DUP2 SUB PUSH1 0x0 DUP4 ADD MSTORE PUSH2 0x3DF9 DUP2 PUSH2 0x3DBD JUMP JUMPDEST SWAP1 POP SWAP2 SWAP1 POP JUMP JUMPDEST PUSH32 0x4552433732313A20696E76616C696420746F6B656E2049440000000000000000 PUSH1 0x0 DUP3 ADD MSTORE POP JUMP JUMPDEST PUSH1 0x0 PUSH2 0x3E36 PUSH1 0x18 DUP4 PUSH2 0x3200 JUMP JUMPDEST SWAP2 POP PUSH2 0x3E41 DUP3 PUSH2 0x3E00 JUMP JUMPDEST PUSH1 0x20 DUP3 ADD SWAP1 POP SWAP2 SWAP1 POP JUMP JUMPDEST PUSH1 0x0 PUSH1 0x20 DUP3 ADD SWAP1 POP DUP2 DUP2 SUB PUSH1 0x0 DUP4 ADD MSTORE PUSH2 0x3E65 DUP2 PUSH2 0x3E29 JUMP JUMPDEST SWAP1 POP SWAP2 SWAP1 POP JUMP JUMPDEST PUSH32 0x4552433732313A2061646472657373207A65726F206973206E6F742061207661 PUSH1 0x0 DUP3 ADD MSTORE PUSH32 0x6C6964206F776E65720000000000000000000000000000000000000000000000 PUSH1 0x20 DUP3 ADD MSTORE POP JUMP JUMPDEST PUSH1 0x0 PUSH2 0x3EC8 PUSH1 0x29 DUP4 PUSH2 0x3200 JUMP JUMPDEST SWAP2 POP PUSH2 0x3ED3 DUP3 PUSH2 0x3E6C JUMP JUMPDEST PUSH1 0x40 DUP3 ADD SWAP1 POP SWAP2 SWAP1 POP JUMP JUMPDEST PUSH1 0x0 PUSH1 0x20 DUP3 ADD SWAP1 POP DUP2 DUP2 SUB PUSH1 0x0 DUP4 ADD MSTORE PUSH2 0x3EF7 DUP2 PUSH2 0x3EBB JUMP JUMPDEST SWAP1 POP SWAP2 SWAP1 POP JUMP JUMPDEST PUSH32 0x4E487B7100000000000000000000000000000000000000000000000000000000 PUSH1 0x0 MSTORE PUSH1 0x22 PUSH1 0x4 MSTORE PUSH1 0x24 PUSH1 0x0 REVERT JUMPDEST PUSH1 0x0 PUSH1 0x2 DUP3 DIV SWAP1 POP PUSH1 0x1 DUP3 AND DUP1 PUSH2 0x3F45 JUMPI PUSH1 0x7F DUP3 AND SWAP2 POP JUMPDEST PUSH1 0x20 DUP3 LT DUP2 SUB PUSH2 0x3F58 JUMPI PUSH2 0x3F57 PUSH2 0x3EFE JUMP JUMPDEST JUMPDEST POP SWAP2 SWAP1 POP JUMP JUMPDEST PUSH1 0x0 DUP2 SWAP1 POP DUP2 PUSH1 0x0 MSTORE PUSH1 0x20 PUSH1 0x0 KECCAK256 SWAP1 POP SWAP2 SWAP1 POP JUMP JUMPDEST PUSH1 0x0 PUSH1 0x20 PUSH1 0x1F DUP4 ADD DIV SWAP1 POP SWAP2 SWAP1 POP JUMP JUMPDEST PUSH1 0x0 DUP3 DUP3 SHL SWAP1 POP SWAP3 SWAP2 POP POP JUMP JUMPDEST PUSH1 0x0 PUSH1 0x8 DUP4 MUL PUSH2 0x3FC0 PUSH32 0xFFFFFFFFFFFFFFFFFFFFFFFFFFFFFFFFFFFFFFFFFFFFFFFFFFFFFFFFFFFFFFFF DUP3 PUSH2 0x3F83 JUMP JUMPDEST PUSH2 0x3FCA DUP7 DUP4 PUSH2 0x3F83 JUMP JUMPDEST SWAP6 POP DUP1 NOT DUP5 AND SWAP4 POP DUP1 DUP7 AND DUP5 OR SWAP3 POP POP POP SWAP4 SWAP3 POP POP POP JUMP JUMPDEST PUSH1 0x0 DUP2 SWAP1 POP SWAP2 SWAP1 POP JUMP JUMPDEST PUSH1 0x0 PUSH2 0x4007 PUSH2 0x4002 PUSH2 0x3FFD DUP5 PUSH2 0x32A7 JUMP JUMPDEST PUSH2 0x3FE2 JUMP JUMPDEST PUSH2 0x32A7 JUMP JUMPDEST SWAP1 POP SWAP2 SWAP1 POP JUMP JUMPDEST PUSH1 0x0 DUP2 SWAP1 POP SWAP2 SWAP1 POP JUMP JUMPDEST PUSH2 0x4021 DUP4 PUSH2 0x3FEC JUMP JUMPDEST PUSH2 0x4035 PUSH2 0x402D DUP3 PUSH2 0x400E JUMP JUMPDEST DUP5 DUP5 SLOAD PUSH2 0x3F90 JUMP JUMPDEST DUP3 SSTORE POP POP POP POP JUMP JUMPDEST PUSH1 0x0 SWAP1 JUMP JUMPDEST PUSH2 0x404A PUSH2 0x403D JUMP JUMPDEST PUSH2 0x4055 DUP2 DUP5 DUP5 PUSH2 0x4018 JUMP JUMPDEST POP POP POP JUMP JUMPDEST JUMPDEST DUP2 DUP2 LT ISZERO PUSH2 0x4079 JUMPI PUSH2 0x406E PUSH1 0x0 DUP3 PUSH2 0x4042 JUMP JUMPDEST PUSH1 0x1 DUP2 ADD SWAP1 POP PUSH2 0x405B JUMP JUMPDEST POP POP JUMP JUMPDEST PUSH1 0x1F DUP3 GT ISZERO PUSH2 0x40BE JUMPI PUSH2 0x408F DUP2 PUSH2 0x3F5E JUMP JUMPDEST PUSH2 0x4098 DUP5 PUSH2 0x3F73 JUMP JUMPDEST DUP2 ADD PUSH1 0x20 DUP6 LT ISZERO PUSH2 0x40A7 JUMPI DUP2 SWAP1 POP JUMPDEST PUSH2 0x40BB PUSH2 0x40B3 DUP6 PUSH2 0x3F73 JUMP JUMPDEST DUP4 ADD DUP3 PUSH2 0x405A JUMP JUMPDEST POP POP JUMPDEST POP POP POP JUMP JUMPDEST PUSH1 0x0 DUP3 DUP3 SHR SWAP1 POP SWAP3 SWAP2 POP POP JUMP JUMPDEST PUSH1 0x0 PUSH2 0x40E1 PUSH1 0x0 NOT DUP5 PUSH1 0x8 MUL PUSH2 0x40C3 JUMP JUMPDEST NOT DUP1 DUP4 AND SWAP2 POP POP SWAP3 SWAP2 POP POP JUMP JUMPDEST PUSH1 0x0 PUSH2 0x40FA DUP4 DUP4 PUSH2 0x40D0 JUMP JUMPDEST SWAP2 POP DUP3 PUSH1 0x2 MUL DUP3 OR SWAP1 POP SWAP3 SWAP2 POP POP JUMP JUMPDEST PUSH2 0x4113 DUP3 PUSH2 0x31F5 JUMP JUMPDEST PUSH8 0xFFFFFFFFFFFFFFFF DUP2 GT ISZERO PUSH2 0x412C JUMPI PUSH2 0x412B PUSH2 0x3601 JUMP JUMPDEST JUMPDEST PUSH2 0x4136 DUP3 SLOAD PUSH2 0x3F2D JUMP JUMPDEST PUSH2 0x4141 DUP3 DUP3 DUP6 PUSH2 0x407D JUMP JUMPDEST PUSH1 0x0 PUSH1 0x20 SWAP1 POP PUSH1 0x1F DUP4 GT PUSH1 0x1 DUP2 EQ PUSH2 0x4174 JUMPI PUSH1 0x0 DUP5 ISZERO PUSH2 0x4162 JUMPI DUP3 DUP8 ADD MLOAD SWAP1 POP JUMPDEST PUSH2 0x416C DUP6 DUP3 PUSH2 0x40EE JUMP JUMPDEST DUP7 SSTORE POP PUSH2 0x41D4 JUMP JUMPDEST PUSH1 0x1F NOT DUP5 AND PUSH2 0x4182 DUP7 PUSH2 0x3F5E JUMP JUMPDEST PUSH1 0x0 JUMPDEST DUP3 DUP2 LT ISZERO PUSH2 0x41AA JUMPI DUP5 DUP10 ADD MLOAD DUP3 SSTORE PUSH1 0x1 DUP3 ADD SWAP2 POP PUSH1 0x20 DUP6 ADD SWAP5 POP PUSH1 0x20 DUP2 ADD SWAP1 POP PUSH2 0x4185 JUMP JUMPDEST DUP7 DUP4 LT ISZERO PUSH2 0x41C7 JUMPI DUP5 DUP10 ADD MLOAD PUSH2 0x41C3 PUSH1 0x1F DUP10 AND DUP3 PUSH2 0x40D0 JUMP JUMPDEST DUP4 SSTORE POP JUMPDEST PUSH1 0x1 PUSH1 0x2 DUP9 MUL ADD DUP9 SSTORE POP POP POP JUMPDEST POP POP POP POP POP POP JUMP JUMPDEST PUSH1 0x0 DUP2 SWAP1 POP SWAP3 SWAP2 POP POP JUMP JUMPDEST PUSH1 0x0 DUP2 SLOAD PUSH2 0x41F4 DUP2 PUSH2 0x3F2D JUMP JUMPDEST PUSH2 0x41FE DUP2 DUP7 PUSH2 0x41DC JUMP JUMPDEST SWAP5 POP PUSH1 0x1 DUP3 AND PUSH1 0x0 DUP2 EQ PUSH2 0x4219 JUMPI PUSH1 0x1 DUP2 EQ PUSH2 0x422E JUMPI PUSH2 0x4261 JUMP JUMPDEST PUSH1 0xFF NOT DUP4 AND DUP7 MSTORE DUP2 ISZERO ISZERO DUP3 MUL DUP7 ADD SWAP4 POP PUSH2 0x4261 JUMP JUMPDEST PUSH2 0x4237 DUP6 PUSH2 0x3F5E JUMP JUMPDEST PUSH1 0x0 JUMPDEST DUP4 DUP2 LT ISZERO PUSH2 0x4259 JUMPI DUP2 SLOAD DUP2 DUP10 ADD MSTORE PUSH1 0x1 DUP3 ADD SWAP2 POP PUSH1 0x20 DUP2 ADD SWAP1 POP PUSH2 0x423A JUMP JUMPDEST DUP4 DUP9 ADD SWAP6 POP POP POP JUMPDEST POP POP POP SWAP3 SWAP2 POP POP JUMP JUMPDEST PUSH1 0x0 PUSH2 0x4276 DUP3 DUP5 PUSH2 0x41E7 JUMP JUMPDEST SWAP2 POP DUP2 SWAP1 POP SWAP3 SWAP2 POP POP JUMP JUMPDEST PUSH32 0x696E697469616C697A653A20416C726561647920696E697469616C697A656421 PUSH1 0x0 DUP3 ADD MSTORE POP JUMP JUMPDEST PUSH1 0x0 PUSH2 0x42B7 PUSH1 0x20 DUP4 PUSH2 0x3200 JUMP JUMPDEST SWAP2 POP PUSH2 0x42C2 DUP3 PUSH2 0x4281 JUMP JUMPDEST PUSH1 0x20 DUP3 ADD SWAP1 POP SWAP2 SWAP1 POP JUMP JUMPDEST PUSH1 0x0 PUSH1 0x20 DUP3 ADD SWAP1 POP DUP2 DUP2 SUB PUSH1 0x0 DUP4 ADD MSTORE PUSH2 0x42E6 DUP2 PUSH2 0x42AA JUMP JUMPDEST SWAP1 POP SWAP2 SWAP1 POP JUMP JUMPDEST PUSH32 0x547269706C65634D6564616C3A2055524920717565727920666F72206E6F6E65 PUSH1 0x0 DUP3 ADD MSTORE PUSH32 0x78697374656E7420746F6B656E00000000000000000000000000000000000000 PUSH1 0x20 DUP3 ADD MSTORE POP JUMP JUMPDEST PUSH1 0x0 PUSH2 0x4349 PUSH1 0x2D DUP4 PUSH2 0x3200 JUMP JUMPDEST SWAP2 POP PUSH2 0x4354 DUP3 PUSH2 0x42ED JUMP JUMPDEST PUSH1 0x40 DUP3 ADD SWAP1 POP SWAP2 SWAP1 POP JUMP JUMPDEST PUSH1 0x0 PUSH1 0x20 DUP3 ADD SWAP1 POP DUP2 DUP2 SUB PUSH1 0x0 DUP4 ADD MSTORE PUSH2 0x4378 DUP2 PUSH2 0x433C JUMP JUMPDEST SWAP1 POP SWAP2 SWAP1 POP JUMP JUMPDEST PUSH1 0x0 PUSH2 0x438A DUP3 PUSH2 0x31F5 JUMP JUMPDEST PUSH2 0x4394 DUP2 DUP6 PUSH2 0x41DC JUMP JUMPDEST SWAP4 POP PUSH2 0x43A4 DUP2 DUP6 PUSH1 0x20 DUP7 ADD PUSH2 0x3211 JUMP JUMPDEST DUP1 DUP5 ADD SWAP2 POP POP SWAP3 SWAP2 POP POP JUMP JUMPDEST PUSH1 0x0 PUSH2 0x43BC DUP3 DUP6 PUSH2 0x437F JUMP JUMPDEST SWAP2 POP PUSH2 0x43C8 DUP3 DUP5 PUSH2 0x437F JUMP JUMPDEST SWAP2 POP DUP2 SWAP1 POP SWAP4 SWAP3 POP POP POP JUMP JUMPDEST PUSH1 0x0 DUP1 REVERT JUMPDEST PUSH1 0x0 PUSH1 0x80 DUP3 DUP5 SUB SLT ISZERO PUSH2 0x43EF JUMPI PUSH2 0x43EE PUSH2 0x43D4 JUMP JUMPDEST JUMPDEST PUSH2 0x43F9 PUSH1 0x80 PUSH2 0x3661 JUMP JUMPDEST SWAP1 POP PUSH1 0x0 PUSH2 0x4409 DUP5 DUP3 DUP6 ADD PUSH2 0x32C8 JUMP JUMPDEST PUSH1 0x0 DUP4 ADD MSTORE POP PUSH1 0x20 PUSH2 0x441D DUP5 DUP3 DUP6 ADD PUSH2 0x32C8 JUMP JUMPDEST PUSH1 0x20 DUP4 ADD MSTORE POP PUSH1 0x40 PUSH2 0x4431 DUP5 DUP3 DUP6 ADD PUSH2 0x337D JUMP JUMPDEST PUSH1 0x40 DUP4 ADD MSTORE POP PUSH1 0x60 PUSH2 0x4445 DUP5 DUP3 DUP6 ADD PUSH2 0x3466 JUMP JUMPDEST PUSH1 0x60 DUP4 ADD MSTORE POP SWAP3 SWAP2 POP POP JUMP JUMPDEST PUSH1 0x0 PUSH1 0x80 DUP3 DUP5 SUB SLT ISZERO PUSH2 0x4467 JUMPI PUSH2 0x4466 PUSH2 0x3130 JUMP JUMPDEST JUMPDEST PUSH1 0x0 PUSH2 0x4475 DUP5 DUP3 DUP6 ADD PUSH2 0x43D9 JUMP JUMPDEST SWAP2 POP POP SWAP3 SWAP2 POP POP JUMP JUMPDEST PUSH32 0x4F776E61626C653A206E6577206F776E657220697320746865207A65726F2061 PUSH1 0x0 DUP3 ADD MSTORE PUSH32 0x6464726573730000000000000000000000000000000000000000000000000000 PUSH1 0x20 DUP3 ADD MSTORE POP JUMP JUMPDEST PUSH1 0x0 PUSH2 0x44DA PUSH1 0x26 DUP4 PUSH2 0x3200 JUMP JUMPDEST SWAP2 POP PUSH2 0x44E5 DUP3 PUSH2 0x447E JUMP JUMPDEST PUSH1 0x40 DUP3 ADD SWAP1 POP SWAP2 SWAP1 POP JUMP JUMPDEST PUSH1 0x0 PUSH1 0x20 DUP3 ADD SWAP1 POP DUP2 DUP2 SUB PUSH1 0x0 DUP4 ADD MSTORE PUSH2 0x4509 DUP2 PUSH2 0x44CD JUMP JUMPDEST SWAP1 POP SWAP2 SWAP1 POP JUMP JUMPDEST PUSH32 0x547269706C65634D6564616C3A206E6F6E6578697374656E7420746F6B656E00 PUSH1 0x0 DUP3 ADD MSTORE POP JUMP JUMPDEST PUSH1 0x0 PUSH2 0x4546 PUSH1 0x1F DUP4 PUSH2 0x3200 JUMP JUMPDEST SWAP2 POP PUSH2 0x4551 DUP3 PUSH2 0x4510 JUMP JUMPDEST PUSH1 0x20 DUP3 ADD SWAP1 POP SWAP2 SWAP1 POP JUMP JUMPDEST PUSH1 0x0 PUSH1 0x20 DUP3 ADD SWAP1 POP DUP2 DUP2 SUB PUSH1 0x0 DUP4 ADD MSTORE PUSH2 0x4575 DUP2 PUSH2 0x4539 JUMP JUMPDEST SWAP1 POP SWAP2 SWAP1 POP JUMP JUMPDEST PUSH32 0x7061757365207472616E73666572000000000000000000000000000000000000 PUSH1 0x0 DUP3 ADD MSTORE POP JUMP JUMPDEST PUSH1 0x0 PUSH2 0x45B2 PUSH1 0xE DUP4 PUSH2 0x3200 JUMP JUMPDEST SWAP2 POP PUSH2 0x45BD DUP3 PUSH2 0x457C JUMP JUMPDEST PUSH1 0x20 DUP3 ADD SWAP1 POP SWAP2 SWAP1 POP JUMP JUMPDEST PUSH1 0x0 PUSH1 0x20 DUP3 ADD SWAP1 POP DUP2 DUP2 SUB PUSH1 0x0 DUP4 ADD MSTORE PUSH2 0x45E1 DUP2 PUSH2 0x45A5 JUMP JUMPDEST SWAP1 POP SWAP2 SWAP1 POP JUMP JUMPDEST PUSH32 0x6F6E6C7920666F72206F776E6572000000000000000000000000000000000000 PUSH1 0x0 DUP3 ADD MSTORE POP JUMP JUMPDEST PUSH1 0x0 PUSH2 0x461E PUSH1 0xE DUP4 PUSH2 0x3200 JUMP JUMPDEST SWAP2 POP PUSH2 0x4629 DUP3 PUSH2 0x45E8 JUMP JUMPDEST PUSH1 0x20 DUP3 ADD SWAP1 POP SWAP2 SWAP1 POP JUMP JUMPDEST PUSH1 0x0 PUSH1 0x20 DUP3 ADD SWAP1 POP DUP2 DUP2 SUB PUSH1 0x0 DUP4 ADD MSTORE PUSH2 0x464D DUP2 PUSH2 0x4611 JUMP JUMPDEST SWAP1 POP SWAP2 SWAP1 POP JUMP JUMPDEST PUSH32 0x4F776E61626C653A2063616C6C6572206973206E6F7420746865206F776E6572 PUSH1 0x0 DUP3 ADD MSTORE POP JUMP JUMPDEST PUSH1 0x0 PUSH2 0x468A PUSH1 0x20 DUP4 PUSH2 0x3200 JUMP JUMPDEST SWAP2 POP PUSH2 0x4695 DUP3 PUSH2 0x4654 JUMP JUMPDEST PUSH1 0x20 DUP3 ADD SWAP1 POP SWAP2 SWAP1 POP JUMP JUMPDEST PUSH1 0x0 PUSH1 0x20 DUP3 ADD SWAP1 POP DUP2 DUP2 SUB PUSH1 0x0 DUP4 ADD MSTORE PUSH2 0x46B9 DUP2 PUSH2 0x467D JUMP JUMPDEST SWAP1 POP SWAP2 SWAP1 POP JUMP JUMPDEST PUSH1 0x0 DUP2 SWAP1 POP SWAP2 SWAP1 POP JUMP JUMPDEST PUSH2 0x46D3 DUP2 PUSH2 0x46C0 JUMP JUMPDEST DUP3 MSTORE POP POP JUMP JUMPDEST PUSH1 0x0 PUSH1 0xC0 DUP3 ADD SWAP1 POP PUSH2 0x46EE PUSH1 0x0 DUP4 ADD DUP10 PUSH2 0x46CA JUMP JUMPDEST PUSH2 0x46FB PUSH1 0x20 DUP4 ADD DUP9 PUSH2 0x33D2 JUMP JUMPDEST PUSH2 0x4708 PUSH1 0x40 DUP4 ADD DUP8 PUSH2 0x33D2 JUMP JUMPDEST PUSH2 0x4715 PUSH1 0x60 DUP4 ADD DUP7 PUSH2 0x33D2 JUMP JUMPDEST PUSH2 0x4722 PUSH1 0x80 DUP4 ADD DUP6 PUSH2 0x333C JUMP JUMPDEST PUSH2 0x472F PUSH1 0xA0 DUP4 ADD DUP5 PUSH2 0x31CB JUMP JUMPDEST SWAP8 SWAP7 POP POP POP POP POP POP POP JUMP JUMPDEST PUSH32 0x4E487B7100000000000000000000000000000000000000000000000000000000 PUSH1 0x0 MSTORE PUSH1 0x11 PUSH1 0x4 MSTORE PUSH1 0x24 PUSH1 0x0 REVERT JUMPDEST PUSH1 0x0 PUSH2 0x4774 DUP3 PUSH2 0x32A7 JUMP JUMPDEST SWAP2 POP PUSH32 0xFFFFFFFFFFFFFFFFFFFFFFFFFFFFFFFFFFFFFFFFFFFFFFFFFFFFFFFFFFFFFFFF DUP3 SUB PUSH2 0x47A6 JUMPI PUSH2 0x47A5 PUSH2 0x473A JUMP JUMPDEST JUMPDEST PUSH1 0x1 DUP3 ADD SWAP1 POP SWAP2 SWAP1 POP JUMP JUMPDEST PUSH32 0x4552433732313A20617070726F766520746F2063616C6C657200000000000000 PUSH1 0x0 DUP3 ADD MSTORE POP JUMP JUMPDEST PUSH1 0x0 PUSH2 0x47E7 PUSH1 0x19 DUP4 PUSH2 0x3200 JUMP JUMPDEST SWAP2 POP PUSH2 0x47F2 DUP3 PUSH2 0x47B1 JUMP JUMPDEST PUSH1 0x20 DUP3 ADD SWAP1 POP SWAP2 SWAP1 POP JUMP JUMPDEST PUSH1 0x0 PUSH1 0x20 DUP3 ADD SWAP1 POP DUP2 DUP2 SUB PUSH1 0x0 DUP4 ADD MSTORE PUSH2 0x4816 DUP2 PUSH2 0x47DA JUMP JUMPDEST SWAP1 POP SWAP2 SWAP1 POP JUMP JUMPDEST PUSH32 0x4552433732313A207472616E7366657220746F206E6F6E204552433732315265 PUSH1 0x0 DUP3 ADD MSTORE PUSH32 0x63656976657220696D706C656D656E7465720000000000000000000000000000 PUSH1 0x20 DUP3 ADD MSTORE POP JUMP JUMPDEST PUSH1 0x0 PUSH2 0x4879 PUSH1 0x32 DUP4 PUSH2 0x3200 JUMP JUMPDEST SWAP2 POP PUSH2 0x4884 DUP3 PUSH2 0x481D JUMP JUMPDEST PUSH1 0x40 DUP3 ADD SWAP1 POP SWAP2 SWAP1 POP JUMP JUMPDEST PUSH1 0x0 PUSH1 0x20 DUP3 ADD SWAP1 POP DUP2 DUP2 SUB PUSH1 0x0 DUP4 ADD MSTORE PUSH2 0x48A8 DUP2 PUSH2 0x486C JUMP JUMPDEST SWAP1 POP SWAP2 SWAP1 POP JUMP JUMPDEST PUSH32 0x656970496E697469616C697A65643A20416C726561647920696E697469616C69 PUSH1 0x0 DUP3 ADD MSTORE PUSH32 0x7A65642100000000000000000000000000000000000000000000000000000000 PUSH1 0x20 DUP3 ADD MSTORE POP JUMP JUMPDEST PUSH1 0x0 PUSH2 0x490B PUSH1 0x24 DUP4 PUSH2 0x3200 JUMP JUMPDEST SWAP2 POP PUSH2 0x4916 DUP3 PUSH2 0x48AF JUMP JUMPDEST PUSH1 0x40 DUP3 ADD SWAP1 POP SWAP2 SWAP1 POP JUMP JUMPDEST PUSH1 0x0 PUSH1 0x20 DUP3 ADD SWAP1 POP DUP2 DUP2 SUB PUSH1 0x0 DUP4 ADD MSTORE PUSH2 0x493A DUP2 PUSH2 0x48FE JUMP JUMPDEST SWAP1 POP SWAP2 SWAP1 POP JUMP JUMPDEST PUSH32 0x4E487B7100000000000000000000000000000000000000000000000000000000 PUSH1 0x0 MSTORE PUSH1 0x12 PUSH1 0x4 MSTORE PUSH1 0x24 PUSH1 0x0 REVERT JUMPDEST PUSH32 0x4552433732313A207472616E736665722066726F6D20696E636F727265637420 PUSH1 0x0 DUP3 ADD MSTORE PUSH32 0x6F776E6572000000000000000000000000000000000000000000000000000000 PUSH1 0x20 DUP3 ADD MSTORE POP JUMP JUMPDEST PUSH1 0x0 PUSH2 0x49CC PUSH1 0x25 DUP4 PUSH2 0x3200 JUMP JUMPDEST SWAP2 POP PUSH2 0x49D7 DUP3 PUSH2 0x4970 JUMP JUMPDEST PUSH1 0x40 DUP3 ADD SWAP1 POP SWAP2 SWAP1 POP JUMP JUMPDEST PUSH1 0x0 PUSH1 0x20 DUP3 ADD SWAP1 POP DUP2 DUP2 SUB PUSH1 0x0 DUP4 ADD MSTORE PUSH2 0x49FB DUP2 PUSH2 0x49BF JUMP JUMPDEST SWAP1 POP SWAP2 SWAP1 POP JUMP JUMPDEST PUSH32 0x4552433732313A207472616E7366657220746F20746865207A65726F20616464 PUSH1 0x0 DUP3 ADD MSTORE PUSH32 0x7265737300000000000000000000000000000000000000000000000000000000 PUSH1 0x20 DUP3 ADD MSTORE POP JUMP JUMPDEST PUSH1 0x0 PUSH2 0x4A5E PUSH1 0x24 DUP4 PUSH2 0x3200 JUMP JUMPDEST SWAP2 POP PUSH2 0x4A69 DUP3 PUSH2 0x4A02 JUMP JUMPDEST PUSH1 0x40 DUP3 ADD SWAP1 POP SWAP2 SWAP1 POP JUMP JUMPDEST PUSH1 0x0 PUSH1 0x20 DUP3 ADD SWAP1 POP DUP2 DUP2 SUB PUSH1 0x0 DUP4 ADD MSTORE PUSH2 0x4A8D DUP2 PUSH2 0x4A51 JUMP JUMPDEST SWAP1 POP SWAP2 SWAP1 POP JUMP JUMPDEST PUSH32 0x5061757361626C653A206E6F7420706175736564000000000000000000000000 PUSH1 0x0 DUP3 ADD MSTORE POP JUMP JUMPDEST PUSH1 0x0 PUSH2 0x4ACA PUSH1 0x14 DUP4 PUSH2 0x3200 JUMP JUMPDEST SWAP2 POP PUSH2 0x4AD5 DUP3 PUSH2 0x4A94 JUMP JUMPDEST PUSH1 0x20 DUP3 ADD SWAP1 POP SWAP2 SWAP1 POP JUMP JUMPDEST PUSH1 0x0 PUSH1 0x20 DUP3 ADD SWAP1 POP DUP2 DUP2 SUB PUSH1 0x0 DUP4 ADD MSTORE PUSH2 0x4AF9 DUP2 PUSH2 0x4ABD JUMP JUMPDEST SWAP1 POP SWAP2 SWAP1 POP JUMP JUMPDEST PUSH32 0x455243373231456E756D657261626C653A20636F6E7365637574697665207472 PUSH1 0x0 DUP3 ADD MSTORE PUSH32 0x616E7366657273206E6F7420737570706F727465640000000000000000000000 PUSH1 0x20 DUP3 ADD MSTORE POP JUMP JUMPDEST PUSH1 0x0 PUSH2 0x4B5C PUSH1 0x35 DUP4 PUSH2 0x3200 JUMP JUMPDEST SWAP2 POP PUSH2 0x4B67 DUP3 PUSH2 0x4B00 JUMP JUMPDEST PUSH1 0x40 DUP3 ADD SWAP1 POP SWAP2 SWAP1 POP JUMP JUMPDEST PUSH1 0x0 PUSH1 0x20 DUP3 ADD SWAP1 POP DUP2 DUP2 SUB PUSH1 0x0 DUP4 ADD MSTORE PUSH2 0x4B8B DUP2 PUSH2 0x4B4F JUMP JUMPDEST SWAP1 POP SWAP2 SWAP1 POP JUMP JUMPDEST PUSH32 0x1901000000000000000000000000000000000000000000000000000000000000 PUSH1 0x0 DUP3 ADD MSTORE POP JUMP JUMPDEST PUSH1 0x0 PUSH2 0x4BC8 PUSH1 0x2 DUP4 PUSH2 0x41DC JUMP JUMPDEST SWAP2 POP PUSH2 0x4BD3 DUP3 PUSH2 0x4B92 JUMP JUMPDEST PUSH1 0x2 DUP3 ADD SWAP1 POP SWAP2 SWAP1 POP JUMP JUMPDEST PUSH1 0x0 DUP2 SWAP1 POP SWAP2 SWAP1 POP JUMP JUMPDEST PUSH2 0x4BF9 PUSH2 0x4BF4 DUP3 PUSH2 0x46C0 JUMP JUMPDEST PUSH2 0x4BDE JUMP JUMPDEST DUP3 MSTORE POP POP JUMP JUMPDEST PUSH1 0x0 PUSH2 0x4C0A DUP3 PUSH2 0x4BBB JUMP JUMPDEST SWAP2 POP PUSH2 0x4C16 DUP3 DUP6 PUSH2 0x4BE8 JUMP JUMPDEST PUSH1 0x20 DUP3 ADD SWAP2 POP PUSH2 0x4C26 DUP3 DUP5 PUSH2 0x4BE8 JUMP JUMPDEST PUSH1 0x20 DUP3 ADD SWAP2 POP DUP2 SWAP1 POP SWAP4 SWAP3 POP POP POP JUMP JUMPDEST PUSH32 0x45434453413A20696E76616C6964207369676E6174757265206C656E67746800 PUSH1 0x0 DUP3 ADD MSTORE POP JUMP JUMPDEST PUSH1 0x0 PUSH2 0x4C6C PUSH1 0x1F DUP4 PUSH2 0x3200 JUMP JUMPDEST SWAP2 POP PUSH2 0x4C77 DUP3 PUSH2 0x4C36 JUMP JUMPDEST PUSH1 0x20 DUP3 ADD SWAP1 POP SWAP2 SWAP1 POP JUMP JUMPDEST PUSH1 0x0 PUSH1 0x20 DUP3 ADD SWAP1 POP DUP2 DUP2 SUB PUSH1 0x0 DUP4 ADD MSTORE PUSH2 0x4C9B DUP2 PUSH2 0x4C5F JUMP JUMPDEST SWAP1 POP SWAP2 SWAP1 POP JUMP JUMPDEST PUSH32 0x4552433732313A206D696E7420746F20746865207A65726F2061646472657373 PUSH1 0x0 DUP3 ADD MSTORE POP JUMP JUMPDEST PUSH1 0x0 PUSH2 0x4CD8 PUSH1 0x20 DUP4 PUSH2 0x3200 JUMP JUMPDEST SWAP2 POP PUSH2 0x4CE3 DUP3 PUSH2 0x4CA2 JUMP JUMPDEST PUSH1 0x20 DUP3 ADD SWAP1 POP SWAP2 SWAP1 POP JUMP JUMPDEST PUSH1 0x0 PUSH1 0x20 DUP3 ADD SWAP1 POP DUP2 DUP2 SUB PUSH1 0x0 DUP4 ADD MSTORE PUSH2 0x4D07 DUP2 PUSH2 0x4CCB JUMP JUMPDEST SWAP1 POP SWAP2 SWAP1 POP JUMP JUMPDEST PUSH32 0x4552433732313A20746F6B656E20616C7265616479206D696E74656400000000 PUSH1 0x0 DUP3 ADD MSTORE POP JUMP JUMPDEST PUSH1 0x0 PUSH2 0x4D44 PUSH1 0x1C DUP4 PUSH2 0x3200 JUMP JUMPDEST SWAP2 POP PUSH2 0x4D4F DUP3 PUSH2 0x4D0E JUMP JUMPDEST PUSH1 0x20 DUP3 ADD SWAP1 POP SWAP2 SWAP1 POP JUMP JUMPDEST PUSH1 0x0 PUSH1 0x20 DUP3 ADD SWAP1 POP DUP2 DUP2 SUB PUSH1 0x0 DUP4 ADD MSTORE PUSH2 0x4D73 DUP2 PUSH2 0x4D37 JUMP JUMPDEST SWAP1 POP SWAP2 SWAP1 POP JUMP JUMPDEST PUSH32 0x5061757361626C653A2070617573656400000000000000000000000000000000 PUSH1 0x0 DUP3 ADD MSTORE POP JUMP JUMPDEST PUSH1 0x0 PUSH2 0x4DB0 PUSH1 0x10 DUP4 PUSH2 0x3200 JUMP JUMPDEST SWAP2 POP PUSH2 0x4DBB DUP3 PUSH2 0x4D7A JUMP JUMPDEST PUSH1 0x20 DUP3 ADD SWAP1 POP SWAP2 SWAP1 POP JUMP JUMPDEST PUSH1 0x0 PUSH1 0x20 DUP3 ADD SWAP1 POP DUP2 DUP2 SUB PUSH1 0x0 DUP4 ADD MSTORE PUSH2 0x4DDF DUP2 PUSH2 0x4DA3 JUMP JUMPDEST SWAP1 POP SWAP2 SWAP1 POP JUMP JUMPDEST PUSH1 0x0 DUP2 MLOAD SWAP1 POP SWAP2 SWAP1 POP JUMP JUMPDEST PUSH1 0x0 DUP3 DUP3 MSTORE PUSH1 0x20 DUP3 ADD SWAP1 POP SWAP3 SWAP2 POP POP JUMP JUMPDEST PUSH1 0x0 PUSH2 0x4E0D DUP3 PUSH2 0x4DE6 JUMP JUMPDEST PUSH2 0x4E17 DUP2 DUP6 PUSH2 0x4DF1 JUMP JUMPDEST SWAP4 POP PUSH2 0x4E27 DUP2 DUP6 PUSH1 0x20 DUP7 ADD PUSH2 0x3211 JUMP JUMPDEST PUSH2 0x4E30 DUP2 PUSH2 0x323B JUMP JUMPDEST DUP5 ADD SWAP2 POP POP SWAP3 SWAP2 POP POP JUMP JUMPDEST PUSH1 0x0 PUSH1 0x80 DUP3 ADD SWAP1 POP PUSH2 0x4E50 PUSH1 0x0 DUP4 ADD DUP8 PUSH2 0x333C JUMP JUMPDEST PUSH2 0x4E5D PUSH1 0x20 DUP4 ADD DUP7 PUSH2 0x333C JUMP JUMPDEST PUSH2 0x4E6A PUSH1 0x40 DUP4 ADD DUP6 PUSH2 0x33D2 JUMP JUMPDEST DUP2 DUP2 SUB PUSH1 0x60 DUP4 ADD MSTORE PUSH2 0x4E7C DUP2 DUP5 PUSH2 0x4E02 JUMP JUMPDEST SWAP1 POP SWAP6 SWAP5 POP POP POP POP POP JUMP JUMPDEST PUSH1 0x0 DUP2 MLOAD SWAP1 POP PUSH2 0x4E96 DUP2 PUSH2 0x3166 JUMP JUMPDEST SWAP3 SWAP2 POP POP JUMP JUMPDEST PUSH1 0x0 PUSH1 0x20 DUP3 DUP5 SUB SLT ISZERO PUSH2 0x4EB2 JUMPI PUSH2 0x4EB1 PUSH2 0x3130 JUMP JUMPDEST JUMPDEST PUSH1 0x0 PUSH2 0x4EC0 DUP5 DUP3 DUP6 ADD PUSH2 0x4E87 JUMP JUMPDEST SWAP2 POP POP SWAP3 SWAP2 POP POP JUMP JUMPDEST PUSH1 0x0 PUSH1 0xA0 DUP3 ADD SWAP1 POP PUSH2 0x4EDE PUSH1 0x0 DUP4 ADD DUP9 PUSH2 0x46CA JUMP JUMPDEST PUSH2 0x4EEB PUSH1 0x20 DUP4 ADD DUP8 PUSH2 0x46CA JUMP JUMPDEST PUSH2 0x4EF8 PUSH1 0x40 DUP4 ADD DUP7 PUSH2 0x46CA JUMP JUMPDEST PUSH2 0x4F05 PUSH1 0x60 DUP4 ADD DUP6 PUSH2 0x33D2 JUMP JUMPDEST PUSH2 0x4F12 PUSH1 0x80 DUP4 ADD DUP5 PUSH2 0x333C JUMP JUMPDEST SWAP7 SWAP6 POP POP POP POP POP POP JUMP JUMPDEST PUSH1 0x0 PUSH2 0x4F27 DUP3 PUSH2 0x32A7 JUMP JUMPDEST SWAP2 POP PUSH2 0x4F32 DUP4 PUSH2 0x32A7 JUMP JUMPDEST SWAP3 POP DUP3 DUP3 SUB SWAP1 POP DUP2 DUP2 GT ISZERO PUSH2 0x4F4A JUMPI PUSH2 0x4F49 PUSH2 0x473A JUMP JUMPDEST JUMPDEST SWAP3 SWAP2 POP POP JUMP JUMPDEST PUSH32 0x4E487B7100000000000000000000000000000000000000000000000000000000 PUSH1 0x0 MSTORE PUSH1 0x31 PUSH1 0x4 MSTORE PUSH1 0x24 PUSH1 0x0 REVERT JUMPDEST PUSH32 0x45434453413A20696E76616C6964207369676E6174757265202773272076616C PUSH1 0x0 DUP3 ADD MSTORE PUSH32 0x7565000000000000000000000000000000000000000000000000000000000000 PUSH1 0x20 DUP3 ADD MSTORE POP JUMP JUMPDEST PUSH1 0x0 PUSH2 0x4FDB PUSH1 0x22 DUP4 PUSH2 0x3200 JUMP JUMPDEST SWAP2 POP PUSH2 0x4FE6 DUP3 PUSH2 0x4F7F JUMP JUMPDEST PUSH1 0x40 DUP3 ADD SWAP1 POP SWAP2 SWAP1 POP JUMP JUMPDEST PUSH1 0x0 PUSH1 0x20 DUP3 ADD SWAP1 POP DUP2 DUP2 SUB PUSH1 0x0 DUP4 ADD MSTORE PUSH2 0x500A DUP2 PUSH2 0x4FCE JUMP JUMPDEST SWAP1 POP SWAP2 SWAP1 POP JUMP JUMPDEST PUSH32 0x45434453413A20696E76616C6964207369676E6174757265202776272076616C PUSH1 0x0 DUP3 ADD MSTORE PUSH32 0x7565000000000000000000000000000000000000000000000000000000000000 PUSH1 0x20 DUP3 ADD MSTORE POP JUMP JUMPDEST PUSH1 0x0 PUSH2 0x506D PUSH1 0x22 DUP4 PUSH2 0x3200 JUMP JUMPDEST SWAP2 POP PUSH2 0x5078 DUP3 PUSH2 0x5011 JUMP JUMPDEST PUSH1 0x40 DUP3 ADD SWAP1 POP SWAP2 SWAP1 POP JUMP JUMPDEST PUSH1 0x0 PUSH1 0x20 DUP3 ADD SWAP1 POP DUP2 DUP2 SUB PUSH1 0x0 DUP4 ADD MSTORE PUSH2 0x509C DUP2 PUSH2 0x5060 JUMP JUMPDEST SWAP1 POP SWAP2 SWAP1 POP JUMP JUMPDEST PUSH1 0x0 PUSH1 0xFF DUP3 AND SWAP1 POP SWAP2 SWAP1 POP JUMP JUMPDEST PUSH2 0x50B9 DUP2 PUSH2 0x50A3 JUMP JUMPDEST DUP3 MSTORE POP POP JUMP JUMPDEST PUSH1 0x0 PUSH1 0x80 DUP3 ADD SWAP1 POP PUSH2 0x50D4 PUSH1 0x0 DUP4 ADD DUP8 PUSH2 0x46CA JUMP JUMPDEST PUSH2 0x50E1 PUSH1 0x20 DUP4 ADD DUP7 PUSH2 0x50B0 JUMP JUMPDEST PUSH2 0x50EE PUSH1 0x40 DUP4 ADD DUP6 PUSH2 0x46CA JUMP JUMPDEST PUSH2 0x50FB PUSH1 0x60 DUP4 ADD DUP5 PUSH2 0x46CA JUMP JUMPDEST SWAP6 SWAP5 POP POP POP POP POP JUMP JUMPDEST PUSH32 0x45434453413A20696E76616C6964207369676E61747572650000000000000000 PUSH1 0x0 DUP3 ADD MSTORE POP JUMP JUMPDEST PUSH1 0x0 PUSH2 0x513A PUSH1 0x18 DUP4 PUSH2 0x3200 JUMP JUMPDEST SWAP2 POP PUSH2 0x5145 DUP3 PUSH2 0x5104 JUMP JUMPDEST PUSH1 0x20 DUP3 ADD SWAP1 POP SWAP2 SWAP1 POP JUMP JUMPDEST PUSH1 0x0 PUSH1 0x20 DUP3 ADD SWAP1 POP DUP2 DUP2 SUB PUSH1 0x0 DUP4 ADD MSTORE PUSH2 0x5169 DUP2 PUSH2 0x512D JUMP JUMPDEST SWAP1 POP SWAP2 SWAP1 POP JUMP INVALID LOG2 PUSH5 0x6970667358 0x22 SLT KECCAK256 0xCB DUP8 DUP16 SWAP4 0xBF 0xED DUP13 0xE3 0xDE DUP10 0xE2 PUSH13 0xCCEBFA5821FBBF5DB1ACCD333A JUMPI EQ PUSH16 0xED4D03F764736F6C6343000812003300 "
		},
		"gasEstimates": {
			"creation": {
				"codeDepositCost": "4180400",
				"executionCost": "infinite",
				"totalCost": "infinite"
			},
			"external": {
				"approve(address,uint256)": "infinite",
				"balanceOf(address)": "2922",
				"burn(uint256)": "infinite",
				"claim(uint256,uint256,uint256,address,bool,bytes)": "infinite",
				"getApproved(uint256)": "5323",
				"getPinfo(uint256)": "infinite",
				"initialize(address)": "infinite",
				"isApprovedForAll(address,address)": "infinite",
				"mint(address,(uint256,uint256,address,bool))": "infinite",
				"name()": "infinite",
				"owner()": "2634",
				"ownerOf(uint256)": "3110",
				"pause()": "infinite",
				"paused()": "2568",
				"pinfos(uint256)": "infinite",
				"renounceOwnership()": "30466",
				"safeTransferFrom(address,address,uint256)": "infinite",
				"safeTransferFrom(address,address,uint256,bytes)": "infinite",
				"setApprovalForAll(address,bool)": "infinite",
				"setSinger(address)": "27052",
				"signer()": "2604",
				"supportsInterface(bytes4)": "952",
				"symbol()": "infinite",
				"tokenByIndex(uint256)": "infinite",
				"tokenOfOwnerByIndex(address,uint256)": "infinite",
				"tokenURI(uint256)": "infinite",
				"totalSupply()": "2513",
				"transferFrom(address,address,uint256)": "infinite",
				"transferOwnership(address)": "30832",
				"unpause()": "infinite",
				"updateURIPrefix(string)": "infinite"
			},
			"internal": {
				"_baseURI()": "infinite",
				"_transfer(address,address,uint256)": "infinite",
				"claimHash(uint256,uint256,uint256,address,bool)": "infinite",
				"mintNft(address,struct ITriplecMedal.Pinfo memory)": "infinite",
				"verifySignature(bytes32,bytes calldata)": "infinite"
			}
		},
		"methodIdentifiers": {
			"approve(address,uint256)": "095ea7b3",
			"balanceOf(address)": "70a08231",
			"burn(uint256)": "42966c68",
			"claim(uint256,uint256,uint256,address,bool,bytes)": "53885f31",
			"getApproved(uint256)": "081812fc",
			"getPinfo(uint256)": "fdcdcb33",
			"initialize(address)": "c4d66de8",
			"isApprovedForAll(address,address)": "e985e9c5",
			"mint(address,(uint256,uint256,address,bool))": "c94c1bd4",
			"name()": "06fdde03",
			"owner()": "8da5cb5b",
			"ownerOf(uint256)": "6352211e",
			"pause()": "8456cb59",
			"paused()": "5c975abb",
			"pinfos(uint256)": "dd3eb9bd",
			"renounceOwnership()": "715018a6",
			"safeTransferFrom(address,address,uint256)": "42842e0e",
			"safeTransferFrom(address,address,uint256,bytes)": "b88d4fde",
			"setApprovalForAll(address,bool)": "a22cb465",
			"setSinger(address)": "f25259f6",
			"signer()": "238ac933",
			"supportsInterface(bytes4)": "01ffc9a7",
			"symbol()": "95d89b41",
			"tokenByIndex(uint256)": "4f6ccce7",
			"tokenOfOwnerByIndex(address,uint256)": "2f745c59",
			"tokenURI(uint256)": "c87b56dd",
			"totalSupply()": "18160ddd",
			"transferFrom(address,address,uint256)": "23b872dd",
			"transferOwnership(address)": "f2fde38b",
			"unpause()": "3f4ba83a",
			"updateURIPrefix(string)": "bceb2a22"
		}
	},
	"abi": [
		{
			"inputs": [
				{
					"internalType": "string",
					"name": "_name",
					"type": "string"
				},
				{
					"internalType": "string",
					"name": "_symbol",
					"type": "string"
				}
			],
			"stateMutability": "nonpayable",
			"type": "constructor"
		},
		{
			"anonymous": false,
			"inputs": [
				{
					"indexed": true,
					"internalType": "address",
					"name": "owner",
					"type": "address"
				},
				{
					"indexed": true,
					"internalType": "address",
					"name": "approved",
					"type": "address"
				},
				{
					"indexed": true,
					"internalType": "uint256",
					"name": "tokenId",
					"type": "uint256"
				}
			],
			"name": "Approval",
			"type": "event"
		},
		{
			"anonymous": false,
			"inputs": [
				{
					"indexed": true,
					"internalType": "address",
					"name": "owner",
					"type": "address"
				},
				{
					"indexed": true,
					"internalType": "address",
					"name": "operator",
					"type": "address"
				},
				{
					"indexed": false,
					"internalType": "bool",
					"name": "approved",
					"type": "bool"
				}
			],
			"name": "ApprovalForAll",
			"type": "event"
		},
		{
			"anonymous": false,
			"inputs": [
				{
					"indexed": true,
					"internalType": "address",
					"name": "previousOwner",
					"type": "address"
				},
				{
					"indexed": true,
					"internalType": "address",
					"name": "newOwner",
					"type": "address"
				}
			],
			"name": "OwnershipTransferred",
			"type": "event"
		},
		{
			"anonymous": false,
			"inputs": [
				{
					"indexed": false,
					"internalType": "address",
					"name": "account",
					"type": "address"
				}
			],
			"name": "Paused",
			"type": "event"
		},
		{
			"anonymous": false,
			"inputs": [
				{
					"indexed": true,
					"internalType": "address",
					"name": "from",
					"type": "address"
				},
				{
					"indexed": true,
					"internalType": "address",
					"name": "to",
					"type": "address"
				},
				{
					"indexed": true,
					"internalType": "uint256",
					"name": "tokenId",
					"type": "uint256"
				}
			],
			"name": "Transfer",
			"type": "event"
		},
		{
			"anonymous": false,
			"inputs": [
				{
					"indexed": true,
					"internalType": "address",
					"name": "account",
					"type": "address"
				},
				{
					"indexed": true,
					"internalType": "uint256",
					"name": "tokenId",
					"type": "uint256"
				},
				{
					"components": [
						{
							"internalType": "uint256",
							"name": "pid",
							"type": "uint256"
						},
						{
							"internalType": "uint256",
							"name": "level",
							"type": "uint256"
						},
						{
							"internalType": "address",
							"name": "master",
							"type": "address"
						},
						{
							"internalType": "bool",
							"name": "canTranster",
							"type": "bool"
						}
					],
					"indexed": false,
					"internalType": "struct ITriplecMedal.Pinfo",
					"name": "pinfo",
					"type": "tuple"
				}
			],
			"name": "TriplecMedalMint",
			"type": "event"
		},
		{
			"anonymous": false,
			"inputs": [
				{
					"indexed": true,
					"internalType": "string",
					"name": "baseURI",
					"type": "string"
				}
			],
			"name": "URIPrefix",
			"type": "event"
		},
		{
			"anonymous": false,
			"inputs": [
				{
					"indexed": false,
					"internalType": "address",
					"name": "account",
					"type": "address"
				}
			],
			"name": "Unpaused",
			"type": "event"
		},
		{
			"inputs": [
				{
					"internalType": "address",
					"name": "to",
					"type": "address"
				},
				{
					"internalType": "uint256",
					"name": "tokenId",
					"type": "uint256"
				}
			],
			"name": "approve",
			"outputs": [],
			"stateMutability": "nonpayable",
			"type": "function"
		},
		{
			"inputs": [
				{
					"internalType": "address",
					"name": "owner",
					"type": "address"
				}
			],
			"name": "balanceOf",
			"outputs": [
				{
					"internalType": "uint256",
					"name": "",
					"type": "uint256"
				}
			],
			"stateMutability": "view",
			"type": "function"
		},
		{
			"inputs": [
				{
					"internalType": "uint256",
					"name": "_id",
					"type": "uint256"
				}
			],
			"name": "burn",
			"outputs": [],
			"stateMutability": "nonpayable",
			"type": "function"
		},
		{
			"inputs": [
				{
					"internalType": "uint256",
					"name": "_pid",
					"type": "uint256"
				},
				{
					"internalType": "uint256",
					"name": "_dummyId",
					"type": "uint256"
				},
				{
					"internalType": "uint256",
					"name": "_level",
					"type": "uint256"
				},
				{
					"internalType": "address",
					"name": "_to",
					"type": "address"
				},
				{
					"internalType": "bool",
					"name": "_canTranster",
					"type": "bool"
				},
				{
					"internalType": "bytes",
					"name": "_signature",
					"type": "bytes"
				}
			],
			"name": "claim",
			"outputs": [
				{
					"internalType": "uint256",
					"name": "",
					"type": "uint256"
				}
			],
			"stateMutability": "nonpayable",
			"type": "function"
		},
		{
			"inputs": [
				{
					"internalType": "uint256",
					"name": "tokenId",
					"type": "uint256"
				}
			],
			"name": "getApproved",
			"outputs": [
				{
					"internalType": "address",
					"name": "",
					"type": "address"
				}
			],
			"stateMutability": "view",
			"type": "function"
		},
		{
			"inputs": [
				{
					"internalType": "uint256",
					"name": "tokenId",
					"type": "uint256"
				}
			],
			"name": "getPinfo",
			"outputs": [
				{
					"components": [
						{
							"internalType": "uint256",
							"name": "pid",
							"type": "uint256"
						},
						{
							"internalType": "uint256",
							"name": "level",
							"type": "uint256"
						},
						{
							"internalType": "address",
							"name": "master",
							"type": "address"
						},
						{
							"internalType": "bool",
							"name": "canTranster",
							"type": "bool"
						}
					],
					"internalType": "struct ITriplecMedal.Pinfo",
					"name": "pinfo",
					"type": "tuple"
				}
			],
			"stateMutability": "view",
			"type": "function"
		},
		{
			"inputs": [
				{
					"internalType": "address",
					"name": "_owner",
					"type": "address"
				}
			],
			"name": "initialize",
			"outputs": [],
			"stateMutability": "nonpayable",
			"type": "function"
		},
		{
			"inputs": [
				{
					"internalType": "address",
					"name": "owner",
					"type": "address"
				},
				{
					"internalType": "address",
					"name": "operator",
					"type": "address"
				}
			],
			"name": "isApprovedForAll",
			"outputs": [
				{
					"internalType": "bool",
					"name": "",
					"type": "bool"
				}
			],
			"stateMutability": "view",
			"type": "function"
		},
		{
			"inputs": [
				{
					"internalType": "address",
					"name": "to",
					"type": "address"
				},
				{
					"components": [
						{
							"internalType": "uint256",
							"name": "pid",
							"type": "uint256"
						},
						{
							"internalType": "uint256",
							"name": "level",
							"type": "uint256"
						},
						{
							"internalType": "address",
							"name": "master",
							"type": "address"
						},
						{
							"internalType": "bool",
							"name": "canTranster",
							"type": "bool"
						}
					],
					"internalType": "struct ITriplecMedal.Pinfo",
					"name": "pinfo",
					"type": "tuple"
				}
			],
			"name": "mint",
			"outputs": [
				{
					"internalType": "uint256",
					"name": "",
					"type": "uint256"
				}
			],
			"stateMutability": "nonpayable",
			"type": "function"
		},
		{
			"inputs": [],
			"name": "name",
			"outputs": [
				{
					"internalType": "string",
					"name": "",
					"type": "string"
				}
			],
			"stateMutability": "view",
			"type": "function"
		},
		{
			"inputs": [],
			"name": "owner",
			"outputs": [
				{
					"internalType": "address",
					"name": "",
					"type": "address"
				}
			],
			"stateMutability": "view",
			"type": "function"
		},
		{
			"inputs": [
				{
					"internalType": "uint256",
					"name": "tokenId",
					"type": "uint256"
				}
			],
			"name": "ownerOf",
			"outputs": [
				{
					"internalType": "address",
					"name": "",
					"type": "address"
				}
			],
			"stateMutability": "view",
			"type": "function"
		},
		{
			"inputs": [],
			"name": "pause",
			"outputs": [],
			"stateMutability": "nonpayable",
			"type": "function"
		},
		{
			"inputs": [],
			"name": "paused",
			"outputs": [
				{
					"internalType": "bool",
					"name": "",
					"type": "bool"
				}
			],
			"stateMutability": "view",
			"type": "function"
		},
		{
			"inputs": [
				{
					"internalType": "uint256",
					"name": "",
					"type": "uint256"
				}
			],
			"name": "pinfos",
			"outputs": [
				{
					"internalType": "uint256",
					"name": "pid",
					"type": "uint256"
				},
				{
					"internalType": "uint256",
					"name": "level",
					"type": "uint256"
				},
				{
					"internalType": "address",
					"name": "master",
					"type": "address"
				},
				{
					"internalType": "bool",
					"name": "canTranster",
					"type": "bool"
				}
			],
			"stateMutability": "view",
			"type": "function"
		},
		{
			"inputs": [],
			"name": "renounceOwnership",
			"outputs": [],
			"stateMutability": "nonpayable",
			"type": "function"
		},
		{
			"inputs": [
				{
					"internalType": "address",
					"name": "from",
					"type": "address"
				},
				{
					"internalType": "address",
					"name": "to",
					"type": "address"
				},
				{
					"internalType": "uint256",
					"name": "tokenId",
					"type": "uint256"
				}
			],
			"name": "safeTransferFrom",
			"outputs": [],
			"stateMutability": "nonpayable",
			"type": "function"
		},
		{
			"inputs": [
				{
					"internalType": "address",
					"name": "from",
					"type": "address"
				},
				{
					"internalType": "address",
					"name": "to",
					"type": "address"
				},
				{
					"internalType": "uint256",
					"name": "tokenId",
					"type": "uint256"
				},
				{
					"internalType": "bytes",
					"name": "data",
					"type": "bytes"
				}
			],
			"name": "safeTransferFrom",
			"outputs": [],
			"stateMutability": "nonpayable",
			"type": "function"
		},
		{
			"inputs": [
				{
					"internalType": "address",
					"name": "operator",
					"type": "address"
				},
				{
					"internalType": "bool",
					"name": "approved",
					"type": "bool"
				}
			],
			"name": "setApprovalForAll",
			"outputs": [],
			"stateMutability": "nonpayable",
			"type": "function"
		},
		{
			"inputs": [
				{
					"internalType": "address",
					"name": "_signer",
					"type": "address"
				}
			],
			"name": "setSinger",
			"outputs": [],
			"stateMutability": "nonpayable",
			"type": "function"
		},
		{
			"inputs": [],
			"name": "signer",
			"outputs": [
				{
					"internalType": "address",
					"name": "",
					"type": "address"
				}
			],
			"stateMutability": "view",
			"type": "function"
		},
		{
			"inputs": [
				{
					"internalType": "bytes4",
					"name": "interfaceId",
					"type": "bytes4"
				}
			],
			"name": "supportsInterface",
			"outputs": [
				{
					"internalType": "bool",
					"name": "",
					"type": "bool"
				}
			],
			"stateMutability": "view",
			"type": "function"
		},
		{
			"inputs": [],
			"name": "symbol",
			"outputs": [
				{
					"internalType": "string",
					"name": "",
					"type": "string"
				}
			],
			"stateMutability": "view",
			"type": "function"
		},
		{
			"inputs": [
				{
					"internalType": "uint256",
					"name": "index",
					"type": "uint256"
				}
			],
			"name": "tokenByIndex",
			"outputs": [
				{
					"internalType": "uint256",
					"name": "",
					"type": "uint256"
				}
			],
			"stateMutability": "view",
			"type": "function"
		},
		{
			"inputs": [
				{
					"internalType": "address",
					"name": "owner",
					"type": "address"
				},
				{
					"internalType": "uint256",
					"name": "index",
					"type": "uint256"
				}
			],
			"name": "tokenOfOwnerByIndex",
			"outputs": [
				{
					"internalType": "uint256",
					"name": "",
					"type": "uint256"
				}
			],
			"stateMutability": "view",
			"type": "function"
		},
		{
			"inputs": [
				{
					"internalType": "uint256",
					"name": "tokenId",
					"type": "uint256"
				}
			],
			"name": "tokenURI",
			"outputs": [
				{
					"internalType": "string",
					"name": "",
					"type": "string"
				}
			],
			"stateMutability": "view",
			"type": "function"
		},
		{
			"inputs": [],
			"name": "totalSupply",
			"outputs": [
				{
					"internalType": "uint256",
					"name": "",
					"type": "uint256"
				}
			],
			"stateMutability": "view",
			"type": "function"
		},
		{
			"inputs": [
				{
					"internalType": "address",
					"name": "from",
					"type": "address"
				},
				{
					"internalType": "address",
					"name": "to",
					"type": "address"
				},
				{
					"internalType": "uint256",
					"name": "tokenId",
					"type": "uint256"
				}
			],
			"name": "transferFrom",
			"outputs": [],
			"stateMutability": "nonpayable",
			"type": "function"
		},
		{
			"inputs": [
				{
					"internalType": "address",
					"name": "newOwner",
					"type": "address"
				}
			],
			"name": "transferOwnership",
			"outputs": [],
			"stateMutability": "nonpayable",
			"type": "function"
		},
		{
			"inputs": [],
			"name": "unpause",
			"outputs": [],
			"stateMutability": "nonpayable",
			"type": "function"
		},
		{
			"inputs": [
				{
					"internalType": "string",
					"name": "baseURI_",
					"type": "string"
				}
			],
			"name": "updateURIPrefix",
			"outputs": [],
			"stateMutability": "nonpayable",
			"type": "function"
		}
	]
}